:020000040800F2
:1000000038290120A9470008511200085912000898
:10001000791200088112000889120008000000000F
:100020000000000000000000000000009112000825
:100030009912000800000000A9610008A112000840
:10004000911300081548000815480008E916000833
:100050001548000815480008C1130008E5130008FA
:10006000091400082914000849140008154800085C
:1000700015480008154800081548000845510008B3
:1000800015480008154800085516000815480008CE
:1000900015480008154800081548000869140008AC
:1000A00015480008154800081548000815480008BC
:1000B00015480008154800081548000815480008AC
:1000C000154800081548000815480008154800089C
:1000D000154800081548000895160008154800083E
:1000E000FD140008B9150008154800081548000857
:1000F000154800081548000815480008154800086C
:1001000015480008154800080D1700081548000894
:1001100015480008A11600088517000831170008C7
:1001200015480008154800083D1700086117000829
:10013000154800081548000815480008154800082B
:10014000154800081548000815480008154800081B
:1001500015480008DD16000815480008D1160008EB
:1001600015480008154800081548000815480008FB
:1001700015480008154800081548000815480008EB
:10018000154800081548000880B582B000AF7860B7
:1001900039607B681B881B01DAB23B68DA707B68C8
:1001A0005A883B689A807B681B88022B04D17B6845
:1001B0005A683B689A600CE07B681B88092B08D161
:1001C0003B689A1D7B68083310461946062209F0E1
:1001D00037FE0837BD4680BD80B485B000AF02460B
:1001E0000B46FA80BB80FB8803F0F0031B11094A21
:1001F000D35C03F24653FB60BA88FB689A4202D98B
:10020000FB689BB200E0BB8818461437BD465DF81A
:10021000047B7047F0E0000880B584B000AF03466F
:10022000FB80FB88DBB23B7207F1080308481946E4
:10023000002201F0D3FD0346FB81B7F90E30002BFD
:1002400000D0FEE73B891BB218461037BD4680BD83
:1002500004E1000880B58EB000AFB9600146F981B5
:10026000BA81FB800023BB84002387F8263000235B
:1002700087F8273007F11403184603F02BFABB89DF
:10028000BB82BB68FB613B6C1B88022B02D0092B35
:1002900007D00DE049F20D43BB840C2387F82630CC
:1002A00009E049F20463BB840C2387F8263002E09E
:1002B0004FF6FE7353E0BB89B7F90E20104619467E
:1002C000FFF78AFF0346FB86FB8E3B85FB8EBB82D6
:1002D000FB89DBB287F82A3007F12803386C19460E
:1002E000FFF752FF97F82B30DAB2FB88DBB203F04E
:1002F0000F03DBB21343DBB2DBB287F82B30FB8991
:10030000D8B207F1240107F1280207F1140301F024
:100310004DFE0346BB86B7F93430002B1CD1FA6979
:10032000FB8E1344FB61B7F90C30BA6813441A46CC
:10033000FB69D31AFB86B7F90E20FB8E10461946CF
:10034000FFF74AFF0346FB86FB8EBB82FB8E3B8595
:10035000FB8E002BD3D101E0BB8E00E0BB891BB22A
:1003600018463837BD4680BD80B58CB000AFB96047
:100370000146F981BA81FB8007F11003184603F0AA
:10038000A9F9BB897B82BB68FB61FB89DBB287F87B
:100390002230BB893B843B8C9BB27B82FB88DBB2E7
:1003A00003F00F03DBB287F82330FB6B1B88102BA5
:1003B00007D197F8233043F02003DBB287F82330CE
:1003C0000EE0FB6B1B881C2B07D197F8233043F002
:1003D0003003DBB287F8233002E04FF6FE7341E0D2
:1003E000FB89D9B207F1200207F110030846204922
:1003F00001F038FD0346FB85B7F92E30002B01D004
:10040000FB8D2FE03B8CFB85B7F92E30002B28DBD2
:10041000B7F90E2097F822309A4200D0FEE797F8FD
:1004200023301A46BB6B1A80BB6B1B88022B09D189
:10043000BA8CBB6B5A80BA6ABB6B5A60FB6B1022DA
:100440001A800EE0BB6B1B88092B0AD1BA8CBB6BE0
:100450005A80BB6B083307F1260211681960928835
:100460009A80FB8D1BB218463037BD4680BD00BF59
:1004700008E1000880B584B000AF78607B6808337D
:10048000FB6003F0D3F8FB689B7803F00F03082BA5
:1004900000DDFEE71B4B19681A4B1B6893F8B4315B
:1004A0001A4613465B0013449B000B4410335B68F1
:1004B000FA6892789A70134B1968124B1B6893F87C
:1004C000B4311A4613465B0013449B000B441033AF
:1004D0005B68FA6812881A800A4B1968094B1B6816
:1004E00093F8B4311A4613465B0013449B00103353
:1004F0000B44184603F074F803F0C4F800BF10373B
:10050000BD4680BDD419002080B58CB000AFB96065
:100510000146F981BA81FB80002387F82D3007F16D
:100520001403184603F0D6F8BB89BB82BB68FB6195
:10053000FB8903F0F003802B0CD1B7F906303B6147
:1005400007F110033B624FF6FC73FB82012387F82F
:100550002D3001E000233B62BB89B7F90E20104625
:100560001946FFF739FE0346FB85FB8DBB82FB8DE9
:10057000BB84FB89DBB287F8263097F82730DAB2E4
:10058000FB88DBB203F00F03DBB21343DBB2DBB259
:1005900087F82730FB89D9B207F1240207F1140349
:1005A0000846194901F002FD03467B85B7F92A3058
:1005B000002B1CD1FA69FB8D1344FB61B7F90C3099
:1005C000BA6813441A46FB69D31AFB85B7F90E20A3
:1005D000FB8D10461946FFF7FFFD0346FB85FB8D9B
:1005E000BB82FB8DBB84FB8D002B06D001E07B8D95
:1005F00004E097F82D30002BCCD0BB891BB21846F5
:100600003037BD4680BD00BF0CE1000880B584B026
:1006100000AF78607B680833FB6003F007F8FB6885
:100620009B7803F00F03082B00DDFEE7144B1968DD
:10063000134B1B6893F8B4311A4613465B001344FE
:100640009B000B4410335B681846F9680C2209F0D4
:10065000F7FB0B4B19680A4B1B6893F8B4311A4629
:1006600013465B0013449B0010330B44184602F002
:10067000B7FF03F007F800BF1037BD4680BD00BFCD
:10068000D419002080B584B000AF78607B6808334F
:10069000FB6002F0CBFF144B1968134B1B6893F8F7
:1006A000B4311A4613465B0013449B000B441033CD
:1006B0005B681846F968082209F0C2FB0A4B196802
:1006C000094B1B6893F8B4311A4613465B00134478
:1006D0009B0010330B44184602F082FF02F0D2FF59
:1006E00000BF1037BD4680BDD419002080B58AB048
:1006F00000AFB9600146F981BA81FB8007F11003B0
:10070000184602F0E7FFBB897B82BB68FB61FB896F
:10071000DBB287F82230BB893B843B8C9BB27B8267
:10072000FB88DBB203F00F03DBB287F82330FB89D1
:10073000D9B207F1200207F110030846084901F079
:1007400091FB0346FB84B7F92630002B01D0FB8CCC
:1007500000E03B8C1BB218462837BD4680BD00BF69
:1007600018E1000880B58AB000AFB9607A603B60DC
:100770000346FB81202387F82730FB89DBB23B76D9
:1007800000237B760023BB760023BB830023FB83FF
:10079000BB68002B03D0BB681B689BB2BB837B6824
:1007A000002B03D07B681B689BB2FB833B6B002B49
:1007B00006D14FF6FF737B844FF6FF733B8420E036
:1007C0003B6B1A684FF6FE739A4203D94FF6FF73DC
:1007D0007B8403E03B6B1B689BB27B843B6B5B6859
:1007E0009A0A3B6B5A603B6B5A684FF6FE739A420B
:1007F00003D94FF6FF733B8403E03B6B5B689BB20E
:100800003B8407F1100318460A21082201F0BCFAC4
:10081000034687F8273097F82730202B02D14FF670
:10082000300338E007F118031D481946002201F093
:10083000D5FA0346BB84B7F92430002B00D0FEE77D
:100840003B8B002B21D1174B196897F827201346B3
:100850005B0013449B0010330B44184602F0ACFEBF
:100860003B8A9BB23B833B8B1BB2002B0DDBBB68EF
:10087000002B03D0BB8A1A46BB681A607B68002B2A
:1008800003D0FB8A1A467B681A6097F8273018460F
:1008900002F074FC3B8B1BB218462837BD4680BD66
:1008A00024E10008D419002080B483B000AF0346CF
:1008B0003960FB803B681A68FB8803F00F03012155
:1008C00001FA03F31A433B681A600C37BD465DF822
:1008D000047B704780B483B000AF03463960FB806F
:1008E0003B681A68FB8803F00F03012101FA03F348
:1008F0001340002B01D0012300E000231BB2184657
:100900000C37BD465DF8047B704700BF80B483B0F0
:1009100000AF78607B6800221A600C37BD465DF836
:10092000047B704780B584B000AF02460B46FA7175
:10093000BB800023FB60F97907F10C02BB880846F5
:10094000042100F06DF8FB6818461037BD4680BDE5
:1009500080B584B000AF02460B46FA71BB8000231D
:10096000FB81F97907F10E02BB880846022100F0ED
:1009700057F8FB8918461037BD4680BD80B584B056
:1009800000AF02460B46FA71BB800023FB73F97976
:1009900007F10F02BB880846012100F041F8FB7BFC
:1009A000DBB218461037BD4680BD00BF80B582B0AF
:1009B00000AF0B463A600246FA71BB80F9793A46BD
:1009C000BB880846042100F091F80837BD4680BD79
:1009D00080B582B000AF13460246FA710A46BA806B
:1009E0007B80F979BA1CBB880846022100F07EF8AA
:1009F0000837BD4680BD00BF80B582B000AF13464A
:100A00000246FA710A46BA80BB71F979BA1DBB88F1
:100A10000846012100F06AF80837BD4680BD00BFD6
:100A200080B588B000AFBA600246FA730A46BA8150
:100A3000FB800123FB75FB7B3F2B02D94FF0FF337B
:100A40004EE0FB881BB2002B02DA4FF0FF3347E089
:100A5000FA88BB891344B3F5004F02DB4FF0FF3334
:100A60003EE0FB88002B18D0FB7B43F04003DBB259
:100A70003B76FB887F2B05D8FB88DBB27B76022395
:100A8000FB750CE0FB88DBB27B76FB88DB099BB255
:100A9000DBB2BB760323FB7501E0FB7B3B76FB7D82
:100AA000DBB207F11802104811461A4609F0C8F9DE
:100AB000FB7DDBB21A46BB8913449BB20A48194638
:100AC00004F030F90346FB83FB7DDBB21A46064B8C
:100AD0001A44BB89B86811461A4609F0B1F9FB8B74
:100AE00018462037BD4680BDE808002080B586B096
:100AF00000AFBA600246FA730A46BA81FB8001234E
:100B0000FB74FB88002B1BD0FB7B63F03F03DBB245
:100B10003B75FB887F2B05D8FB88DBB27B750223F6
:100B2000FB7412E0FB88DBB263F07F03DBB27B7502
:100B3000FB88DB099BB2DBB2BB750323FB7404E0CB
:100B4000FB7B63F07F03DBB23B75FB7CDBB207F121
:100B500014020F4811461A4609F072F9FB7CDBB209
:100B60001A460B4B1A44BB891046B9681A4609F05D
:100B700067F9FB7CDBB21A46BB8913449BB204487D
:100B8000194604F0CFF8034618461837BD4680BD15
:100B9000E808002080B586B000AFBA600246FA735C
:100BA0000A46BA81FB800123FB75FB7B63F07F0360
:100BB000DBB23B75FB7D07F11402154811461A465E
:100BC00009F03EF9FA7D124B1A44BB891046B96808
:100BD0001A4609F035F9FA7DBB891A440C4B1A44C0
:100BE000FB881046396A1A4609F02AF9FB7D9AB249
:100BF000BB8913449AB2FB8813449BB2044819463C
:100C000004F090F8034618461837BD4680BD00BF73
:100C1000E808002080B582B000AF786039603B689A
:100C2000002B43DB7B68002B40D0224B1B78002B32
:100C300002D03B6802333B603B68B3F5806F00DB5A
:100C400034E03B687F2B04DD1B4B1B78002B00D16D
:100C50002CE01A4B1B6823F47F7323F00303174A1D
:100C60001360164B1A683B681A43144B1A60134BF7
:100C70001B689BB2082000211A46FFF7A9FE0D4B06
:100C80001B78002B0AD03B689BB2023B9BB2092029
:100C900019467A680023FFF729FF07E03B689BB2FB
:100CA000092019467A680023FFF720FF0837BD4660
:100CB00080BD00BF1F1A0020181A00209CDC0020F5
:100CC00080B588B002AFF860B9607A603B60BA68FE
:100CD0003B6813447B617B69002B37DB7B68002B0F
:100CE00034D01C4B1B78002B02D07B6902337B6114
:100CF0007B69B3F5806F00DB28E07B697F2B04DD27
:100D0000154B1B78002B00D120E0BB689AB23B68E2
:100D10009BB27968009109201146FA68FFF73AFF03
:100D20000E4B1B6823F47F7323F003030B4A1360FD
:100D30000A4B1A687B691A43084B1A60074B1B68F9
:100D40009BB2082000211A46FFF742FE1837BD4625
:100D500080BD00BF1F1A0020181A00209CDC002054
:100D600080B582B000AF0023FB80144B1B78022BB0
:100D700007D1134B1B689BB2C3F309039BB2FB80E3
:100D80000BE0BB1D102002211A460023FFF748FE8E
:100D9000FB88C3F309039BB2FB800A4B1B78002B33
:100DA00006D0FB88022B03D9FB88023B9BB200E0F4
:100DB000FB8818460837BD4680BD00BF251A0020B5
:100DC0009CDC00201F1A002080B586B000AF786040
:100DD0007B6808337B61304B19682F4B1B6893F895
:100DE000B4311A4613465B0013449B000B4418337E
:100DF0005B78DBB25BB2002B00DA4AE07B695B8890
:100E00007B82254B1968244B1B6893F8B4311A4632
:100E100013465B0013449B000B4410335B68FB607C
:100E2000FB685B687A6992681A60FB689B687A69FC
:100E300052681A607B691B889AB2FB681A80FB684B
:100E4000DB681B887B817A8A7B899A4238BF13468C
:100E50007B81FB68DB687A891A80FB6819697B698A
:100E600003F10C027B89084611461A4608F0E8FF98
:100E7000094B1968084B1B6893F8B4311A4613469E
:100E80005B0013449B0010330B44184602F0A8FB90
:100E900000BF1837BD4680BDD419002080B584B08E
:100EA00000AF78607B680833FB6002F0BFFB274B24
:100EB0001968264B1B6893F8B4311A4613465B0039
:100EC00013449B000B4418335B78DBB25BB2002BFE
:100ED00013DA1E4B19681D4B1B6893F8B4311A4680
:100EE00013465B0013449B000B4410335B681846A9
:100EF000F968142208F0A4FF12E0144B1968134B90
:100F00001B6893F8B4311A4613465B0013449B00E8
:100F10000B4410335B681846F968082208F090FF0C
:100F20000A4B1968094B1B6893F8B4311A461346EB
:100F30005B0013449B0010330B44184602F050FB37
:100F400002F0A0FB00BF1037BD4680BDD4190020C1
:100F500080B483B000AF786039607B68DA683B6842
:100F60001A607B689A683B685A607B685A883B685D
:100F70001A817B689A883B685A817B68DA883B686B
:100F80009A817B681A693B681A610C37BD465DF827
:100F9000047B704780B588B000AF78607B68083309
:100FA000FB61264B1B68002B0CD007F10803F86986
:100FB0001946FFF7CDFF214B1B6807F108021046C9
:100FC000984736E002F032FB1D4B19681C4B1B683A
:100FD00093F8B4311A4613465B0013449B000B444C
:100FE00010335B68002B22D0154B1968144B1B681B
:100FF00093F8B4311A4613465B0013449B000B442C
:1010000010335B681846F969142208F019FF0C4B7D
:1010100019680B4B1B6893F8B4311A4613465B00F2
:1010200013449B0010330B44184602F0D9FA02F027
:1010300029FB00BF2037BD4680BD00BFD819002066
:10104000D419002080B58EB000AF78607B681B7823
:1010500003339BB223F003039BB2BB810023FB81CC
:101060007B685B687B610023BB617B681B783B7797
:101070007B685B787B777B689A687B685B7807F135
:101080001C010231084611461A4608F0D9FE07F144
:101090001C0207F10C03094811461A4601F060FFD3
:1010A0000346FB86B7F93630002B00D0FEE7BB8B3A
:1010B0009BB218463837BD4680BD00BF48E10008E6
:1010C00080B594B000AF78607B68FB64FB6C1B88D4
:1010D00041F63002934253D041F6300293420BDC8A
:1010E00041F6220293421BD041F62E0293421BD0BE
:1010F000B3F5C15F0CD072E0B3F5D15F08D041F613
:101100003522934208D041F63502934204D066E07E
:101110007868FFF7C3FE63E07868FFF755FE5FE08D
:101120007868FFF737FF5BE0FB6C0833BB64BB6C90
:1011300004337B6401237B6140233B76FB6C1C33CF
:10114000FB6101233B62BB6C1B7887F824307B6C0E
:10115000BB627B6C3B6107F1200207F11403104670
:10116000194604F065FD3B7E3B7297F824307B7294
:10117000FB69FB6007F108031846FFF763FF2FE0E8
:10118000FB6C08333B643B6C0433FB6302233B6220
:101190003B6C1B7887F82430FB6BBB623B6C1B7885
:1011A000FA6B1344FB633B6C5B7887F82C30FB6B6A
:1011B0003B633B6C5B78FA6B1344FB633B6C9B7843
:1011C00087F83430FB6BBB6300237B6107F120029F
:1011D00007F114031046194604F02AFD00E0FEE76B
:1011E0005037BD4680BD00BF80B500AF0E4B1B78A9
:1011F000DBB2012B10D10D4B1B78012B01D103F079
:101200000DFB0B4B1B78DBB2012B01D103F0F8F97E
:10121000054B00221A7006E0034B1B78DBB2013B42
:10122000DAB2014B1A7080BD69190020F01B002052
:101230006A19002080B400AF044B1B685A1C034B92
:101240001A60BD465DF8047B704700BF642F002024
:1012500080B400AFFEE700BF80B400AF1EF0040F03
:101260000CBFEFF30880EFF3098000F09DBABD4694
:101270005DF8047B704700BF80B400AFFEE700BF9D
:1012800080B400AFFEE700BF80B400AFFEE700BF50
:1012900080B400AFFEE700BF80B400AFFEE700BF40
:1012A00080B500AF304B1B685A1C2F4B1A602F4B78
:1012B0001B685A1C2D4B1A602D4B1B685A1C2C4B5B
:1012C0001A602C4B1B685A1C2A4B1A602A4B1B684D
:1012D0005A1C294B1A60294B1B68002B0CDD264B2E
:1012E0001B68632B0BD9244B00221A60234B1B680D
:1012F0005A1E224B1A6002E0204B00221A60204B3B
:101300001B685A1C1E4B1A60184B1B68132B04D900
:1013100005F030FF154B00221A6005F06FF8154BF1
:101320001B68042B1BD9134B00221A60154B1B683A
:1013300003F00103002B10D0124B1B6803F00403D1
:10134000002B0AD0104B1B78002B06D10F4B1B78BB
:10135000002B02D102F098FE01E006F003FA03F040
:10136000EFFBFFF767FF80BD881900208C19002074
:101370009019002094190020981900208419002049
:10138000802D0020442D0020FC1900207019002021
:1013900080B582B000AF7F23FB7103F061F803F0EA
:1013A0003FF8FB79184603F049F803F059F8034871
:1013B00006F05CFA0837BD4680BD00BF50E100086A
:1013C00080B500AF012005F0E1F80346012B07D1FD
:1013D000012005F0CDF8012005F0FCF803F0F8FE3F
:1013E00080BD00BF80B500AF054B02225A61054B9E
:1013F00001221A7002F0F4F9024B00221A7080BD2B
:10140000003C0140261A002080B500AF042005F002
:10141000BDF80346012B05D1042005F0A9F80420EE
:1014200005F0D8F880BD00BF80B500AF082005F0FA
:10143000ADF80346012B05D1082005F099F80820E6
:1014400005F0C8F880BD00BF80B500AF102005F0E2
:101450009DF80346012B05D1102005F089F81020D6
:1014600005F0B8F880BD00BF80B500AF202005F0C2
:101470008DF80346012B07D1202005F079F82020B4
:1014800005F0A8F804F0A2FF402005F07FF803461D
:10149000012B05D1402005F06BF8402005F09AF8AB
:1014A000802005F073F80346012B05D1802005F05C
:1014B0005FF8802005F08EF84FF4807005F066F834
:1014C0000346012B09D14FF4807005F051F84FF419
:1014D000807005F07FF804F06BFF4FF4007005F0AA
:1014E00055F80346012B07D14FF4007005F040F882
:1014F0004FF4007005F06EF880BD00BF80B500AFFE
:101500004FF4806005F042F80346012B07D14FF4F9
:10151000806005F02DF84FF4806005F05BF84FF423
:10152000006005F033F80346012B07D14FF400604B
:1015300005F01EF84FF4006005F04CF84FF48050B1
:1015400005F024F80346012B07D14FF4805005F035
:101550000FF84FF4805005F03DF84FF4005005F0BF
:1015600015F80346012B07D14FF4005005F000F8A1
:101570004FF4005005F02EF84FF4804005F006F8C7
:101580000346012B07D14FF4804004F0F1FF4FF4E4
:10159000804005F01FF84FF4004004F0F7FF0346C9
:1015A000012B07D14FF4004004F0E2FF4FF400405C
:1015B00005F010F880BD00BF80B500AF4FF40040CB
:1015C00005F066FE0346002B07D04FF4004005F0FF
:1015D00093FE4FF4001004F0FDFF4FF4804005F03F
:1015E00057FE0346002B07D04FF4804005F084FEE1
:1015F0004FF4800004F0EEFF4FF4005005F048FE79
:101600000346002B07D04FF4005005F075FE4FF451
:10161000003004F0DFFF4FF4805005F039FE034640
:10162000002B07D04FF4805005F066FE4FF40030D9
:1016300004F0D0FF4FF4003005F02AFE0346002BE3
:1016400007D04FF4003005F057FE4FF4001004F0BF
:10165000C1FF80BD80B500AF0D4840F2052103F009
:10166000D5FA0346012B04D1094840F2052103F0C5
:10167000FBFA07484FF4837103F0C8FA0346012BC5
:1016800004D103484FF4837103F0EEFA80BD00BF2C
:101690000020014080B400AFBD465DF8047B704778
:1016A00080B500AF084840F2255102F041F80346EA
:1016B000002B08D0044802F02BF80346DBB20348A5
:1016C000194602F013F880BD00500040004400406D
:1016D00080B500AF03F08AFD80BD00BF80B400AFCD
:1016E000BD465DF8047B704780B500AF4FF4804085
:1016F00005F0CEFD0346002B07D04FF4804005F0E7
:10170000FBFD4FF4800004F065FF80BD80B500AFA5
:101710000548042105F084FF0346012B03D103484B
:10172000042105F0A7FF80BD000C0040000001402F
:1017300080B500AF05F0EEF880BD00BF80B500AF0A
:101740000548064904F03AFC0346002B03D0024842
:10175000024904F08BFC80BD4064024000802010F0
:1017600080B500AF0548064904F028FC0346002B6D
:1017700003D00248024904F079FC80BD586402405D
:101780000080001880B400AF064B1B8A054B054A49
:10179000128A92B222F0010292B21A82BD465DF81C
:1017A000047B704700100040B0B5CAB000AF3B1DCD
:1017B00018603B1D1B681B68C7F824313B1D1B6864
:1017C0005B68C7F820313B1D1B689B68C7F81C315C
:1017D0003B1D1B68DB68C7F818313B1D1B681B6984
:1017E000C7F814313B1D1B685B69C7F810313B1DFE
:1017F0001B689B69C7F80C313B1D1B68DB69C7F888
:101800000831754806F032F807F1080318467349A5
:10181000D7F8242108F0F8FB07F10803184606F072
:1018200025F807F1080318466D49D7F8202108F07C
:10183000EBFB07F10803184606F018F807F1080358
:1018400018466849D7F81C2108F0DEFB07F10803A9
:10185000184606F00BF807F1080318466249D7F856
:10186000182108F0D1FB07F10803184605F0FEFF28
:1018700007F1080318465D49D7F8142108F0C4FBA6
:1018800007F10803184605F0F1FF07F108031846B1
:101890005749D7F8102108F0B7FB07F1080318469D
:1018A00005F0E4FF07F1080318465249D7F80C2168
:1018B00008F0AAFB07F10803184605F0D7FF07F167
:1018C000080318464C49D7F8082108F09DFB07F19A
:1018D0000803184605F0CAFF484B1B6807F10802C9
:1018E000104647491A4608F08FFB07F108031846CF
:1018F00005F0BCFF434B1B6807F108021046424944
:101900001A4608F081FB07F10803184605F0AEFF00
:101910003E4B1B6807F1080210463D491A4608F085
:1019200073FB07F10803184605F0A0FF394B1B684D
:1019300007F10802104638491A4608F065FB07F11E
:101940000803184605F092FF344B1B6807F10802A4
:10195000104633491A4608F057FB07F108031846AA
:1019600005F084FF2F4B5B6A07F1080210462E49F1
:101970001A4608F049FB07F10803184605F076FF00
:10198000284BDB6A002B03DA284805F06FFF1FE0C5
:10199000244BDB6A03F08043002B03D0244805F07E
:1019A00065FF15E01F4BDB6A03F00103002B0FD02E
:1019B00007F108021F4B14461D460FCD0FC495E8D2
:1019C000070003C4228007F10803184605F04EFF04
:1019D000194805F04BFFFEE75CE100088CE10008C8
:1019E00098E10008A4E10008B0E10008BCE10008AB
:1019F000C8E10008F8E100081CE2000838ED00E04A
:101A000028E2000828ED00E038E200082CED00E0B4
:101A100048E2000830ED00E058E200083CED00E04C
:101A200068E2000800ED00E078E200088CE20008BF
:101A3000A8E20008C8E20008E4E2000890B587B018
:101A400000AF0346FB71FA796D4913465B001344FE
:101A5000DB000B445B68FB60FB68002B00D1CCE033
:101A6000684B1B78DBB20133DAB2664B1A70664BF7
:101A70001B68002B09D1FA7913465B001344DB0085
:101A80005F4A1A44604B1A60B5E05F4B1B687B618C
:101A9000FB683B61ABE03A697B695B68D31A3B61E9
:101AA0003B69002B7CDA7B695B69002B28D07B6962
:101AB0005969FA7913465B001344DB00504A13441A
:101AC0000B61FA797B6959694D4813465B001344F1
:101AD000DB00034410335960FA79494913465B002F
:101AE0001344DB000B4410337A691A60FA79134609
:101AF0005B001344DB00424A1A447B695A611DE0D3
:101B0000FA79414B19683E4813465B001344DB00E9
:101B10000344103319603C4B1968FA7913465B0093
:101B20001344DB00364A13444B61FA7913465B00D9
:101B30001344DB00324A1A44334B1A60FA79F979BC
:101B40002F480B465B000B44DB00034410331B683B
:101B500059683B6919442A4813465B001344DB006B
:101B600003445960FA79264913465B001344DB00AD
:101B70000B4410331968FA79214813465B0013446B
:101B8000DB00034410331B685868FA791C4C134679
:101B90005B001344DB0023445B68C31A4B602AE0FC
:101BA0003B69002B20DB7B691B69002B1CD1FA7978
:101BB000134913465B001344DB000B4410337A696E
:101BC0005A60FA7913465B001344DB000C4A1A444E
:101BD0007B691A61FA793969094813465B00134435
:101BE000DB000344596006E07B691B697B617B690C
:101BF000002B7FF450AFFFF7F7FA1C37BD4690BDBE
:101C00009C19002069190020CC19002080B584B0EF
:101C100000AF0346FB71FA7913465B001344DB0007
:101C20002C4A1344FB602C4B1B78DBB20133DAB235
:101C3000294B1A70FB685B69002B07D1FB681B6995
:101C4000002B03D1254B00221A603DE0FB685B6945
:101C5000002B14D1FB681A69204B1A601F4B1B68BC
:101C600000225A61FB681B69FA6812695168FA68B8
:101C700052680A445A60FB6800221A6124E0FB683B
:101C80001B69002B07D1FB685B6900221A61FB68A6
:101C900000225A6118E0FB685B69FA6812691A61F0
:101CA000FB681B69FA6852695A61FB681B69FA682C
:101CB00012695168FA6852680A445A60FB68002247
:101CC0001A61FB6800225A61FFF78EFA1037BD4691
:101CD00080BD00BF9C19002069190020CC1900208C
:101CE00080B582B000AF1B4B1B687B6027E07B6830
:101CF0005B78002B0BD17B681B781846FFF786FFBB
:101D00007B6801229A707B68DB68984714E07B68E7
:101D10005B78012B10D17B681B781846FFF776FFA4
:101D20007B689A687B685A607B681B781846FFF767
:101D300085FE7B68DB689847064B1B687B607B6889
:101D4000002B03D07B685B68002BD0D00837BD46E2
:101D500080BD00BFCC19002080B500AF074B1B78B9
:101D6000DBB2012B06D9064B01221A70054B01226A
:101D70001A7001E0FFF7B4FF80BD00BF69190020B1
:101D8000F01B0020F21B002080B584B000AF78600B
:101D900013460A46FA70BB70FA78BB7810461946AB
:101DA00001F01AF90346FB73FB7B202B0ED001F0E8
:101DB0003DFC094B1968FA7B13465B0013449B00FA
:101DC0000B4410337A685A6001F05CFCFB7B1846C8
:101DD0001037BD4680BD00BFD419002080B586B045
:101DE00000AFF860B9607A601C4B1B68043318467A
:101DF00001F008FC194B1B68012283F89A21F8684E
:101E00007968BA6800F06CF90346FB82B7F91630BE
:101E1000002B16D1124B1B78002B0DD100233B61F8
:101E20000F4B01221A7042F2D0033B6100BF3B69A5
:101E30005A1E3A61002BFAD100F01AFE0346FB82CB
:101E400005E0064B1B680433184601F009FCFB8AC9
:101E50001BB218461837BD4680BD00BFD4190020FC
:101E6000DC19002080B588B000AFB9607A603B60B3
:101E70000346FB732023FB773B68DB68002B00D114
:101E8000FEE73B685B88002B00D1FEE7FB7B03F09D
:101E90000F03072B02DD4FF6F77380E0FB7B03F0A7
:101EA0000F03DBB20F20194601F096F80346FB77CB
:101EB000FB7F202B02D14FF6300370E001F0B6FB20
:101EC0003B68DB68BB617B687B61374B1968FA7FD5
:101ED00013465B0013449B000B44103307F11402BC
:101EE0005A6001F0CFFB304B1B6803F5CE731846E8
:101EF00001F088FB2C4B1B6803F29D13184622212E
:101F00001122002305F0D8FB274B1B6893F89B3167
:101F1000012B06D8244B1B6803F29D13184601F0D1
:101F20004BFB214B1B680433184601F06BFB1E4B27
:101F30001B6893F89B31012B00D8FEE71A4B1B68F6
:101F400093F89B21013AD2B283F89B21164B1B6870
:101F500003F5CE73184601F083FBB86839687A68D8
:101F600000F0BEF80346BB830F4B1B6804331846D2
:101F700001F076FBB7F91C30002B0BD10A4B196826
:101F8000FA7F13465B0013449B0010330B44184642
:101F900001F012FBFB7F184601F0F0F8BB8B1BB27F
:101FA00018462037BD4680BDD419002080B586B0C4
:101FB00000AFB9607A603B600346FB734FF6F57380
:101FC000FB82464B1B6803F5CE73184601F01AFBE3
:101FD000424B1B6803F29D13184622211122002355
:101FE00005F06AFB3D4B1B6893F8A1311A46FB7B59
:101FF00003F00F0342FA03F303F00103002B09D0AF
:10200000364B1B6803F5CE73184601F029FB4FF6DB
:10201000FF735DE0314B1B6893F89B31022B1DD899
:102020002E4B1B6893F8A0311A46FB7B03F00F037D
:1020300042FA03F303F00103002B08D0274B1B687F
:1020400003F5CE73184601F00BFBFB8A40E0234BEF
:102050001B6803F29D13184601F0AEFA1F4B1B6874
:1020600093F89B31022B0DD900BF1C4B1B68043326
:10207000184601F0C7FA194B1B6893F89B31022BE5
:1020800009D807E0154B1B6803F5CE73184601F01D
:10209000E7FA96E7FEE7114B1B6893F89B21013A9C
:1020A000D2B283F89B210D4B1B6803F5CE73184603
:1020B00001F0D6FAB86839687A6800F011F803467A
:1020C000FB82064B1B680433184601F0C9FAFB8AF1
:1020D0001BB218461837BD4680BD00BFD41900207A
:1020E00080B58AB000AFF860B9607A60002387F8E5
:1020F0002730FB68002B00D1FEE77D4B1B68FA6898
:10210000C3F8A4217A4B1B687A68C3F8A821784BDE
:102110001B68BA68C3F8AC21754B1B68FA68128853
:10212000DA80734B1A68BB68002B10D0FB689B7871
:1021300003339BB223F0030399B2BB681B880333BC
:102140009BB223F003039BB20B449BB206E0FB68F7
:102150009B7803339BB223F003039BB21381BB68CC
:10216000002B1ED0BB685B881BB2002B19DABB6842
:102170001B88002B15D0BB685B889BB25B429BB26F
:102180009AB2BB685A80012387F82730584B1B68E6
:10219000574A12681189BA68528892B20A4492B2B8
:1021A0001A810423BB84524B1B681B681A46B7F97B
:1021B000243010464F491A4602F012FF03467B8432
:1021C000B7F92420B7F922309A4200D0FEE7042361
:1021D0003B84474B1B681B681946454B1B689A1D7F
:1021E000B7F92030084611461A4602F0F9FE0346B8
:1021F000FB83B7F92020B7F91E309A4200D0FEE7E2
:102200007B68002B1FD0FB689B78002B1BD0FB68E2
:102210009B7803339BB29BB223F00303BB83344B05
:102220001B681B681A46B7F91C30104679681A46B5
:1022300002F0D6FE03467B83B7F91C20B7F91A30AB
:102240009A4200D0FEE797F82730012B1ED1BB68D9
:102250005B889BB203339BB29BB223F003033B83A7
:10226000234B1B681B681946BB68DA68B7F918303E
:10227000084611461A4602F0B3FE0346FB82B7F940
:102280001820B7F916309A4200D0FEE7BB68002B41
:1022900028D0BB681B88002B24D0FB689B7803F0F8
:1022A0000303002B00D0FEE7BB681B8803339BB2FF
:1022B0009BB223F00303BB820D4B1B681B681946BE
:1022C000BB689A68B7F91430084611461A4602F0FE
:1022D00087FE03467B82B7F91420B7F912309A4281
:1022E00000D0FEE700231BB218462837BD4680BD4C
:1022F000D419002004E3000880B596B000AF002395
:10230000FB64082387F85330AB4B1B680022C3F8EB
:10231000B021A94B1B680022C3F8B82107F10C02B9
:10232000FB1D1046194600F0CFFC0346A7F84A30C3
:10233000B7F94A30002B00D0FEE707F10C031B88E9
:10234000A7F8483007F10C035B88043BA7F8463038
:10235000B7F84830082B21D0974B1B6807F10C02C7
:10236000127983F89B21944B1B6807F10C02D279F8
:1023700083F8A021904B1B6807F10C02927983F837
:10238000A1218D4B1B6893F89B31012B06D98A4BF9
:102390001B6803F29D13184601F022F9B7F8483084
:1023A000184600F02DFC844B1B6893F8BC3187F86D
:1023B000453097F84530012B00F0D481022B03D033
:1023C000002B00F0AA80DBE2FB6C002B00D0FEE7C4
:1023D000794B1B68794AC3F8B021774B1B68D3F857
:1023E000B031FB64F86CA82101F064F9FB6C002BA0
:1023F00000D1FEE7FB6C1A4607F10C0303CB10601B
:102400005160B7F84630033323F00303A02B08DCF8
:10241000B7F8463003339BB223F00303A7F85430D8
:1024200002E0A023A7F85430B7F84630002B1BD0A9
:10243000B7F85430A7F842305F4B1B681B68194649
:10244000FB6C03F10802B7F94230084611461A4600
:1024500002F020FE0346A7F84030B7F94220B7F952
:1024600040309A4200D0FEE7B7F84630033323F0FD
:102470000303A02B2BDDB7F8463003339BB223F0C8
:1024800003039BB2A03BA7F854301CE00423FB8756
:10249000494B1B681B681946B7F93E3007F1080223
:1024A000084611461A4602F0F5FD0346BB87B7F908
:1024B0003E20B7F93C309A4200D0FEE7B7F85430DE
:1024C000043BA7F85430B7F85430002BDED101F0AC
:1024D000ADF8B7F8482041F203039A420BD0B7F8A1
:1024E000482041F203239A4205D0B7F8482041F230
:1024F00006039A4206D1FB6C08339B7803F00F0366
:1025000087F85330B7F8482097F8533010461946EB
:1025100000F09CFF01F0B6F832E2B7F8483041F223
:102520000B02934204D041F20B22934204D007E005
:102530000C2387F8523006E0182387F8523002E067
:10254000042387F8523004237B871B4B1B681B68CE
:102550001946B7F93A3007F10C0204320846114621
:102560001A4602F097FD03463B87B7F93A20B7F9C0
:1025700038309A4200D0FEE707F10C0304339B7811
:1025800003F00F03072B00DDFEE701F04FF807F122
:102590000C0304339B7803F00F03DBB2B7F8482039
:1025A0001046194600F052FF0346FB86B7F9363055
:1025B000002B05D0FEE700BFD41900200C3200200C
:1025C000A14B1968A04B1B6893F8B4311A46134607
:1025D0005B0013449B000B4410335B681A6807F1DF
:1025E0000C03043310461946042207F029FC97F81F
:1025F0005230042B29D997F852309BB2043B9BB23E
:10260000BB86914B1B681B6819468F4B18688E4B15
:102610001B6893F8B4311A4613465B0013449B00C1
:10262000034410335B681B681A1DB7F93430084641
:1026300011461A4602F02EFD03467B86B7F9342078
:10264000B7F932309A4200D0FEE707F10C030433A9
:102650001B881BB2002B72DD07F10C0304331B88AF
:102660009BB203F00303A7F8563007F10C030433C1
:102670001B889BB223F00303A7F85430B7F85430FB
:10268000032B25D9B7F854303B866F4B1B681B686A
:1026900019466D4B18686C4B1B6893F8B4311A4699
:1026A00013465B0013449B00034410335B685A6875
:1026B000B7F93030084611461A4602F0EBFC0346E3
:1026C000FB85B7F93020B7F92E309A4200D0FEE7EB
:1026D000B7F85630002B32D00423BB855A4B1B6809
:1026E0001B681946B7F92C3007F108020846114655
:1026F0001A4602F0CFFC03467B85B7F92C20B7F9C8
:102700002A309A4200D0FEE74F4B19684E4B1B68A7
:1027100093F8B4311A4613465B0013449B000B44F4
:1027200010335B685A68B7F85430D118B7F8563090
:1027300007F10802084611461A4607F081FB424B92
:102740001968414B1B6893F8B4311A4613465B0075
:1027500013449B0010330B44184600F041FF00F077
:1027600091FF0DE1384B1B68D3F8A431DB780333BC
:102770009BB29BB223F003033B85334B1B681B6862
:102780001946314B1B68D3F8A821B7F92830084601
:1027900011461A4602F07EFC0346FB84B7F9282056
:1027A000B7F926309A4200D0FEE7274B1B68D3F8D2
:1027B000AC31002B00F0E380234B1B68D3F8AC3125
:1027C0005B88002B00F0DB8007F10C035A881E4B5E
:1027D0001B68D3F8A431DB78D31A9BB2043B9BB2BD
:1027E000A7F85030184B1B68D3F8AC31B7F850201D
:1027F0009A80B7F95030002B06DC134B1B68D3F8D6
:10280000AC3100225A80BAE00F4B1B68D3F8AC31D0
:102810005B88B7F950201BB29A4217DD0A4B1B6840
:10282000D3F8AC315B889BB203F00303A7F85630B2
:10283000054B1B68D3F8AC315B889BB223F00303D4
:10284000A7F854300EE000BFD4190020B7F850307C
:1028500003F00303A7F85630B7F8503023F0030312
:10286000A7F85430B7F85430032B1BD9B7F85430BD
:10287000BB84544B1B681B681946524B1B68D3F82A
:10288000AC31DA68B7F92430084611461A4602F02E
:1028900001FC03467B84B7F92420B7F922309A4221
:1028A00000D0FEE7B7F85630002B2ED004233B842F
:1028B000444B1B681B681946B7F9203007F1080222
:1028C000084611461A4602F0E5FB0346FB83B7F9BA
:1028D0002020B7F91E309A4200D0FEE7394B1B6822
:1028E000D3F8AC31DA68B7F85430D118B7F85630AD
:1028F00007F10802084611461A4607F0A1FAB7F890
:102900005030043B9BB2A7F850302E4B1B68D3F8D5
:10291000AC315B88B7F950201BB29A422FDDB7F873
:102920005020284B1B68D3F8AC315B889BB223F056
:1029300003039BB2D31AA7F854301CE00423BB83D3
:10294000204B1B681B681946B7F91C3007F10802B9
:10295000084611461A4602F09DFB03467B83B7F9F1
:102960001C20B7F91A309A4200D0FEE7B7F854306D
:10297000043BA7F85430B7F85430002BDED100BF29
:10298000FB79002B17D0FB793B830E4B1B681B6830
:102990001946B7F9183007F10C02084611461A46D5
:1029A00002F078FB0346FB82B7F91820B7F916301E
:1029B0009A4200D0FEE700231BB218465837BD46A6
:1029C00080BD00BFD419002080B584B000AF0023C3
:1029D000FB600023FB7200237B60234B1B68D3F852
:1029E000B0313B60204B1B68D3F8B831002B00D1CD
:1029F00036E00023BB7213E0BA7A1C4B33F8222076
:102A00003B681B889A4208D1BB7A184A9B00134442
:102A10009B78FB600123FB7205E0BB7A0133BB723C
:102A2000BB7A0E2BE8D9FB7A002B0AD10E4B1B6820
:102A3000D3F8B8310C4A1268D2F8B0211046984742
:102A40000EE0094B1B68D3F8B03104337B607B6820
:102A5000FA681A60044B1B68D3F8B8317868984755
:102A60001037BD4680BD00BFD419002048E30008E0
:102A700080B582B000AF44E0324B1B6893F89F21D1
:102A8000314B1B78DBB29A4234D0FFF735FC03465A
:102A9000FB80B7F90630002B00D0FEE7294B1B68FE
:102AA00093F89F210132D2B283F89F21254B1B68F6
:102AB00093F8BC31012B0FD1224B1B68002283F805
:102AC0009A21204B1B6803F29913184622211122E8
:102AD000002304F0F1FD14E01A4B1B6893F8BC319D
:102AE000022B0ED1FFF770FF164B1B680022C3F8B4
:102AF000B02106E0134B1B6803F29913184600F04F
:102B00005BFD104B1B6893F89A31012BB4D00D4B31
:102B10001B680433184600F0A3FD0A4B1B6893F8AA
:102B20009F21094B1B78DBB29A4204D00748002151
:102B3000002204F0E9FD00231BB218460837BD4609
:102B400080BD00BFD419002040300020512B000868
:102B500080B584B000AF7860274B1B6804331846FB
:102B600000F050FD244B1B6893F89F21234B1B78EA
:102B7000DBB29A4207D1204B1B680433184600F0A1
:102B80006FFD002333E0FFF7B7FB0346FB81B7F986
:102B90000E30002B00D0FEE7174B1B6893F89F21E7
:102BA0000132D2B283F89F21134B1B6893F8BC31DA
:102BB000022B04D0032B12D0002B10D00EE00E4BB2
:102BC0001B68D3F8B031002B00D1FEE7FFF7FCFE05
:102BD000094B1B680022C3F8B02101E0FEE700BFEB
:102BE000054B1B680433184600F03AFD00231BB266
:102BF00018461037BD4680BDD41900204030002053
:102C000080B485B000AF0346FB800023FB60012346
:102C1000FB72FB8803F480639BB2002B3DD1FB88E1
:102C2000632B02D10323FB7237E0FA8841F20A03D7
:102C30009A4209D0FA8841F20B039A4204D0FA88EA
:102C400041F20B239A4202D10023FB7225E00223BA
:102C5000FB72FB88DB0A9BB2DBB203F00703BB729B
:102C6000BB7A072B00D9FEE7BA7A134B53F8223010
:102C7000FB60FA8841F62E039A4204D0FA8841F6A6
:102C800030039A4202D10D4BFB6006E0FA8841F610
:102C900022039A4201D10A4BFB600A4B1B68FA7A65
:102CA00083F8BC21074B1B68FA68C3F8B8211437B6
:102CB000BD465DF8047B704784E30008C11000083E
:102CC000950F0008D419002080B58CB000AF786053
:102CD00039600023FB6204233B859D4B1B681B6806
:102CE0001A46B7F9283010469A491A4602F078F980
:102CF0000346FB84B7F92820B7F926309A4200D062
:102D0000FEE70423BB84924B1B681B681A46B7F985
:102D10002430104679681A4602F0BCF903467B84D9
:102D2000B7F92420B7F922309A4200D0FEE740E0FC
:102D3000FB6AB3F5FA6F00D3FEE7FB6A03F0030307
:102D4000002B17D104233B84814B1B681B68194659
:102D50007B681A1DB7F92030084611461A4602F062
:102D600099F90346FB83B7F92020B7F91E309A4240
:102D700000D0FEE7002387F82B300FE097F82B30C8
:102D80007A68134497F82B20013279680A44127844
:102D90001A7097F82B30013387F82B3097F82B30C7
:102DA000062BEBD97B68073300221A70FB6A0133CC
:102DB000FB627B681B6803F00403002B0FD07B6869
:102DC0001B6823F0802222F08002614B1B6893F87D
:102DD0009E3103F00301604B0B439A420ED07B6897
:102DE0001B6803F00403002BA2D17B681B6823F04F
:102DF000802323F08003594A934299D1FB6A03F060
:102E00000303FB62FB6A002B1FD07B685A687B6858
:102E10001A60FB6ABB834E4B1B681B681946FB6A32
:102E2000C3F104037A681A44B7F91C300846114606
:102E30001A4602F02FF903467B83B7F91C20B7F935
:102E40001A309A4200D0FEE715E004233B83404B42
:102E50001B681B681A46B7F91830104679681A467D
:102E600002F018F90346FB82B7F91820B7F91630BB
:102E70009A4200D0FEE715E004233B82344B1B68E6
:102E80001B681A46B7F91030104679681A4602F0E6
:102E900001F90346FB81B7F91020B7F90E309A42C9
:102EA00000D0FEE77B681B6803F00403002B0FD003
:102EB0007B681B6823F0802222F08002244B1B6871
:102EC00093F89E3103F00301234B0B439A42D3D076
:102ED0007B681B6803F00403002B08D17B681B6828
:102EE00023F0802323F080031C4A9342C4D0184B64
:102EF0001B6893F89E210132D2B283F89E210423ED
:102F0000BB82134B1B681B6819467B681A1DB7F9F7
:102F10001430084611461A4602F0BCF803467B827C
:102F2000B7F91420B7F912309A4200D0FEE7FB6AD5
:102F3000002B04D0FB6AC3F10403DBB200E00023E2
:102F40003A68137000231BB218463037BD4680BD67
:102F5000D41900200CE300083C5CCD2B3A5CCD2B4F
:102F600080B58CB000AFF860B9607A60194B1B680F
:102F700093F89A3187F82F30164B1B6803F5D273FC
:102F800007F11002104619461C2206F059FF114B9A
:102F90001B68002283F89A21F8687968BA68FFF7FD
:102FA0009FF80346BB850B4B1B6897F82F2083F8CF
:102FB0009A21084B1B6803F5D27207F110031046E3
:102FC00019461C2206F03CFFBB8D1BB21846303759
:102FD000BD4680BDD419002080B584B000AF024644
:102FE0000B46FA71BB712023FB7300F01FFB624B91
:102FF0001B6893F890311F2B25D85F4B1B6893F803
:103000009031FB735C4B1968FA7B13465B001344E9
:103010009B000B4418339B781F2B0ED8564B196816
:10302000554B1868FA7B13465B0013449B0003441E
:1030300018339B7881F8903109E04F4B1B682022B0
:1030400083F8902103E000F01DFBFB7B8FE04A4BEF
:103050001968FA7B13465B0013449B000B4418333A
:10306000FA791A70BB79072B0BD8434B1968FA7B96
:1030700013465B0013449B000B441833BA795A7013
:1030800024E023E03C4B1868FA7B3B4B1B6893F829
:10309000911113465B0013449B00034418330A4606
:1030A0009A70354B1B68FA7B83F8912100F0EAFA9D
:1030B000314B1968FA7B13465B0013449B001033B5
:1030C0000B44184600F078FA00F0B0FABB79072BF1
:1030D0000AD8294B1B68D3F89421BB79012101FA46
:1030E00003F31340002BCDD1234B1B68D3F894215D
:1030F000FB79012101FA03F31340002B02D0BB79C5
:10310000082BBFD0BB79072B0DD81B4B1B681A4A65
:103110001268D2F89411BA79012000FA02F20A4337
:10312000C3F894210CE0144B1B68134A1268D2F8C0
:103130009411FA79012000FA02F20A43C3F89421AB
:103140000D4B1868FA7B0C4B1B6893F892111346D1
:103150005B0013449B00034418330A469A70064BE5
:103160001B68FA7B83F8922100F08CFAFB7B1846EF
:103170001037BD4680BD00BFD419002090B585B082
:1031800000AF0346FB7100F051FA7C4B1B6893F8CB
:103190009131FB736CE0794B1968FA7B13465B0045
:1031A00013449B000B4418331978744B1868FA7950
:1031B00013465B0013449B00034418331B78994269
:1031C0004BD16E4B1968FA7B13465B0013449B008E
:1031D0000B4418335B7803F00F03082B27D0674BA1
:1031E0001968FA7913465B0013449B000B441833AB
:1031F0005B7803F00F03072B2FDC604B1968FA7B19
:1032000013465B0013449B000B4418335B7819464C
:103210005A4B1868FA7913465B0013449B00034429
:1032200018335B784B4003F00F03002B15D1534B41
:103230001B6803F29112FB7B1046194600F0A0F8C0
:103240004E4B1968FA7B13465B0013449B00103306
:103250000B44184600F0C4F90DE0484B1968FA7B9E
:1032600013465B0013449B000B4418339B78FB739D
:10327000FB7B1F2B8FD9414B1968FA7913465B00F2
:1032800013449B000B4418335B7803F00F03072BA8
:1032900019DC3A4B1968394B1B68D3F89401374B4A
:1032A0001C68FA7913465B0013449B0023441833CF
:1032B0005B7803F00F03012202FA03F3DB430340C0
:1032C000C1F8943116E02D4B19682C4B1B68D3F8CC
:1032D00094012A4B1C68FA7913465B0013449B0047
:1032E000234418331B78012202FA03F3DB43034023
:1032F000C1F89431214B1968FA7913465B001344E5
:103300009B000B44103300225A601C4B1968FA7959
:1033100013465B0013449B000B44183300221A70C1
:10332000164B1968FA7913465B0013449B000B4453
:10333000183308225A70114B1B6803F5C972FB79C8
:103340001046194600F01CF80C4B1868FA790B4B24
:103350001B6893F8901113465B0013449B000344D1
:1033600018330A469A70054B1B68FA7983F8902146
:1033700000F088F91437BD4690BD00BFD419002075
:1033800090B484B000AF78600B46FB702E4B196888
:103390007B681B781A4613465B0013449B000B4462
:1033A00018339B78202B03D17B6820221A7046E0CB
:1033B0007B681B78FA789A420CD1234B1968FA780B
:1033C00013465B0013449B000B4418339A787B68C8
:1033D0001A7034E07B681B78FB732DE01A4B196878
:1033E000FA7B13465B0013449B000B4418339B7815
:1033F000FA789A4215D1144B1868FA7B124B1C6864
:10340000F9780B465B000B449B00234418339978F2
:1034100013465B0013449B00034418330A469A701A
:103420000DE0094B1968FA7B13465B0013449B00BF
:103430000B4418339B78FB73FB7B1F2BCED91037C3
:10344000BD4690BC704700BFD419002080B485B041
:1034500000AF02460B46FA807B71554B1B6893F810
:103460009231FB7397E0524B1968FA7B13465B006D
:1034700013449B000B4418335B78DBB25BB2002B28
:1034800003DAFB8823F40073FB80494B1968FA7B4D
:1034900013465B0013449B000B4418331B780F2B1F
:1034A00022D1434B1968FA7B13465B0013449B00FF
:1034B0000B4418335B787A799A4215D1FA8841F235
:1034C0000A039A4209D0FA8841F20B039A4204D0C7
:1034D000FA8841F20B239A4206D1354B1B68FA7BDE
:1034E00083F8B42100235CE0314B1968FA7B134662
:1034F0005B0013449B000B4418331B78083B2D4A98
:10350000DB0013445B88FA889A4239D17979284BD9
:103510001868FA7B13465B0013449B00034418337E
:103520005B7803F00F03994202D17B79072B0DD909
:103530001F4B1968FA7B13465B0013449B000B4436
:1035400018335B7803F00F03082B19D1184B196857
:10355000174B1868FA7B13465B0013449B00034427
:1035600018331B78083B134ADB0013445B68C1F82F
:10357000B8310F4B1B68FA7B83F8B421002310E0AD
:103580000B4B1968FA7B13465B0013449B000B44FA
:1035900018339B78FB73FB7B1F2B7FF664AF4FF6D2
:1035A000FD731BB218461437BD465DF8047B7047A7
:1035B000D419002010E3000880B584B000AF786013
:1035C000786822211122FF2304F076F80346FB815C
:1035D000B7F90E30002B00D0FEE71037BD4680BD96
:1035E00080B584B000AF78607868222104F052F88A
:1035F0000346FB81B7F90E30002B00D0FEE71037F1
:10360000BD4680BD80B584B000AF78607868332156
:103610004422FF2304F050F80346FB81B7F90E3033
:10362000002B00D0FEE71037BD4680BD80B582B0CC
:1036300000AF0A4B1B6803F5CC73184633214422B4
:10364000FF2304F039F80346FB80B7F90630002B5E
:1036500000D0FEE70837BD4680BD00BFD41900206A
:1036600080B584B000AF78607868332104F012F838
:103670000346FB81B7F90E30002B00D0FEE7103770
:10368000BD4680BD80B582B000AF094B1B6803F515
:10369000CC731846332103F0FDFF0346FB80B7F9D6
:1036A0000630002B00D0FEE70837BD4680BD00BFC6
:1036B000D419002080B582B000AF78600B467B80C3
:1036C0007B88786800211A4606F054FC0837BD460E
:1036D00080BD00BF80B582B000AF786078681021EF
:1036E000FFF7E8FF0837BD4680BD00BF80B483B058
:1036F00000AF78600B467B807B88C3F308039AB2E7
:103700007B689A800C37BD465DF8047B704700BF2C
:1037100080B483B000AF78607B689B889BB2C3F3B2
:1037200008039BB218460C37BD465DF8047B704712
:1037300080B487B000AF78600B467B800023FB60CD
:1037400000237B610023BB600023FB747B88DBB21A
:103750005B09DBB2BB607B8803F01F037B617B6985
:10376000012202FA03F37B61BB68012B06D17B685F
:103770009B899BB27A6913407B610FE0BB68022B87
:1037800006D17B681B8A9BB27A6913407B6105E096
:103790007B689B8A9BB27A6913407B617B881B0A9A
:1037A0009BB2FB60FB68012202FA03F3FB607B68BB
:1037B0001B889BB2FA681340FB607B69002B05D025
:1037C000FB68002B02D00123FB7401E00023FB7493
:1037D000FB7C18461C37BD465DF8047B704700BF74
:1037E00080B582B000AF0023FB71644B01221A70D8
:1037F0000F200021FDF796F838603B6803F0800346
:10380000002B1CD05E4B1B78002B0CD00F2000210E
:10381000FA22FDF7DDF85B4B1B78022B0AD1594BDE
:1038200001221A7006E0574B1B78022B02D1554B30
:1038300000221A7003F0CAF90123FB7194E03B687F
:1038400003F4C043002B48D04F4B1B685A1C4E4B0F
:103850001A603B6803F48063002B36D04B4B1B7817
:10386000002B0DD03B6803F48013002B08D00D20F3
:1038700003210122FDF7C0F8012000F0DDF973E01B
:103880000F200021424AFDF791F8404B1B78002B96
:1038900002D13C4B00221A7003F03AFA3B4B1B78E2
:1038A000002B09D0374B1B78022B05D00D200321AC
:1038B0000122FDF7A1F805E0324B1B78002B01D166
:1038C00000F0D4F80123FB714EE0012000F0B4F9C0
:1038D00000F064F800F0CAF846E03B6803F408130F
:1038E000002B03D0012000F0A7F93DE03B6803F472
:1038F0000043002B10D0254B1B78002B05D00D204A
:1039000003210122FDF778F82EE0224B1B78002BD3
:103910002AD100F0ABF827E03A681F4B1340002B88
:1039200022D01A4B1B78002B18D03B6803F480136D
:10393000002B0CD0154B1B78002B04D00D2003213D
:103940000122FDF759F8012000F076F90CE0114B47
:103950001B78002B08D100F089F805E00D4B1B788F
:10396000002B01D100F082F8044B00221A70FB7981
:103970009BB218460837BD4680BD00BF261A0020FE
:10398000241A0020251A0020E8190020211A0020FE
:1039900000EF2724231A00200090272480B584B04C
:1039A00000AF01F0A9F90E2000210022FCF7FEFF74
:1039B0002A4B1B78002B0AD00F200221FCF7DEFFD8
:1039C000034603F01003002B01D0012300E0002385
:1039D000FB730D2000214022FDF70EF8204B002242
:1039E0001A70FB7B002B0ED00D2003210122FDF766
:1039F00003F836200321E022FCF7FEFF36200321E6
:103A0000F022FCF7F9FF0D2003210122FCF7F4FF5F
:103A10000F200021FCF786FFB860BB681B0EFB710E
:103A2000FB7903F08002FB7903F040035B009A42CC
:103A300004D00D2003210122FCF7DEFF0F2000211E
:103A4000084AFCF7B3FF0E200021074AFCF7AEFF3F
:103A500001F03CF91037BD4680BD00BF211A00209F
:103A6000251A0020FAEF272480B0272480B582B0E1
:103A700000AF1A4B1B78002B0BD00F200221FCF754
:103A80007DFF034603F01003002B02D0FFF786FFF3
:103A900013E00F200321FCF771FF0346FB71FB7954
:103AA00003F08002FB7903F040035B009A4204D0EC
:103AB0000D2003210122FCF79FFF094B01221A7000
:103AC0000F200021074AFCF771FF0D2000214FF461
:103AD0008072FCF77DFF0837BD4680BD211A0020AB
:103AE000251A0020FEFFFF3F80B500AF064B1B7874
:103AF000022B06D0FFF752FF034B02221A7001235C
:103B000000E00023184680BD251A00202DE9B04FA3
:103B100084B000AFC7E900014449097802297ED189
:103B2000D7E9000150EA010C54D000213972D7E9DD
:103B300000014FEA102848EA01684FEA11295FFAAC
:103B400088F121F00101C9B27972D7E90001040CB2
:103B500044EA01440D0CE1B2B972D7E90001020E4A
:103B600042EA01220B0ED3B2FB72D7E900239A4638
:103B70004FF0000B5FFA8AF33B7307F108030A204A
:103B800005211A460023FCF7B1FF294B1B78002BB7
:103B90000FD0284B1B78002B05D00D20002186224A
:103BA000FCF716FF15E00D2000218722FCF710FF1F
:103BB00033E0204B1B78002B05D00D20002106227E
:103BC000FCF706FF05E00D2000210722FCF700FFAF
:103BD00023E022E0164B1B78002B0FD0154B1B78EF
:103BE000002B05D00D2000218222FCF7F1FE14E00D
:103BF0000D2000218322FCF7EBFE0EE00D4B1B781D
:103C0000002B05D00D2000210222FCF7E1FE04E08C
:103C10000D2000210322FCF7DBFE012300E000233E
:103C200018461037BD46BDE8B08F00BF251A0020EA
:103C3000241A00201F1A002080B582B000AF03466E
:103C4000FB710C4B1B78002B01D0FFF7A7FE362031
:103C50000321E022FCF7D0FE36200321F022FCF7FE
:103C6000CBFEFB79002B01D0FFF700FF0837BD46E4
:103C700080BD00BF251A00202DE9B04F84B000AFF1
:103C800007F10803172005211A460023FCF7C8FE98
:103C90003B7AD8B24FF000017B7ADAB24FF00003E2
:103CA0004FEA032B4BEA126B4FEA022A40EA0A0062
:103CB00041EA0B01BB7ADAB24FF000034FEA034945
:103CC00049EA12494FEA024840EA080041EA09017C
:103CD000FB7ADAB24FF000031D0645EA12251406FE
:103CE00040EA040241EA0503397BC8B24FF0000103
:103CF0008446C7F804C000203860D7E9000142EAD2
:103D0000000243EA0103104619461037BD46BDE8DC
:103D1000B08F00BF2DE9B04F84B000AF07F10803AA
:103D2000152005211A460023FCF77AFE3B7AD8B20B
:103D30004FF000017B7ADAB24FF000034FEA032B19
:103D40004BEA126B4FEA022A40EA0A0041EA0B01F1
:103D5000BB7ADAB24FF000034FEA034949EA12494D
:103D60004FEA024840EA080041EA0901FB7ADAB268
:103D70004FF000031D0645EA1225140640EA04022E
:103D800041EA0503397BC8B24FF000018446C7F809
:103D900004C000203860D7E9000142EA000243EA8B
:103DA0000103104619461037BD46BDE8B08F00BF6D
:103DB00080B584B000AF12200621FCF7C9FD034690
:103DC000184605F0A1FB02460B46104619464FF077
:103DD00000024FF0824305F00DFC02460B46C7E996
:103DE000022310200221FCF7B3FD03461B099BB2FE
:103DF000184605F099FB02460B4643EC102B9FED4D
:103E0000301B03F037FEB0EE407AF0EE607A87EDBB
:103E1000007B314B1B78012B24D1D7E90201D7E974
:103E2000002305F011FD02460B4643EC172BB0EEC4
:103E3000470AF0EE670A03F0A1FD53EC102B104681
:103E400019464FF00002254B05F0D4FB02460B4605
:103E5000104619461CA3D3E9002305F017FA0246C1
:103E60000B4623E0D7E90201D7E9002305F0ECFC7B
:103E700002460B4643EC172BB0EE470AF0EE670AFA
:103E800003F07CFD53EC102B104619464FF0000256
:103E9000124B05F0AFFB02460B46104619460CA329
:103EA000D3E9002305F0F2F902460B4643EC172B49
:103EB000B0EE470AF0EE670A1037BD4680BD00BF7E
:103EC0000000000000000040AE47E17A14EE5C40C4
:103ED0008FC2F5285C6F5E401A1A00200000244053
:103EE00080B584B000AF00F0E5FEF860344B1B688D
:103EF000FA689A4203D2324BFA681A6054E0304BA7
:103F00001B68FA68D31AB3F57A7F4DD32C4BFA6845
:103F10001A602A200421FCF731FD0346FB722A2097
:103F200000210022FCF768FD2A2000210122FCF775
:103F300063FD244B1B78FA7A9A4235D0FA7A224BE9
:103F40001B78D31A184605F0EFFA02460B461046C6
:103F5000194619A3D3E9002305F04CFB02460B4692
:103F6000104619464FF00002184B05F091F9024631
:103F70000B4643EC172BB0EE470AF0EE670A03F04E
:103F8000B1FC53EC102B1046194605F0CDFD03464D
:103F90007B607B6813F1280F06DB7B68502B03DC0A
:103FA0007B68DAB20A4B1A70094B1B781846103737
:103FB000BD4680BDAFF300803D0AD7A3703DF23F00
:103FC000E4190020ED190020EC1900200000374012
:103FD000E0190020AFF3008080B584B000AF034645
:103FE000FB800023FB60FB88632B39D0FB881BB26E
:103FF0001846FCF711F90346FB60FB68002B2FD134
:10400000FB880F2B02D9FB88103BFB80FA88174BEB
:1040100053F822301648194603F0E6FBFA88134B92
:10402000632143F82210FB881A01124B13441846EF
:104030000021102205F09EFFFA880F4B002123F883
:104040001210FA880D4B002143F82210FA880C4B0D
:10405000002143F82210FA880A4B002143F822106D
:10406000632318461037BD4680BD00BF0400002002
:10407000EC0D01086C3B0020001A00203CDC002005
:10408000148C002064DC002090B58BB002AF0023BC
:10409000FB600023BB6100237B610023BB60002326
:1040A0003B61784B00221A60764B4FF4FA725A60EB
:1040B0001023FB807448FCF729FC7448FCF726FCAD
:1040C0007348FCF723FC0023FB832CE0FA8B714B35
:1040D00053F82230632B23D0FA8B6E4B53F82230E7
:1040E0009BB21BB218466849FCF7DEFBFA8B694BA2
:1040F00053F822309BB21BB218466449FCF7D4FB3C
:10410000FA8B644B53F822309BB21BB218466049BD
:10411000FCF7CAFBFA8B3B699A4201D9FB8B3B61E6
:10412000FB8B0133FB83FB8B092BCFD93B699BB204
:1041300001339BB29BB21BB2524A009218465249BD
:10414000524A534BFCF70EFB0346FB60FB68002B07
:1041500040F34A810023FB8342E1FA8B4D4B53F835
:104160002230632B00F03981FA8B4A4B53F822300E
:104170009BB21BB218464649FCF7ACFB0346002B2A
:104180000CD0FA8B444B53F82230002B06D0FA8B1C
:10419000414B53F82230FA8B10469847FA8B3D4B2F
:1041A00053F822309BB21BB218463749FCF792FBFA
:1041B0000346002B00F09C80FB8BDA02374B134444
:1041C000184600214FF4006205F0D4FEFA8B344B00
:1041D00033F81230112B36D0FF2B6BD0062B4DD17C
:1041E000FA8B2C4B53F822309AB2FB8BD9022B4B13
:1041F0000B4412B2104619464FF400620023FCF73C
:1042000075FA0346BB61BB69002B0BD1254803F04F
:104210002DFBFA8B1F4B53F822309BB21846FFF749
:10422000DBFE48E0FB8B1A011F4B1344FA8B110194
:104230001E4A0A44146850689168D2681C6058602D
:104240009960DA6037E0FA8B124B53F822309AB259
:10425000FB8BD902114B0B44F98B08011249014425
:1042600012B20091B91D0191104619464FF4006237
:104270000023FCF779F80346BB611CE00C4803F00F
:10428000F5FAAAE00C8C0020683B002094DC0020AA
:10429000B43200200400002064DC00200C3C00202C
:1042A000001A00200C0E0108C83A00206C3B0020C8
:1042B0003C0E010800BFBB69002B19DDBB69B3F5DB
:1042C000006F15D8FA8B4C4B53F82230002B0FD0CF
:1042D000FA8B494B53F82240FB8BDA02474BD0183C
:1042E000BB6999B2FB8B1A01454B1A44FB8BA04763
:1042F000FA8B444B53F822309BB21BB2184642490A
:10430000FCF7E8FA0346002B67D0FA8B3F4B53F8D3
:104310002230002B61D0FA8B3C4B53F82230FA8BC1
:10432000D1023B4A1144FA8B08464FF4006198478A
:10433000B860BB68002B41DDFA8B364B33F8123086
:10434000112B19D0FF2B38D0062B32D1FA8B2D4BE5
:1043500053F8223099B2FB8BDA022D4B1A44BB681A
:104360009BB209B21BB2084611461A460023FCF75D
:10437000CBF803467B6121E0FA8B224B53F82230C5
:1043800099B2FB8BDA02224B1A44BB689BB2F88BC2
:1043900004011B480444F88809B21BB20094019040
:1043A000084611461A460023FBF754FF03467B617B
:1043B00003E0194803F05AFA0FE000BF7B69002BB5
:1043C00009DBFB8BDA02124B1344184600214FF431
:1043D000006205F0CFFD0023BB60FB8B0133FB8344
:1043E000FB8B092B7FF6B9AE0C4B00221A60FB68E1
:1043F00018462437BD4690BD3CDC00200C3C002014
:10440000C83A00200400002094DC0020148C002016
:104410003C8C0020001A0020680E0108F8190020CA
:1044200080B500AF4FF40060012100F06BFB4FF44A
:104430000060002100F066FB80BD00BF80B483B047
:1044400000AF0346FB71054BFA7902F07F021A6058
:104450000C37BD465DF8047B704700BF002C004060
:1044600080B400AF034B00229A60BD465DF8047B28
:10447000704700BF002C004080B487B000AF786068
:104480007B681B79FB737B6800225A71354B1B6874
:104490003B613B691B79FA7B9A421ED13A697B6882
:1044A0009A421AD03B69002B17D02F4BD3E9000159
:1044B0002E4BD3E90023994208BF90420DD23B69AD
:1044C0005B8998B24FF00001284BD3E90023121802
:1044D00043EB01032449C1E90023254B1B683B61E1
:1044E0003B69002B06D1234B01221A70204B7A68BE
:1044F0001A6032E03B691B79FA7B9A420CD21D4B61
:1045000001221A707B683A695A623B697A689A623A
:10451000174B7A681A6020E03B695B6A7B610AE0AE
:104520007B691B79FA7B9A4200D207E07B693B6189
:104530007B695B6A7B617B69002BF1D17B687A695F
:104540005A623B697A685A627B683A699A627B6907
:10455000002B02D07B697A689A621C37BD465DF8F1
:10456000047B7047A81B0020B01B0020602D00209A
:10457000A01B00206A19002080B483B000AF7860CF
:104580007B685B6A002B07D17B689B6A002B03D199
:104590001A4B00221A602BE07B689B6A002B0BD120
:1045A0007B685A6A154B1A607B6800225A62134B6B
:1045B0001B6800229A621BE07B685B6A002B07D1B4
:1045C0007B689B6A00225A627B6800229A620FE035
:1045D0007B689B6A7A68526A5A627B685B6A7A680F
:1045E000926A9A627B6800225A627B6800229A6211
:1045F0000C37BD465DF8047B704700BFA01B002050
:1046000080B584B000AF454B1B68FB60444B1B6812
:10461000BB60BB68002B0ED0424B1B68FA689A4205
:1046200009D1414B1B78DBB2012B04D83F4B1B78DF
:10463000DBB2002B00D06DE03D4B00221A70FB680E
:104640001B79FB71BB681B79BB71FB685B79012B24
:1046500009D0344BBA681A60BB6801225A71B86835
:10466000FFF78AFF2CE0BA79FB799A420CD22D4BE6
:10467000BA681A60F868FFF7FFFEB868FFF77CFFBA
:10468000BB6801225A711BE0FA79BB799A4216D1B4
:10469000284BD3E90001284BD3E90023994208BFF6
:1046A00090420CD11F4BBA681A60F868FFF7E4FE1D
:1046B000B868FFF761FFBB6801225A7100E029E08A
:1046C000184B1B681A79164B1B681B799A420ED13E
:1046D000144B1B685B8998B24FF00001164BD3E96D
:1046E0000023121843EB01031249C1E90023FB68C0
:1046F0001A68FB68DB689A4205D3FB68DB681A68B6
:104700000E4B9A4204D0FB689B79184602F010FECB
:1047100001F040FD1037BD4680BD00BFA81B002042
:10472000A01B0020A41B002069190020681900208C
:104730006A190020B01B0020602D0020A5A55A5A40
:1047400080B483B000AF154B1B68FB80FB88002B47
:1047500005D0FB88013BFB80FA88104B1A60104B98
:104760001B68FB80FB88002B05D0FB88013BFB808E
:10477000FA880B4B1A600B4B1B787B717B7923F00B
:1047800004037B717B7923F002037B71054B7A79FB
:104790001A700C37BD465DF8047B7047B81B0020CB
:1047A000BC1B00204000002080B582B000AF134B3E
:1047B0007B60134B3B6007E03B681A1D3A607A68E8
:1047C000111D796012681A603A680E4B9A42F3D351
:1047D0000D480E494FF000028842B8BF40F8042B44
:1047E000FFF6FAAFDFF82800016841F470010160BC
:1047F00000F004F90837BD4680BD00BF241F010842
:1048000000000020E4080020E808002034E900202F
:1048100088ED00E080B400AFFEE700BF80B582B055
:1048200000AF3A4B1B78012B04D100F06FFD374BE2
:1048300000221A70364B1B78012B05D1FDF750FA78
:10484000334B00221A704EE04DE001F09BFC314BDF
:104850005B78304ADB0013443A46043393E80300A4
:1048600082E803002B4B5B78591C2B4B83FB012305
:104870005A10CB17D21A13469B001344CA1AD2B24D
:10488000244B5A70234B1B78013BDAB2214B1A7030
:1048900001F070FC3B78013B032B23D801A252F8B6
:1048A00023F000BFB5480008BF480008CD48000805
:1048B000D74800087B78184602F0A4FC13E07A7809
:1048C0007B681046194600F07DFA0CE07B781846AC
:1048D00001F088FC07E07A787B681046194601F001
:1048E000F3FB00E000BF0B4B1B78002BADD101F0B8
:1048F00049FC084B1B78002B02D1084B00221A7090
:1049000001F038FC0837BD4680BD00BFF11B002018
:10491000F21B0020C41B002067666666F01B0020A7
:1049200080B582B000AF0220012100F091F83B4633
:10493000184600F09DFE04233B6001233B710023D9
:104940007B710023BB710023FB713B460348194672
:1049500000F000FE0837BD4680BD00BF00040240E5
:1049600080B582B000AF0420012100F071F83B4611
:10497000184600F07DFE20233B6000233B7101239D
:104980007B710023BB710023FB713B460548194630
:1049900000F0E0FD0448202100F0C6FE0837BD46C7
:1049A00080BD00BF000802400004024080B582B014
:1049B00000AF0420012100F04BF83B46184600F000
:1049C00057FE4FF480733B6000233B7101237B71E2
:1049D0000023BB710023FB713B460648194600F0DB
:1049E000B9FD05484FF4807100F09EFE0837BD46C2
:1049F00080BD00BF000802400004024080B500AF47
:104A000001F04AF900F0EEF8FFF78AFFFFF7A8FF80
:104A1000FFF7CCFF0C48042100F078FE0B4B0A2274
:104A20001A6000BF094B1B68002BFBD1064804210C
:104A300000F07AFE054B64221A6000BF034B1B682E
:104A4000002BFBD1E6E700BF0004024084190020E0
:104A500080B483B000AF78600B46FB70FB78002B0E
:104A600006D0094B084A116B7A680A431A6306E0BC
:104A7000054B054A116B7A68D2430A401A630C371A
:104A8000BD465DF8047B70470038024080B483B0B7
:104A900000AF78600B46FB70FB78002B06D0094B0B
:104AA000084A116C7A680A431A6406E0054B054A05
:104AB000116C7A68D2430A401A640C37BD465DF81F
:104AC000047B70470038024080B483B000AF786048
:104AD0000B46FB70FB78002B06D0094B084A516C43
:104AE0007A680A435A6406E0054B054A516C7A68B5
:104AF000D2430A405A640C37BD465DF8047B7047C8
:104B00000038024080B483B000AF78600B46FB7081
:104B1000FB78002B06D0094B084A116A7A680A43D1
:104B20001A6206E0054B054A116A7A68D2430A40C8
:104B30001A620C37BD465DF8047B704700380240AE
:104B400080B500AFFFF7FCFD80BD00BF80B483B02F
:104B500000AF03463960FB7197F90730002B0BDA81
:104B60000D49FB7903F00F03043B3A68D2B21201FE
:104B7000D2B20B441A7609E0084997F907303A682F
:104B8000D2B21201D2B20B4483F800230C37BD46D7
:104B90005DF8047B704700BF00ED00E000E100E03D
:104BA00080B582B000AF78607B68B3F1807F01D3BD
:104BB000012311E00A4B7A6822F07F42013A5A60E1
:104BC0004FF0FF300F21FFF7C1FF054B00229A6025
:104BD000034B07221A60002318460837BD4680BDE4
:104BE00010E000E080B500AF064B1A68064BA3FB4F
:104BF00002139B091846FFF7D3FF0346002B00D092
:104C0000FEE780BD48000020D34D621080B487B01D
:104C100000AF78600B467B800023FB7500233B616F
:104C20000023FB607B881B0A9BB23B617B685A6850
:104C30007B88DBB2012101FA03F31340FB607B6840
:104C40001A683B691340002B05D0FB68002B02D08B
:104C50000123FB7501E00023FB75FB7D18461C3723
:104C6000BD465DF8047B704780B485B000AF7860C6
:104C70000B467B800023FB737B881B0A9BB2FB7374
:104C8000FB7BDA437B681A601437BD465DF8047B12
:104C9000704700BF80B400AF72B6BD465DF8047BBC
:104CA000704700BF80B400AF62B6BD465DF8047BBC
:104CB000704700BF80B400AF034B1B681846BD4669
:104CC0005DF8047B704700BF802D002080B500AFE9
:104CD000074B01229A71074B0122DA70044801F058
:104CE000D9FB044801F096FCFFF7DCFF80BD00BF54
:104CF000A4DC0020C0DC002080B500AFFFF7CAFFB5
:104D0000064B00229A71064B0022DA70034801F02C
:104D1000C1FB034801F07EFC80BD00BFA4DC002085
:104D2000C0DC002080B582B000AF78600B467B808D
:104D30007B68002B37D07B88002B34D0FFF7AAFF8D
:104D40001B4B02225A831B4B7A885A601A4B7A8873
:104D50005A60184B7A68DA60174B7A68DA60164B3B
:104D6000154A126842F001021A60124B114A126889
:104D700042F001021A60FFE7104B1B6803F0246346
:104D8000002BF9D0FFE70D4B1B6803F42413002B15
:104D9000F9D00A4B0A4A9A60054B02221A83FFF7A0
:104DA00081FF7B8800E0002318460837BD4680BDA0
:104DB0000004024058640240406402400064024023
:104DC0000000690A80B584B000AF03463960FB710A
:104DD000FB79132B01D9012326E0FB791A01144B2F
:104DE0001344FB60FB685B79C3F30303DBB2022B64
:104DF00001D0012318E0FB68DB88002B13D10D4B99
:104E00001B78DBB20133DAB20A4B1A70FB683A68DE
:104E10001A60FB680122DA80F86800F0C9FAFCF732
:104E2000E3F9002300E0072318461037BD4680BD94
:104E3000002C00206919002080B588B000AF786090
:104E40003960394A07F10C0307CA03C31A7007F126
:104E50000C03184605F05CF90346FB613B689B6850
:104E600000221A703B6800221A717B681B79092B9B
:104E700056D97B689968FB6907F10C020846114610
:104E80001A4605F075F90346002B49D17B689A68EC
:104E9000FB691344BB61B8692449022205F068F933
:104EA0000346002B1AD12248042100F015FC0346CA
:104EB000012B0AD13B689B681E4A118892781980A1
:104EC0009A703B6802221A712AE03B689B681A4A72
:104ED000106818603B6803221A7121E0B86917490D
:104EE000022205F045F90346002B19D11448202170
:104EF00000F0D8FB0346012B0AD13B689B680D4AA2
:104F00001188927819809A703B6802221A7107E022
:104F10003B689B68084A106818603B6803221A7156
:104F20002037BD4680BD00BF8414010874140108F9
:104F300000040240781401087C1401088014010860
:104F40000008024080B588B000AF78603960204A20
:104F500007F10C0307CA03C31A7007F10C031846C4
:104F600005F0D6F80346FB617B681B7B092B2CD927
:104F70007B681969FB6907F10C02084611461A465D
:104F800005F0F6F80346002B1FD17B681A69FB6910
:104F90001344BB61B8690F49022205F0E9F80346E2
:104FA000002B12D17B689B6918460B49022205F041
:104FB000DFF80346002B04D10848042100F0A6FBCB
:104FC00003E00648042100F0AFFB2037BD4680BD5A
:104FD00090140108741401087814010800040240B8
:104FE00080B584B000AFF860B9607A60244B254882
:104FF0001946002200F062FF7B689BB221481946E7
:1050000000F04EFFBB6820481946002200F056FF12
:105010007B689BB21C48194600F042FF1B484FF4C6
:10502000007100F081FB1748012100F01DFF1648B8
:10503000012100F019FFFFE712484FF0C05100F0C6
:1050400053FF0346002BF7D0FFE70F48104900F04D
:105050004BFF0346002BF8D00C484FF4007100F0D2
:1050600055FB09480A4900F07BFF06484FF0C05144
:1050700000F076FF7B6818461037BD4680BD00BF44
:10508000F81B00205860024070600240000402409B
:105090002000002080B584B000AFF860B9607A606D
:1050A000BB6824481946002200F008FF7B689BB2C9
:1050B0002048194600F0F4FEBB681F48194600223C
:1050C00000F0FCFE7B689BB21B48194600F0E8FE2E
:1050D0001A484FF4007100F027FB1648012100F038
:1050E000C3FE1548012100F0BFFEFFE711484FF055
:1050F000C05100F0F9FE0346002BF7D0FFE70E4841
:105100000F4900F0F1FE0346002BF8D00B484FF496
:10511000007100F0FBFA0848094900F021FF05483A
:105120004FF0C05100F01CFF7B6818461037BD4699
:1051300080BD00BF58600240706002400004024021
:105140002000002080B500AF0748002100F08CFE51
:1051500000F010F80448054900F002FF04484FF041
:10516000C05100F0FDFE80BD7060024020000020B4
:105170005860024080B582B000AF1148114900F07C
:10518000B3FE03467B6010484FF0C05100F0ACFE08
:1051900003463B607B68002B0FD03B68002B0CD094
:1051A0000748084900F0DCFE07484FF0C05100F006
:1051B000D7FE0648712101F011F90837BD4680BDC0
:1051C000706002402000002058600240003800401B
:1051D00080B500AF044B1B68002B03D0024B1B684B
:1051E0000020984780BD00BFF82B002080B582B01A
:1051F00000AF154840F22551FEF79AFA0346002BFE
:105200001FD01148FEF784FA0346FB710F4B5A7802
:105210000E4B1A700D4BFA795A700C4B1B78002B01
:105220000FD10A4B5B78CC2B0BD1094B01221A60B2
:10523000064BFF221A70054BFF225A70054802F0F8
:1052400015FB0837BD4680BD001401404400002016
:10525000F41B00201817010880B483B000AF7860F9
:105260007B689B6A002B07D17B685B6A002B03D1AC
:10527000254B00221A603DE07B689B6A002B14D10D
:105280007B685A6A204B1A607B685B6A7A68526A4C
:10529000116A7A68126A0A441A627B685B6A0022A1
:1052A0009A627B6800225A6224E07B685B6A002B6A
:1052B00007D17B689B6A00225A627B6800229A624F
:1052C00018E07B689B6A7A68526A5A627B685B6AFC
:1052D0007A68926A9A627B685B6A7A68526A116A33
:1052E0007A68126A0A441A627B6800225A627B68F2
:1052F00000229A627B684FF0FF321A620C37BD467B
:105300005DF8047B704700BFFC2B002080B582B0A5
:1053100000AF1A4B1B687B6026E07B681B7AFF2B73
:1053200002D0786800F0CAF87B68DB69002B04D0F3
:105330007B68DB69184600F0F9FF7B684FF0FF32AD
:105340001A627B685A6A0D4B1A607B6800225A62A7
:105350007868FFF791F8094B1B687B607B68002B2E
:1053600002D07B6800229A627B68002B03D07B68A6
:105370001B6A002BD1D00837BD4680BDFC2B002016
:1053800080B500AF074B1B78DBB2012B06D9064B6B
:1053900001221A70054B01221A7001E0FFF7B6FFD7
:1053A00080BD00BF69190020F01B0020F11B002008
:1053B00080B584B000AF78607B68DB68FB60FB6819
:1053C000002B00D174E0FB685A697B68DA607B6867
:1053D000DB68002B03D07B68DB6800229A61FB68E6
:1053E00000225A61FB68FF221A72FB681B6AB3F144
:1053F000FF3F02D0F868FFF72FFF7B685B79C3F3AC
:105400000303DBB2022B0DD17B681A68FB681A61BB
:105410007B6800221A607B68DB88013B9AB27B685C
:10542000DA8039E07B685B79C3F30303DBB2032BDB
:1054300021D17B681B68BB60BB681A68BB68DB88CE
:105440009B0013441A68FB681A61BB68DB88013350
:105450009AB2BB68DA80BB689B89013B9AB2BB6891
:105460009A81BB68DA88BB685B899A4214D1BB68B1
:105470000022DA8010E07B685B79C3F30303DBB2C0
:10548000012B09D17B68DB88013B9AB27B68DA800B
:10549000FB684FF0FF321A61074B1B68FA689A42AB
:1054A00003D1FB6801225A7102E0F868FEF7E4FFBD
:1054B0001037BD4680BD00BFA81B002080B485B05A
:1054C00000AF78607B681B7A1A01214B1344FB60A4
:1054D0007B685B69002B07D17B689B69002B03D13C
:1054E000FB680022DA602BE07B689B69002B0BD104
:1054F0007B685B6900229A617B685A69FB68DA60A5
:105500007B6800225A611BE07B685B69002B07D136
:105510007B689B6900225A617B6800229A610FE0D8
:105520007B689B697A6852695A617B685B697A68B3
:1055300092699A617B6800229A617B6800225A61B5
:105540007B68FF221A721437BD465DF8047B7047F2
:10555000002C002080B487B000AF78603960002351
:105560007B6100233B610023FB6000237B6176E0CD
:105570007B69012202FA03F33B613B681A683B69CD
:105580001340FB60FA683B699A4265D17B681A68F0
:105590007B695B00032101FA03F3DB431A407B685C
:1055A0001A607B681A683B681B7919467B695B0047
:1055B00001FA03F31A437B681A603B681B79012BDD
:1055C00003D03B681B79022B2ED17B689A687B69DC
:1055D0005B00032101FA03F3DB431A407B689A6006
:1055E0007B689A683B685B7919467B695B0001FAC6
:1055F00003F31A437B689A607B685A687B699BB2A5
:10560000012101FA03F3DB431A407B685A607B688F
:105610005A683B689B7919467B699BB201FA03F390
:105620009BB21A437B685A607B68DA687B699BB2DD
:105630005B00032101FA03F3DB431A407B68DA6065
:105640007B68DA683B68DB7919467B695B0001FAA5
:1056500003F31A437B68DA607B6901337B617B6902
:105660000F2B85D91C37BD465DF8047B704700BF02
:1056700080B483B000AF78607B684FF6FF721A6029
:105680007B6800221A717B6800225A717B680022B5
:105690009A717B680022DA710C37BD465DF8047B95
:1056A000704700BF80B485B000AF78600B467B8048
:1056B0000023FB737B681A697B881340002B02D0A0
:1056C0000123FB7301E00023FB73FB7B18461437B7
:1056D000BD465DF8047B704780B485B000AF78604C
:1056E0000B467B800023FB737B685A697B881340E1
:1056F000002B02D00123FB7301E00023FB73FB7B33
:1057000018461437BD465DF8047B704780B483B0FB
:1057100000AF78600B467B807B687A881A830C37F1
:10572000BD465DF8047B704780B483B000AF7860FD
:105730000B467B807B687A885A830C37BD465DF8C0
:10574000047B704780B485B000AF786013460A468A
:105750007A807B700023FB600023BB607A787B88B3
:1057600003F007039B0002FA03F3FB607B88DB086E
:105770009BB21A467B88DB089BB219467B680831CE
:1057800053F821107B8803F007039B000F2000FAD9
:1057900003F3DB4319407B68083243F822107B880F
:1057A000DB089BB21A467B68083253F82220FB685C
:1057B0001343BB607B88DB089BB21A467B680832C8
:1057C000B96843F822101437BD465DF8047B704772
:1057D00080B483B000AF78607B6803F00703054AAC
:1057E000D35C5BB29BB21BB218460C37BD465DF86A
:1057F000047B70472017010890B585B000AF786032
:105800007B680833FB60FDF711FF224B1B68DB68E8
:10581000002B0BD01F4B1B68DC68FB681B6818460D
:10582000FFF7D6FF03461846A04722E0194B196838
:10583000184B1B6893F8B4311A4613465B001344A7
:105840009B000B4410335B681846F968042204F08F
:10585000F7FA104B19680F4B1B6893F8B4311A46CE
:1058600013465B0013449B0010330B441846FDF7AE
:10587000B7FEFDF707FF074B1B68DB68002B06D060
:10588000044B1B6893F8B4311846FDF777FC1437C6
:10589000BD4690BDD419002080B584B000AF7860BB
:1058A0007B680833FB60FDF7C1FE144B1968134B8E
:1058B0001B6893F8B4311A4613465B0013449B00EF
:1058C0000B4410335B681846F968042204F0B8FAF8
:1058D0000A4B1968094B1B6893F8B4311A461346F2
:1058E0005B0013449B0010330B441846FDF778FE11
:1058F000FDF7C8FE00BF1037BD4680BDD41900209B
:1059000080B58AB000AF78607B687B627B6A1B8859
:105910000C2B11D00C2B02DC082B05D030E0732BA4
:1059200006D0782B16D02BE0786AFFF765FF27E0CA
:10593000786AFFF7B1FF23E002237B617B689B68F5
:10594000BB617B68DB68FB6107F11403184600F05C
:1059500043F915E07B6A08333B620123BB603B6A75
:105960001B88DBB23B733B6A1B881BB21B129BB2CA
:10597000DBB27B7307F10803184600F02DF900BF76
:105980002837BD4680BD00BF80B584B000AF7860C9
:10599000414801F06BFF7B68002B02D13F4801F0CA
:1059A00065FF7B681B68013B082B6ED801A252F88B
:1059B00023F000BFD9590008ED590008635A0008C8
:1059C0006B5A00082F5A0008435A0008735A0008FF
:1059D0007B5A0008835A0008314801F047FF314BD9
:1059E0001B6843F001022F4B1A6052E02E4801F071
:1059F0003DFF2C4B1B6823F001022A4B1A60294BF8
:105A00001B6823F00402274B1A600023FB607B68AD
:105A10000433FB60FB6893F84930C82B03D123485B
:105A200001F024FF35E0224801F020FF31E0214859
:105A300001F01CFF1B4B1B6843F00202194B1A605C
:105A400027E01D4801F012FF164B1B6823F00202ED
:105A5000144B1A60134B1B6823F00802114B1A6099
:105A600017E0164801F002FF13E0154801F0FEFEB2
:105A70000FE0144801F0FAFE0BE0134801F0F6FEC7
:105A800007E0124801F0F2FE03E0114801F0EEFEDB
:105A900000BF1037BD4680BD3C1701084C170108F8
:105AA00070170108442D002098170108C417010839
:105AB0000418010838180108681801089818010826
:105AC000D0180108041901083419010868190108DF
:105AD0009C19010880B582B000AF78601A4801F0C7
