:020000040800F2
:1000000028290120114A000851120008591200083D
:10001000791200088112000889120008000000000F
:100020000000000000000000000000009112000825
:100030009912000800000000096B0008A1120008D6
:10004000691300087D4A00087D4A0008C1160008AF
:100050007D4A00087D4A000899130008BD13000876
:10006000E113000801140008211400087D4A00086B
:100070007D4A00087D4A00087D4A0008E9570008CB
:100080007D4A00087D4A00082D1600087D4A0008B8
:100090007D4A00087D4A00087D4A00084114000896
:1000A0007D4A00087D4A00087D4A00087D4A000814
:1000B0007D4A00087D4A00087D4A00087D4A000804
:1000C0007D4A00087D4A00087D4A00087D4A0008F4
:1000D0007D4A00087D4A00086D1600087D4A000828
:1000E000D5140008911500087D4A00087D4A0008D3
:1000F0007D4A00087D4A00087D4A00087D4A0008C4
:100100007D4A00087D4A0008E51600087D4A00087F
:100110007D4A0008791600085D17000809170008D5
:100120007D4A00087D4A00081517000839170008A5
:100130007D4A00087D4A00087D4A00087D4A000883
:100140007D4A00087D4A00087D4A00087D4A000873
:100150007D4A0008B51600087D4A0008A916000867
:100160007D4A00087D4A00087D4A00087D4A000853
:100170007D4A00087D4A00087D4A00087D4A000843
:100180007D4A00087D4A000880B582B000AF7860E3
:1001900039607B681B881B01DAB23B68DA707B68C8
:1001A0005A883B689A807B681B88022B04D17B6845
:1001B0005A683B689A600CE07B681B88092B08D161
:1001C0003B689A1D7B6808331046194606220AF0E0
:1001D0009BFB0837BD4680BD80B485B000AF0246AA
:1001E0000B46FA80BB80FB8803F0F0031B11094A21
:1001F000D35C03F24653FB60BA88FB689A4202D98B
:10020000FB689BB200E0BB8818461437BD465DF81A
:10021000047B7047B8EB000880B584B000AF03469C
:10022000FB80FB88DBB23B7207F1080308481946E4
:10023000002201F0BFFD0346FB81B7F90E30002B11
:1002400000D0FEE73B891BB218461037BD4680BD83
:10025000CCEB000880B58EB000AFB9600146F981E3
:10026000BA81FB800023BB84002387F8263000235B
:1002700087F8273007F11403184603F017FABB89F3
:10028000BB82BB68FB613B6C1B88022B02D0092B35
:1002900007D00DE049F20D43BB840C2387F82630CC
:1002A00009E049F20463BB840C2387F8263002E09E
:1002B0004FF6FE7353E0BB89B7F90E20104619467E
:1002C000FFF78AFF0346FB86FB8E3B85FB8EBB82D6
:1002D000FB89DBB287F82A3007F12803386C19460E
:1002E000FFF752FF97F82B30DAB2FB88DBB203F04E
:1002F0000F03DBB21343DBB2DBB287F82B30FB8991
:10030000D8B207F1240107F1280207F1140301F024
:1003100039FE0346BB86B7F93430002B1CD1FA698D
:10032000FB8E1344FB61B7F90C30BA6813441A46CC
:10033000FB69D31AFB86B7F90E20FB8E10461946CF
:10034000FFF74AFF0346FB86FB8EBB82FB8E3B8595
:10035000FB8E002BD3D101E0BB8E00E0BB891BB22A
:1003600018463837BD4680BD80B58CB000AFB96047
:100370000146F981BA81FB8007F11003184603F0AA
:1003800095F9BB897B82BB68FB61FB89DBB287F88F
:100390002230BB893B843B8C9BB27B82FB88DBB2E7
:1003A00003F00F03DBB287F82330FB6B1B88102BA5
:1003B00007D197F8233043F02003DBB287F82330CE
:1003C0000EE0FB6B1B881C2B07D197F8233043F002
:1003D0003003DBB287F8233002E04FF6FE7341E0D2
:1003E000FB89D9B207F1200207F110030846204922
:1003F00001F024FD0346FB85B7F92E30002B01D018
:10040000FB8D2FE03B8CFB85B7F92E30002B28DBD2
:10041000B7F90E2097F822309A4200D0FEE797F8FD
:1004200023301A46BB6B1A80BB6B1B88022B09D189
:10043000BA8CBB6B5A80BA6ABB6B5A60FB6B1022DA
:100440001A800EE0BB6B1B88092B0AD1BA8CBB6BE0
:100450005A80BB6B083307F1260211681960928835
:100460009A80FB8D1BB218463037BD4680BD00BF59
:10047000D0EB000880B584B000AF78607B680833AB
:10048000FB6003F0BFF8FB689B7803F00F03082BB9
:1004900000DDFEE71B4B19681A4B1B6893F8B4315B
:1004A0001A4613465B0013449B000B4410335B68F1
:1004B000FA6892789A70134B1968124B1B6893F87C
:1004C000B4311A4613465B0013449B000B441033AF
:1004D0005B68FA6812881A800A4B1968094B1B6816
:1004E00093F8B4311A4613465B0013449B00103353
:1004F0000B44184603F060F803F0B0F800BF103763
:10050000BD4680BDC419002080B58CB000AFB96075
:100510000146F981BA81FB80002387F82D3007F16D
:100520001403184603F0C2F8BB89BB82BB68FB61A9
:10053000FB8903F0F003802B0CD1B7F906303B6147
:1005400007F110033B624FF6FC73FB82012387F82F
:100550002D3001E000233B62BB89B7F90E20104625
:100560001946FFF739FE0346FB85FB8DBB82FB8DE9
:10057000BB84FB89DBB287F8263097F82730DAB2E4
:10058000FB88DBB203F00F03DBB21343DBB2DBB259
:1005900087F82730FB89D9B207F1240207F1140349
:1005A0000846194901F0EEFC03467B85B7F92A306D
:1005B000002B1CD1FA69FB8D1344FB61B7F90C3099
:1005C000BA6813441A46FB69D31AFB85B7F90E20A3
:1005D000FB8D10461946FFF7FFFD0346FB85FB8D9B
:1005E000BB82FB8DBB84FB8D002B06D001E07B8D95
:1005F00004E097F82D30002BCCD0BB891BB21846F5
:100600003037BD4680BD00BFD4EB000880B584B054
:1006100000AF78607B680833FB6002F0F3FFFB6893
:100620009B7803F00F03082B00DDFEE7144B1968DD
:10063000134B1B6893F8B4311A4613465B001344FE
:100640009B000B4410335B681846F9680C220AF0D3
:100650005BF90B4B19680A4B1B6893F8B4311A46C7
:1006600013465B0013449B0010330B44184602F002
:10067000A3FF02F0F3FF00BF1037BD4680BD00BFEF
:10068000C419002080B584B000AF78607B6808335F
:10069000FB6002F0B7FF144B1968134B1B6893F80B
:1006A000B4311A4613465B0013449B000B441033CD
:1006B0005B681846F96808220AF026F90A4B19689F
:1006C000094B1B6893F8B4311A4613465B00134478
:1006D0009B0010330B44184602F06EFF02F0BEFF81
:1006E00000BF1037BD4680BDC419002080B58AB058
:1006F00000AFB9600146F981BA81FB8007F11003B0
:10070000184602F0D3FFBB897B82BB68FB61FB8983
:10071000DBB287F82230BB893B843B8C9BB27B8267
:10072000FB88DBB203F00F03DBB287F82330FB89D1
:10073000D9B207F1200207F110030846084901F079
:100740007DFB0346FB84B7F92630002B01D0FB8CE0
:1007500000E03B8C1BB218462837BD4680BD00BF69
:10076000E0EB000880B58AB000AFB9607A603B600A
:100770000346FB81202387F82730FB89DBB23B76D9
:1007800000237B760023BB760023BB830023FB83FF
:10079000BB68002B03D0BB681B689BB2BB837B6824
:1007A000002B03D07B681B689BB2FB833B6B002B49
:1007B00006D14FF6FF737B844FF6FF733B8420E036
:1007C0003B6B1A684FF6FE739A4203D94FF6FF73DC
:1007D0007B8403E03B6B1B689BB27B843B6B5B6859
:1007E0009A0A3B6B5A603B6B5A684FF6FE739A420B
:1007F00003D94FF6FF733B8403E03B6B5B689BB20E
:100800003B8407F1100318460A21082201F0A8FAD8
:10081000034687F8273097F82730202B02D14FF670
:10082000300338E007F118031D481946002201F093
:10083000C1FA0346BB84B7F92430002B00D0FEE791
:100840003B8B002B21D1174B196897F827201346B3
:100850005B0013449B0010330B44184602F098FED3
:100860003B8A9BB23B833B8B1BB2002B0DDBBB68EF
:10087000002B03D0BB8A1A46BB681A607B68002B2A
:1008800003D0FB8A1A467B681A6097F8273018460F
:1008900002F060FC3B8B1BB218462837BD4680BD7A
:1008A000ECEB0008C419002080B483B000AF03460D
:1008B0003960FB803B681A68FB8803F00F03012155
:1008C00001FA03F31A433B681A600C37BD465DF822
:1008D000047B704780B483B000AF03463960FB806F
:1008E0003B681A68FB8803F00F03012101FA03F348
:1008F0001340002B01D0012300E000231BB2184657
:100900000C37BD465DF8047B704700BF80B483B0F0
:1009100000AF78607B6800221A600C37BD465DF836
:10092000047B704780B584B000AF02460B46FA7175
:10093000BB800023FB60F97907F10C02BB880846F5
:10094000042100F06DF8FB6818461037BD4680BDE5
:1009500080B584B000AF02460B46FA71BB8000231D
:10096000FB81F97907F10E02BB880846022100F0ED
:1009700057F8FB8918461037BD4680BD80B584B056
:1009800000AF02460B46FA71BB800023FB73F97976
:1009900007F10F02BB880846012100F041F8FB7BFC
:1009A000DBB218461037BD4680BD00BF80B582B0AF
:1009B00000AF0B463A600246FA71BB80F9793A46BD
:1009C000BB880846042100F091F80837BD4680BD79
:1009D00080B582B000AF13460246FA710A46BA806B
:1009E0007B80F979BA1CBB880846022100F07EF8AA
:1009F0000837BD4680BD00BF80B582B000AF13464A
:100A00000246FA710A46BA80BB71F979BA1DBB88F1
:100A10000846012100F06AF80837BD4680BD00BFD6
:100A200080B588B000AFBA600246FA730A46BA8150
:100A3000FB800123FB75FB7B3F2B02D94FF0FF337B
:100A40004EE0FB881BB2002B02DA4FF0FF3347E089
:100A5000FA88BB891344B3F5004F02DB4FF0FF3334
:100A60003EE0FB88002B18D0FB7B43F04003DBB259
:100A70003B76FB887F2B05D8FB88DBB27B76022395
:100A8000FB750CE0FB88DBB27B76FB88DB099BB255
:100A9000DBB2BB760323FB7501E0FB7B3B76FB7D82
:100AA000DBB207F11802104811461A4609F02CFF74
:100AB000FB7DDBB21A46BB8913449BB20A48194638
:100AC00004F06CFC0346FB83FB7DDBB21A46064B4D
:100AD0001A44BB89B86811461A4609F015FFFB8B0A
:100AE00018462037BD4680BDE008002080B586B09E
:100AF00000AFBA600246FA730A46BA81FB8001234E
:100B0000FB74FB88002B1BD0FB7B63F03F03DBB245
:100B10003B75FB887F2B05D8FB88DBB27B750223F6
:100B2000FB7412E0FB88DBB263F07F03DBB27B7502
:100B3000FB88DB099BB2DBB2BB750323FB7404E0CB
:100B4000FB7B63F07F03DBB23B75FB7CDBB207F121
:100B500014020F4811461A4609F0D6FEFB7CDBB2A0
:100B60001A460B4B1A44BB891046B9681A4609F05D
:100B7000CBFEFB7CDBB21A46BB8913449BB2044814
:100B8000194604F00BFC034618461837BD4680BDD5
:100B9000E008002080B586B000AFBA600246FA7364
:100BA0000A46BA81FB800123FB75FB7B63F07F0360
:100BB000DBB23B75FB7D07F11402154811461A465E
:100BC00009F0A2FEFA7D124B1A44BB891046B9689F
:100BD0001A4609F099FEFA7DBB891A440C4B1A4457
:100BE000FB881046396A1A4609F08EFEFB7D9AB2E0
:100BF000BB8913449AB2FB8813449BB2044819463C
:100C000004F0CCFB034618461837BD4680BD00BF34
:100C1000E008002080B582B000AF786039603B68A2
:100C2000002B43DB7B68002B40D0224B1B78002B32
:100C300002D03B6802333B603B68B3F5806F00DB5A
:100C400034E03B687F2B04DD1B4B1B78002B00D16D
:100C50002CE01A4B1B6823F47F7323F00303174A1D
:100C60001360164B1A683B681A43144B1A60134BF7
:100C70001B689BB2082000211A46FFF7A9FE0D4B06
:100C80001B78002B0AD03B689BB2023B9BB2092029
:100C900019467A680023FFF729FF07E03B689BB2FB
:100CA000092019467A680023FFF720FF0837BD4660
:100CB00080BD00BF0F1A0020081A00208CDC002025
:100CC00080B588B002AFF860B9607A603B60BA68FE
:100CD0003B6813447B617B69002B37DB7B68002B0F
:100CE00034D01C4B1B78002B02D07B6902337B6114
:100CF0007B69B3F5806F00DB28E07B697F2B04DD27
:100D0000154B1B78002B00D120E0BB689AB23B68E2
:100D10009BB27968009109201146FA68FFF73AFF03
:100D20000E4B1B6823F47F7323F003030B4A1360FD
:100D30000A4B1A687B691A43084B1A60074B1B68F9
:100D40009BB2082000211A46FFF742FE1837BD4625
:100D500080BD00BF0F1A0020081A00208CDC002084
:100D600080B582B000AF0023FB80144B1B78022BB0
:100D700007D1134B1B689BB2C3F309039BB2FB80E3
:100D80000BE0BB1D102002211A460023FFF748FE8E
:100D9000FB88C3F309039BB2FB800A4B1B78002B33
:100DA00006D0FB88022B03D9FB88023B9BB200E0F4
:100DB000FB8818460837BD4680BD00BF151A0020C5
:100DC0008CDC00200F1A002080B586B000AF786060
:100DD0007B6808337B61304B19682F4B1B6893F895
:100DE000B4311A4613465B0013449B000B4418337E
:100DF0005B78DBB25BB2002B00DA4AE07B695B8890
:100E00007B82254B1968244B1B6893F8B4311A4632
:100E100013465B0013449B000B4410335B68FB607C
:100E2000FB685B687A6992681A60FB689B687A69FC
:100E300052681A607B691B889AB2FB681A80FB684B
:100E4000DB681B887B817A8A7B899A4238BF13468C
:100E50007B81FB68DB687A891A80FB6819697B698A
:100E600003F10C027B89084611461A4609F04CFD35
:100E7000094B1968084B1B6893F8B4311A4613469E
:100E80005B0013449B0010330B44184602F094FBA4
:100E900000BF1837BD4680BDC419002080B584B09E
:100EA00000AF78607B680833FB6002F0ABFB274B38
:100EB0001968264B1B6893F8B4311A4613465B0039
:100EC00013449B000B4418335B78DBB25BB2002BFE
:100ED00013DA1E4B19681D4B1B6893F8B4311A4680
:100EE00013465B0013449B000B4410335B681846A9
:100EF000F968142209F008FD12E0144B1968134B2D
:100F00001B6893F8B4311A4613465B0013449B00E8
:100F10000B4410335B681846F968082209F0F4FCAA
:100F20000A4B1968094B1B6893F8B4311A461346EB
:100F30005B0013449B0010330B44184602F03CFB4B
:100F400002F08CFB00BF1037BD4680BDC4190020E5
:100F500080B483B000AF786039607B68DA683B6842
:100F60001A607B689A683B685A607B685A883B685D
:100F70001A817B689A883B685A817B68DA883B686B
:100F80009A817B681A693B681A610C37BD465DF827
:100F9000047B704780B588B000AF78607B68083309
:100FA000FB61264B1B68002B0CD007F10803F86986
:100FB0001946FFF7CDFF214B1B6807F108021046C9
:100FC000984736E002F01EFB1D4B19681C4B1B684E
:100FD00093F8B4311A4613465B0013449B000B444C
:100FE00010335B68002B22D0154B1968144B1B681B
:100FF00093F8B4311A4613465B0013449B000B442C
:1010000010335B681846F969142209F07DFC0C4B1B
:1010100019680B4B1B6893F8B4311A4613465B00F2
:1010200013449B0010330B44184602F0C5FA02F03B
:1010300015FB00BF2037BD4680BD00BFC81900208A
:10104000C419002080B58EB000AF78607B681B7833
:1010500003339BB223F003039BB2BB810023FB81CC
:101060007B685B687B610023BB617B681B783B7797
:101070007B685B787B777B689A687B685B7807F135
:101080001C010231084611461A4609F03DFC07F1E1
:101090001C0207F10C03094811461A4601F04CFFE7
:1010A0000346FB86B7F93630002B00D0FEE7BB8B3A
:1010B0009BB218463837BD4680BD00BF10EC000813
:1010C00080B594B000AF78607B68FB64FB6C1B88D4
:1010D00041F63002934253D041F6300293420BDC8A
:1010E00041F6220293421BD041F62E0293421BD0BE
:1010F000B3F5C15F0CD072E0B3F5D15F08D041F613
:101100003522934208D041F63502934204D066E07E
:101110007868FFF7C3FE63E07868FFF755FE5FE08D
:101120007868FFF737FF5BE0FB6C0833BB64BB6C90
:1011300004337B6401237B6140233B76FB6C1C33CF
:10114000FB6101233B62BB6C1B7887F824307B6C0E
:10115000BB627B6C3B6107F1200207F11403104670
:10116000194605F0B7F83B7E3B7297F824307B7246
:10117000FB69FB6007F108031846FFF763FF2FE0E8
:10118000FB6C08333B643B6C0433FB6302233B6220
:101190003B6C1B7887F82430FB6BBB623B6C1B7885
:1011A000FA6B1344FB633B6C5B7887F82C30FB6B6A
:1011B0003B633B6C5B78FA6B1344FB633B6C9B7843
:1011C00087F83430FB6BBB6300237B6107F120029F
:1011D00007F114031046194605F07CF800E0FEE71D
:1011E0005037BD4680BD00BF80B500AF0E4B1B78A9
:1011F000DBB2012B10D10D4B1B78012B01D103F079
:1012000041FC0B4B1B78DBB2012B01D103F02CFB13
:10121000054B00221A7006E0034B1B78DBB2013B42
:10122000DAB2014B1A7080BD61190020E01B00206A
:101230006219002080B400AF044B1B685A1C034B9A
:101240001A60BD465DF8047B704700BF542F002034
:1012500080B400AFFEE700BF80B400AF1EF0040F03
:101260000CBFEFF30880EFF3098000F089BABD46A8
:101270005DF8047B704700BF80B400AFFEE700BF9D
:1012800080B400AFFEE700BF80B400AFFEE700BF50
:1012900080B400AFFEE700BF80B400AFFEE700BF40
:1012A00080B500AF284B1B685A1C274B1A60274B90
:1012B0001B685A1C254B1A60254B1B685A1C244B73
:1012C0001A60244B1B685A1C224B1A60224B1B6865
:1012D0005A1C214B1A601D4B1B68132B04D906F0B6
:1012E000F9FB1A4B00221A6005F038FD194B1B68F8
:1012F000042B1BD9174B00221A60184B1B6803F0F4
:101300000103002B10D0154B1B6803F00403002BC6
:101310000AD0134B1B78002B06D1124B1B78002BE5
:1013200002D102F0E5FF01E006F0CCFE03F0A4FFDD
:10133000FFF780FF044B1B68B3F5FA7F02D3024B23
:1013400000221A6080BD00BF7C1900208019002097
:101350008419002088190020702D0020342D0020D1
:10136000EC1900206819002080B582B000AF7F23FF
:10137000FB7103F0A9F903F087F9FB79184603F034
:1013800091F903F0A1F9034806F038FF0837BD468C
:1013900080BD00BF18EC000880B500AF012005F04B
:1013A000A5FD0346012B07D1012005F091FD012089
:1013B00005F0C0FD04F05EFA80BD00BF80B500AF4F
:1013C000054B02225A61054B01221A7002F03AFBCA
:1013D000024B00221A7080BD003C0140161A00200A
:1013E00080B500AF042005F081FD0346012B05D137
:1013F000042005F06DFD042005F09CFD80BD00BFBC
:1014000080B500AF082005F071FD0346012B05D122
:10141000082005F05DFD082005F08CFD80BD00BFB3
:1014200080B500AF102005F061FD0346012B05D10A
:10143000102005F04DFD102005F07CFD80BD00BFA3
:1014400080B500AF202005F051FD0346012B07D1E8
:10145000202005F03DFD202005F06CFD05F066FC28
:10146000402005F043FD0346012B05D1402005F047
:101470002FFD402005F05EFD802005F037FD03467E
:10148000012B05D1802005F023FD802005F052FDC1
:101490004FF4807005F02AFD0346012B09D14FF46B
:1014A000807005F015FD4FF4807005F043FD05F0E8
:1014B0002FFC4FF4007005F019FD0346012B07D1F6
:1014C0004FF4007005F004FD4FF4007005F032FD9C
:1014D00080BD00BF80B500AF4FF4806005F006FD11
:1014E0000346012B07D14FF4806005F0F1FC4FF467
:1014F000806005F01FFD4FF4006005F0F7FC034627
:10150000012B07D14FF4006005F0E2FC4FF40060BE
:1015100005F010FD4FF4805005F0E8FC0346012B68
:1015200007D14FF4805005F0D3FC4FF4805005F004
:1015300001FD4FF4005005F0D9FC0346012B07D103
:101540004FF4005005F0C4FC4FF4005005F0F2FCDD
:101550004FF4804005F0CAFC0346012B07D14FF43D
:10156000804005F0B5FC4FF4804005F0E3FC4FF4FB
:10157000004005F0BBFC0346012B07D14FF40040AF
:1015800005F0A6FC4FF4004005F0D4FC80BD00BF80
:1015900080B500AF4FF4004006F02AFB0346002B55
:1015A00007D04FF4004006F057FB4FF4001005F051
:1015B000C1FC4FF4804006F01BFB0346002B07D014
:1015C0004FF4804006F048FB4FF4800005F0B2FC79
:1015D0004FF4005006F00CFB0346002B07D04FF4ED
:1015E000005006F039FB4FF4003005F0A3FC4FF437
:1015F000805006F0FDFA0346002B07D04FF48050D0
:1016000006F02AFB4FF4003005F094FC4FF4003054
:1016100006F0EEFA0346002B07D04FF4003006F038
:101620001BFB4FF4001005F085FC80BD80B500AFBA
:101630000D4840F2052103F025FE0346012B04D19D
:10164000094840F2052103F04BFE07484FF483712F
:1016500003F018FE0346012B04D103484FF48371B5
:1016600003F03EFE80BD00BF0020014080B400AF0B
:10167000BD465DF8047B704780B500AF084840F276
:10168000255102F087F90346002B08D0044802F0E8
:1016900005F90346DBB20348194602F0EDF880BDB8
:1016A000005000400044004080B500AF04F0F0F866
:1016B00080BD00BF80B400AFBD465DF8047B7047BD
:1016C00080B500AF4FF4804006F092FA0346002B3D
:1016D00007D04FF4804006F0BFFA4FF4800005F0C9
:1016E00029FC80BD80B500AF0548042106F048FC08
:1016F0000346012B03D10348042106F06BFC80BD97
:10170000000C00400000014080B500AF05F0B2FDC4
:1017100080BD00BF80B500AF0548064905F0FEF862
:101720000346002B03D00248024905F04FF980BD63
:10173000406402400080201080B500AF0548064993
:1017400005F0ECF80346002B03D00248024905F0EF
:101750003DF980BD586402400080001880B400AF9D
:10176000064B1B8A054B054A128A92B222F00102EF
:1017700092B21A82BD465DF8047B704700100040AB
:10178000B0B5CAB000AF3B1D18603B1D1B681B689D
:10179000C7F824313B1D1B685B68C7F820313B1D2F
:1017A0001B689B68C7F81C313B1D1B68DB68C7F8CA
:1017B00018313B1D1B681B69C7F814313B1D1B68A2
:1017C0005B69C7F810313B1D1B689B69C7F80C317A
:1017D0003B1D1B68DB69C7F80831754806F00EFD34
:1017E00007F1080318467349D7F8242109F070F966
:1017F00007F10803184606F001FD07F10803184633
:101800006D49D7F8202109F063F907F1080318465C
:1018100006F0F4FC07F1080318466849D7F81C21C4
:1018200009F056F907F10803184606F0E7FC07F13E
:10183000080318466249D7F8182109F049F907F159
:101840000803184606F0DAFC07F1080318465D495C
:10185000D7F8142109F03CF907F10803184606F0FF
:10186000CDFC07F1080318465749D7F8102109F0B5
:101870002FF907F10803184606F0C0FC07F108032A
:1018800018465249D7F80C2109F022F907F108034C
:10189000184606F0B3FC07F1080318464C49D7F880
:1018A000082109F015F907F10803184606F0A6FC0F
:1018B000484B1B6807F10802104647491A4609F0D1
:1018C00007F907F10803184606F098FC434B1B681C
:1018D00007F10802104642491A4609F0F9F807F1E3
:1018E0000803184606F08AFC3E4B1B6807F1080205
:1018F00010463D491A4609F0EBF807F1080318466F
:1019000006F07CFC394B1B6807F108021046384989
:101910001A4609F0DDF807F10803184606F06EFCD8
:10192000344B1B6807F10802104633491A4609F088
:10193000CFF807F10803184606F060FC2F4B5B6AEE
:1019400007F1080210462E491A4609F0C1F807F1BE
:101950000803184606F052FC284BDB6A002B03DA1A
:10196000284806F04BFC1FE0244BDB6A03F0804361
:10197000002B03D0244806F041FC15E01F4BDB6A26
:1019800003F00103002B0FD007F108021F4B144690
:101990001D460FCD0FC495E8070003C4228007F150
:1019A0000803184606F02AFC194806F027FCFEE753
:1019B00024EC000854EC000860EC00086CEC000813
:1019C00078EC000884EC000890EC0008C0EC0008FB
:1019D000E4EC000838ED00E0F0EC000828ED00E051
:1019E00000ED00082CED00E010ED000830ED00E007
:1019F00020ED00083CED00E030ED000800ED00E0D7
:101A000040ED000854ED000870ED000890ED00086E
:101A1000ACED000890B587B000AF0346FB71FA79D2
:101A20006D4913465B001344DB000B445B68FB60AD
:101A3000FB68002B00D1CCE0684B1B78DBB2013394
:101A4000DAB2664B1A70664B1B68002B09D1FA7923
:101A500013465B001344DB005F4A1A44604B1A6074
:101A6000B5E05F4B1B687B61FB683B61ABE03A69AB
:101A70007B695B68D31A3B613B69002B7CDA7B692D
:101A80005B69002B28D07B695969FA7913465B00A2
:101A90001344DB00504A13440B61FA797B6959699E
:101AA0004D4813465B001344DB0003441033596078
:101AB000FA79494913465B001344DB000B441033A9
:101AC0007A691A60FA7913465B001344DB00424AD4
:101AD0001A447B695A611DE0FA79414B19683E4806
:101AE00013465B001344DB000344103319603C4B86
:101AF0001968FA7913465B001344DB00364A134435
:101B00004B61FA7913465B001344DB00324A1A44F6
:101B1000334B1A60FA79F9792F480B465B000B4476
:101B2000DB00034410331B6859683B6919442A4899
:101B300013465B001344DB0003445960FA792649DD
:101B400013465B001344DB000B4410331968FA7929
:101B5000214813465B001344DB00034410331B6829
:101B60005868FA791C4C13465B001344DB0023448D
:101B70005B68C31A4B602AE03B69002B20DB7B6962
:101B80001B69002B1CD1FA79134913465B001344DF
:101B9000DB000B4410337A695A60FA7913465B0014
:101BA0001344DB000C4A1A447B691A61FA793969DB
:101BB000094813465B001344DB000344596006E008
:101BC0007B691B697B617B69002B7FF450AFFFF75A
:101BD0000BFB1C37BD4690BD8C19002061190020FD
:101BE000BC19002080B584B000AF0346FB71FA79C0
:101BF00013465B001344DB002C4A1344FB602C4B60
:101C00001B78DBB20133DAB2294B1A70FB685B69CF
:101C1000002B07D1FB681B69002B03D1254B002249
:101C20001A603DE0FB685B69002B14D1FB681A6900
:101C3000204B1A601F4B1B6800225A61FB681B690E
:101C4000FA6812695168FA6852680A445A60FB6877
:101C500000221A6124E0FB681B69002B07D1FB6896
:101C60005B6900221A61FB6800225A6118E0FB6878
:101C70005B69FA6812691A61FB681B69FA68526944
:101C80005A61FB681B69FA6812695168FA68526800
:101C90000A445A60FB6800221A61FB6800225A61FC
:101CA000FFF7A2FA1037BD4680BD00BF8C19002097
:101CB00061190020BC19002080B582B000AF1B4B19
:101CC0001B687B6027E07B685B78002B0BD17B680F
:101CD0001B781846FFF786FF7B6801229A707B68A5
:101CE000DB68984714E07B685B78012B10D17B6838
:101CF0001B781846FFF776FF7B689A687B685A6006
:101D00007B681B781846FFF785FE7B68DB68984781
:101D1000064B1B687B607B68002B03D07B685B688D
:101D2000002BD0D00837BD4680BD00BFBC190020B5
:101D300080B500AF074B1B78DBB2012B06D9064BF1
:101D400001221A70054B01221A7001E0FFF7B4FF5F
:101D500080BD00BF61190020E01B0020E21B0020B5
:101D600080B584B000AF786013460A46FA70BB7045
:101D7000FA78BB781046194601F01AF90346FB734E
:101D8000FB7B202B0ED001F03DFC094B1968FA7B40
:101D900013465B0013449B000B4410337A685A606F
:101DA00001F05CFCFB7B18461037BD4680BD00BFD0
:101DB000C419002080B586B000AFF860B9607A60C1
:101DC0001C4B1B680433184601F008FC194B1B68B8
:101DD000012283F89A21F8687968BA6800F06CF9F2
:101DE0000346FB82B7F91630002B16D1124B1B7835
:101DF000002B0DD100233B610F4B01221A7042F2E0
:101E0000D0033B6100BF3B695A1E3A61002BFAD1F7
:101E100000F01AFE0346FB8205E0064B1B68043304
:101E2000184601F009FCFB8A1BB218461837BD465C
:101E300080BD00BFC4190020CC19002080B588B037
:101E400000AFB9607A603B600346FB732023FB77E9
:101E50003B68DB68002B00D1FEE73B685B88002B0A
:101E600000D1FEE7FB7B03F00F03072B02DD4FF6EB
:101E7000F77380E0FB7B03F00F03DBB20F20194602
:101E800001F096F80346FB77FB7F202B02D14FF63B
:101E9000300370E001F0B6FB3B68DB68BB617B6838
:101EA0007B61374B1968FA7F13465B0013449B0034
:101EB0000B44103307F114025A6001F0CFFB304B92
:101EC0001B6803F5CE73184601F088FB2C4B1B688A
:101ED00003F29D13184622211122002306F09CF8DC
:101EE000274B1B6893F89B31012B06D8244B1B68AA
:101EF00003F29D13184601F04BFB214B1B68043382
:101F0000184601F06BFB1E4B1B6893F89B31012BAD
:101F100000D8FEE71A4B1B6893F89B21013AD2B216
:101F200083F89B21164B1B6803F5CE73184601F00E
:101F300083FBB86839687A6800F0BEF80346BB8353
:101F40000F4B1B680433184601F076FBB7F91C30C1
:101F5000002B0BD10A4B1968FA7F13465B00134420
:101F60009B0010330B44184601F012FBFB7F184610
:101F700001F0F0F8BB8B1BB218462037BD4680BD80
:101F8000C419002080B586B000AFB9607A603B60AC
:101F90000346FB734FF6F573FB82464B1B6803F554
:101FA000CE73184601F01AFB424B1B6803F29D13D7
:101FB000184622211122002306F02EF83D4B1B6803
:101FC00093F8A1311A46FB7B03F00F0342FA03F3A7
:101FD00003F00103002B09D0364B1B6803F5CE73C9
:101FE000184601F029FB4FF6FF735DE0314B1B688B
:101FF00093F89B31022B1DD82E4B1B6893F8A03110
:102000001A46FB7B03F00F0342FA03F303F00103CC
:10201000002B08D0274B1B6803F5CE73184601F040
:102020000BFBFB8A40E0234B1B6803F29D13184611
:1020300001F0AEFA1F4B1B6893F89B31022B0DD9B0
:1020400000BF1C4B1B680433184601F0C7FA194B3C
:102050001B6893F89B31022B09D807E0154B1B68CE
:1020600003F5CE73184601F0E7FA96E7FEE7114B49
:102070001B6893F89B21013AD2B283F89B210D4B48
:102080001B6803F5CE73184601F0D6FAB8683968B4
:102090007A6800F011F80346FB82064B1B68043394
:1020A000184601F0C9FAFB8A1BB218461837BD461C
:1020B00080BD00BFC419002080B58AB000AFF860B1
:1020C000B9607A60002387F82730FB68002B00D1C5
:1020D000FEE77D4B1B68FA68C3F8A4217A4B1B68A6
:1020E0007A68C3F8A821784B1B68BA68C3F8AC219A
:1020F000754B1B68FA681288DA80734B1A68BB68E4
:10210000002B10D0FB689B7803339BB223F00303B2
:1021100099B2BB681B8803339BB223F003039BB2C5
:102120000B449BB206E0FB689B7803339BB223F021
:1021300003039BB21381BB68002B1ED0BB685B8876
:102140001BB2002B19DABB681B88002B15D0BB68AB
:102150005B889BB25B429BB29AB2BB685A800123F8
:1021600087F82730584B1B68574A12681189BA689C
:10217000528892B20A4492B21A810423BB84524B11
:102180001B681B681A46B7F9243010464F491A4697
:1021900003F078FA03467B84B7F92420B7F922309C
:1021A0009A4200D0FEE704233B84474B1B681B6820
:1021B0001946454B1B689A1DB7F920300846114651
:1021C0001A4603F05FFA0346FB83B7F92020B7F9FC
:1021D0001E309A4200D0FEE77B68002B1FD0FB68C0
:1021E0009B78002B1BD0FB689B7803339BB29BB280
:1021F00023F00303BB83344B1B681B681A46B7F9F3
:102200001C30104679681A4603F03CFA03467B837B
:10221000B7F91C20B7F91A309A4200D0FEE797F8B8
:102220002730012B1ED1BB685B889BB203339BB266
:102230009BB223F003033B83234B1B681B681946A7
:10224000BB68DA68B7F91830084611461A4603F039
:1022500019FA0346FB82B7F91820B7F916309A42EB
:1022600000D0FEE7BB68002B28D0BB681B88002B82
:1022700024D0FB689B7803F00303002B00D0FEE71B
:10228000BB681B8803339BB29BB223F00303BB8262
:102290000D4B1B681B681946BB689A68B7F9143068
:1022A000084611461A4603F0EDF903467B82B7F95A
:1022B0001420B7F912309A4200D0FEE700231BB277
:1022C00018462837BD4680BDC4190020CCED000853
:1022D00080B596B000AF0023FB64082387F8533025
:1022E000AB4B1B680022C3F8B021A94B1B6800222E
:1022F000C3F8B82107F10C02FB1D1046194600F087
:10230000CFFC0346A7F84A30B7F94A30002B00D07B
:10231000FEE707F10C031B88A7F8483007F10C0310
:102320005B88043BA7F84630B7F84830082B21D02B
:10233000974B1B6807F10C02127983F89B21944B91
:102340001B6807F10C02D27983F8A021904B1B681F
:1023500007F10C02927983F8A1218D4B1B6893F849
:102360009B31012B06D98A4B1B6803F29D1318463B
:1023700001F022F9B7F84830184600F02DFC844BE4
:102380001B6893F8BC3187F8453097F84530012B2E
:1023900000F0D481022B03D0002B00F0AA80DBE2F6
:1023A000FB6C002B00D0FEE7794B1B68794AC3F821
:1023B000B021774B1B68D3F8B031FB64F86CA821CF
:1023C00001F064F9FB6C002B00D1FEE7FB6C1A46B0
:1023D00007F10C0303CB10605160B7F846300333AC
:1023E00023F00303A02B08DCB7F8463003339BB27D
:1023F00023F00303A7F8543002E0A023A7F85430D9
:10240000B7F84630002B1BD0B7F85430A7F842304D
:102410005F4B1B681B681946FB6C03F10802B7F998
:102420004230084611461A4603F086F90346A7F8DB
:102430004030B7F94220B7F940309A4200D0FEE769
:10244000B7F84630033323F00303A02B2BDDB7F896
:10245000463003339BB223F003039BB2A03BA7F8A3
:1024600054301CE00423FB87494B1B681B6819464A
:10247000B7F93E3007F10802084611461A4603F044
:102480005BF90346BB87B7F93E20B7F93C309A4267
:1024900000D0FEE7B7F85430043BA7F85430B7F843
:1024A0005430002BDED101F0ADF8B7F8482041F2EE
:1024B00003039A420BD0B7F8482041F203239A4213
:1024C00005D0B7F8482041F206039A4206D1FB6CCA
:1024D00008339B7803F00F0387F85330B7F8482090
:1024E00097F853301046194600F09CFF01F0B6F8FB
:1024F00032E2B7F8483041F20B02934204D041F285
:102500000B22934204D007E00C2387F8523006E0F8
:10251000182387F8523002E0042387F8523004234E
:102520007B871B4B1B681B681946B7F93A3007F1CC
:102530000C020432084611461A4603F0FDF8034621
:102540003B87B7F93A20B7F938309A4200D0FEE716
:1025500007F10C0304339B7803F00F03072B00DD16
:10256000FEE701F04FF807F10C0304339B7803F00A
:102570000F03DBB2B7F848201046194600F052FFAF
:102580000346FB86B7F93630002B05D0FEE700BFC7
:10259000C4190020FC310020A14B1968A04B1B6816
:1025A00093F8B4311A4613465B0013449B000B4466
:1025B00010335B681A6807F10C03043310461946A0
:1025C000042208F0A1F997F85230042B29D997F882
:1025D00052309BB2043B9BB2BB86914B1B681B687D
:1025E00019468F4B18688E4B1B6893F8B4311A4606
:1025F00013465B0013449B00034410335B681B6865
:102600001A1DB7F93430084611461A4603F094F8FB
:1026100003467B86B7F93420B7F932309A4200D0AE
:10262000FEE707F10C0304331B881BB2002B72DD9D
:1026300007F10C0304331B889BB203F00303A7F8D4
:10264000563007F10C0304331B889BB223F00303BD
:10265000A7F85430B7F85430032B25D9B7F85430C5
:102660003B866F4B1B681B6819466D4B18686C4B9B
:102670001B6893F8B4311A4613465B0013449B0061
:10268000034410335B685A68B7F930300846114686
:102690001A4603F051F80346FB85B7F93020B7F925
:1026A0002E309A4200D0FEE7B7F85630002B32D0D9
:1026B0000423BB855A4B1B681B681946B7F92C309D
:1026C00007F10802084611461A4603F035F803469A
:1026D0007B85B7F92C20B7F92A309A4200D0FEE763
:1026E0004F4B19684E4B1B6893F8B4311A4613468A
:1026F0005B0013449B000B4410335B685A68B7F8C7
:102700005430D118B7F8563007F108020846114680
:102710001A4608F0F9F8424B1968414B1B6893F8C8
:10272000B4311A4613465B0013449B0010330B442C
:10273000184600F041FF00F091FF0DE1384B1B6897
:10274000D3F8A431DB7803339BB29BB223F00303AD
:102750003B85334B1B681B681946314B1B68D3F80C
:10276000A821B7F92830084611461A4602F0E4FFBE
:102770000346FB84B7F92820B7F926309A4200D0E7
:10278000FEE7274B1B68D3F8AC31002B00F0E38049
:10279000234B1B68D3F8AC315B88002B00F0DB8047
:1027A00007F10C035A881E4B1B68D3F8A431DB7861
:1027B000D31A9BB2043B9BB2A7F85030184B1B684E
:1027C000D3F8AC31B7F850209A80B7F95030002BCD
:1027D00006DC134B1B68D3F8AC3100225A80BAE0F8
:1027E0000F4B1B68D3F8AC315B88B7F950201BB294
:1027F0009A4217DD0A4B1B68D3F8AC315B889BB259
:1028000003F00303A7F85630054B1B68D3F8AC312F
:102810005B889BB223F00303A7F854300EE000BF9F
:10282000C4190020B7F8503003F00303A7F856305E
:10283000B7F8503023F00303A7F85430B7F85430FA
:10284000032B1BD9B7F85430BB84544B1B681B684F
:102850001946524B1B68D3F8AC31DA68B7F924300B
:10286000084611461A4602F067FF03467B84B7F913
:102870002420B7F922309A4200D0FEE7B7F856304C
:10288000002B2ED004233B84444B1B681B68194645
:10289000B7F9203007F10802084611461A4602F03F
:1028A0004BFF0346FB83B7F92020B7F91E309A424D
:1028B00000D0FEE7394B1B68D3F8AC31DA68B7F8C3
:1028C0005430D118B7F8563007F1080208461146BF
:1028D0001A4608F019F8B7F85030043B9BB2A7F835
:1028E00050302E4B1B68D3F8AC315B88B7F95020C1
:1028F0001BB29A422FDDB7F85020284B1B68D3F843
:10290000AC315B889BB223F003039BB2D31AA7F8C8
:1029100054301CE00423BB83204B1B681B68194602
:10292000B7F91C3007F10802084611461A4602F0B2
:1029300003FF03467B83B7F91C20B7F91A309A428C
:1029400000D0FEE7B7F85430043BA7F85430B7F88E
:102950005430002BDED100BFFB79002B17D0FB7960
:102960003B830E4B1B681B681946B7F9183007F1FB
:102970000C02084611461A4602F0DEFE0346FB82B0
:10298000B7F91820B7F916309A4200D0FEE70023B5
:102990001BB218465837BD4680BD00BFC419002081
:1029A00080B584B000AF0023FB600023FB720023DE
:1029B0007B60234B1B68D3F8B0313B60204B1B6816
:1029C000D3F8B831002B00D136E00023BB7213E0FE
:1029D000BA7A1C4B33F822203B681B889A4208D1F4
:1029E000BB7A184A9B0013449B78FB600123FB725F
:1029F00005E0BB7A0133BB72BB7A0E2BE8D9FB7AB8
:102A0000002B0AD10E4B1B68D3F8B8310C4A126860
:102A1000D2F8B021104698470EE0094B1B68D3F856
:102A2000B03104337B607B68FA681A60044B1B6822
:102A3000D3F8B831786898471037BD4680BD00BFDD
:102A4000C419002010EE000880B582B000AF44E049
:102A5000324B1B6893F89F21314B1B78DBB29A42B3
:102A600034D0FFF735FC0346FB80B7F90630002B66
:102A700000D0FEE7294B1B6893F89F210132D2B2A8
:102A800083F89F21254B1B6893F8BC31012B0FD194
:102A9000224B1B68002283F89A21204B1B6803F20B
:102AA0009913184622211122002305F0B5FA14E0EB
:102AB0001A4B1B6893F8BC31022B0ED1FFF770FF45
:102AC000164B1B680022C3F8B02106E0134B1B68AD
:102AD00003F29913184600F05BFD104B1B6893F846
:102AE0009A31012BB4D00D4B1B680433184600F00B
:102AF000A3FD0A4B1B6893F89F21094B1B78DBB29F
:102B00009A4204D007480021002205F0ADFA0023C4
:102B10001BB218460837BD4680BD00BFC41900204F
:102B200030300020292B000880B584B000AF7860D9
:102B3000274B1B680433184600F050FD244B1B68DC
:102B400093F89F21234B1B78DBB29A4207D1204B8D
:102B50001B680433184600F06FFD002333E0FFF7D5
:102B6000B7FB0346FB81B7F90E30002B00D0FEE720
:102B7000174B1B6893F89F210132D2B283F89F2133
:102B8000134B1B6893F8BC31022B04D0032B12D0DB
:102B9000002B10D00EE00E4B1B68D3F8B031002B89
:102BA00000D1FEE7FFF7FCFE094B1B680022C3F8CB
:102BB000B02101E0FEE700BF054B1B680433184657
:102BC00000F03AFD00231BB218461037BD4680BD09
:102BD000C41900203030002080B485B000AF034617
:102BE000FB800023FB600123FB72FB8803F48063FE
:102BF0009BB2002B3DD1FB88632B02D10323FB72D8
:102C000037E0FA8841F20A039A4209D0FA8841F281
:102C10000B039A4204D0FA8841F20B239A4202D164
:102C20000023FB7225E00223FB72FB88DB0A9BB2C8
:102C3000DBB203F00703BB72BB7A072B00D9FEE7B8
:102C4000BA7A134B53F82230FB60FA8841F62E0310
:102C50009A4204D0FA8841F630039A4202D10D4BD1
:102C6000FB6006E0FA8841F622039A4201D10A4B42
:102C7000FB600A4B1B68FA7A83F8BC21074B1B6880
:102C8000FA68C3F8B8211437BD465DF8047B704775
:102C90004CEE0008C1100008950F0008C419002070
:102CA00080B58CB000AF786039600023FB620423EC
:102CB0003B859D4B1B681B681A46B7F928301046A8
:102CC0009A491A4602F0DEFC0346FB84B7F9282035
:102CD000B7F926309A4200D0FEE70423BB84924B1A
:102CE0001B681B681A46B7F92430104679681A46E3
:102CF00002F022FD03467B84B7F92420B7F9223085
:102D00009A4200D0FEE740E0FB6AB3F5FA6F00D3C9
:102D1000FEE7FB6A03F00303002B17D104233B8477
:102D2000814B1B681B6819467B681A1DB7F9203058
:102D3000084611461A4602F0FFFC0346FB83B7F92A
:102D40002020B7F91E309A4200D0FEE7002387F812
:102D50002B300FE097F82B307A68134497F82B202C
:102D6000013279680A4412781A7097F82B300133CF
:102D700087F82B3097F82B30062BEBD97B6807337D
:102D800000221A70FB6A0133FB627B681B6803F048
:102D90000403002B0FD07B681B6823F0802222F0F5
:102DA0008002614B1B6893F89E3103F00301604B76
:102DB0000B439A420ED07B681B6803F00403002B80
:102DC000A2D17B681B6823F0802323F08003594A3B
:102DD000934299D1FB6A03F00303FB62FB6A002B69
:102DE0001FD07B685A687B681A60FB6ABB834E4BB6
:102DF0001B681B681946FB6AC3F104037A681A440E
:102E0000B7F91C30084611461A4602F095FC0346F5
:102E10007B83B7F91C20B7F91A309A4200D0FEE73D
:102E200015E004233B83404B1B681B681A46B7F927
:102E30001830104679681A4602F07EFC0346FB8281
:102E4000B7F91820B7F916309A4200D0FEE715E01E
:102E500004233B82344B1B681B681A46B7F91030B9
:102E6000104679681A4602F067FC0346FB81B7F901
:102E70001020B7F90E309A4200D0FEE77B681B683D
:102E800003F00403002B0FD07B681B6823F0802223
:102E900022F08002244B1B6893F89E3103F003015B
:102EA000234B0B439A42D3D07B681B6803F0040387
:102EB000002B08D17B681B6823F0802323F080035C
:102EC0001C4A9342C4D0184B1B6893F89E210132D0
:102ED000D2B283F89E210423BB82134B1B681B686C
:102EE00019467B681A1DB7F91430084611461A4670
:102EF00002F022FC03467B82B7F91420B7F91230A6
:102F00009A4200D0FEE7FB6A002B04D0FB6AC3F1B3
:102F10000403DBB200E000233A68137000231BB205
:102F200018463037BD4680BDC4190020D4ED0008D6
:102F30003C5CCD2B3A5CCD2B80B58CB000AFF860FB
:102F4000B9607A60194B1B6893F89A3187F82F3073
:102F5000164B1B6803F5D27307F110021046194691
:102F60001C2207F0D1FC114B1B68002283F89A2128
:102F7000F8687968BA68FFF79FF80346BB850B4B82
:102F80001B6897F82F2083F89A21084B1B6803F5DC
:102F9000D27207F11003104619461C2207F0B4FC48
:102FA000BB8D1BB218463037BD4680BDC41900200A
:102FB00080B584B000AF02460B46FA71BB71202386
:102FC000FB7300F01FFB624B1B6893F890311F2BC3
:102FD00025D85F4B1B6893F89031FB735C4B1968E5
:102FE000FA7B13465B0013449B000B4418339B7819
:102FF0001F2B0ED8564B1968554B1868FA7B134691
:103000005B0013449B00034418339B7881F8903194
:1030100009E04F4B1B68202283F8902103E000F069
:103020001DFBFB7B8FE04A4B1968FA7B13465B0064
:1030300013449B000B441833FA791A70BB79072BA1
:103040000BD8434B1968FA7B13465B0013449B0073
:103050000B441833BA795A7024E023E03C4B1868CB
:10306000FA7B3B4B1B6893F8911113465B001344AA
:103070009B00034418330A469A70354B1B68FA7B51
:1030800083F8912100F0EAFA314B1968FA7B134674
:103090005B0013449B0010330B44184600F078FA91
:1030A00000F0B0FABB79072B0AD8294B1B68D3F87C
:1030B0009421BB79012101FA03F31340002BCDD1F8
:1030C000234B1B68D3F89421FB79012101FA03F308
:1030D0001340002B02D0BB79082BBFD0BB79072B44
:1030E0000DD81B4B1B681A4A1268D2F89411BA7992
:1030F000012000FA02F20A43C3F894210CE0144BB9
:103100001B68134A1268D2F89411FA79012000FA68
:1031100002F20A43C3F894210D4B1868FA7B0C4B5A
:103120001B6893F8921113465B0013449B00034401
:1031300018330A469A70064B1B68FA7B83F8922173
:1031400000F08CFAFB7B18461037BD4680BD00BFEF
:10315000C419002090B585B000AF0346FB7100F0A4
:1031600051FA7C4B1B6893F89131FB736CE0794BFF
:103170001968FA7B13465B0013449B000B44183319
:103180001978744B1868FA7913465B0013449B0056
:10319000034418331B7899424BD16E4B1968FA7B64
:1031A00013465B0013449B000B4418335B7803F019
:1031B0000F03082B27D0674B1968FA7913465B0079
:1031C00013449B000B4418335B7803F00F03072B69
:1031D0002FDC604B1968FA7B13465B0013449B009D
:1031E0000B4418335B7819465A4B1868FA79134622
:1031F0005B0013449B00034418335B784B4003F09F
:103200000F03002B15D1534B1B6803F29112FB7B6C
:103210001046194600F0A0F84E4B1968FA7B134689
:103220005B0013449B0010330B44184600F0C4F9B4
:103230000DE0484B1968FA7B13465B0013449B0072
:103240000B4418339B78FB73FB7B1F2B8FD9414BAF
:103250001968FA7913465B0013449B000B4418333A
:103260005B7803F00F03072B19DC3A4B1968394BD5
:103270001B68D3F89401374B1C68FA7913465B003E
:1032800013449B00234418335B7803F00F0301229F
:1032900002FA03F3DB430340C1F8943116E02D4BEF
:1032A00019682C4B1B68D3F894012A4B1C68FA79D7
:1032B00013465B0013449B00234418331B78012200
:1032C00002FA03F3DB430340C1F89431214B196840
:1032D000FA7913465B0013449B000B441033002221
:1032E0005A601C4B1968FA7913465B0013449B0023
:1032F0000B44183300221A70164B1968FA791346DA
:103300005B0013449B000B44183308225A70114B86
:103310001B6803F5C972FB791046194600F01CF8CA
:103320000C4B1868FA790B4B1B6893F890111346F5
:103330005B0013449B00034418330A469A70054B04
:103340001B68FA7983F8902100F088F91437BD469C
:1033500090BD00BFC419002090B484B000AF786065
:103360000B46FB702E4B19687B681B781A46134678
:103370005B0013449B000B4418339B78202B03D134
:103380007B6820221A7046E07B681B78FA789A42A4
:103390000CD1234B1968FA7813465B0013449B0049
:1033A0000B4418339A787B681A7034E07B681B787A
:1033B000FB732DE01A4B1968FA7B13465B0013442C
:1033C0009B000B4418339B78FA789A4215D1144B22
:1033D0001868FA7B124B1C68F9780B465B000B44AB
:1033E0009B0023441833997813465B0013449B00D9
:1033F000034418330A469A700DE0094B1968FA7BAA
:1034000013465B0013449B000B4418339B78FB73FB
:10341000FB7B1F2BCED91037BD4690BC704700BF39
:10342000C419002080B485B000AF02460B46FA8074
:103430007B71554B1B6893F89231FB7397E0524BAD
:103440001968FA7B13465B0013449B000B44183346
:103450005B78DBB25BB2002B03DAFB8823F40073EA
:10346000FB80494B1968FA7B13465B0013449B00B1
:103470000B4418331B780F2B22D1434B1968FA7B6E
:1034800013465B0013449B000B4418335B787A7936
:103490009A4215D1FA8841F20A039A4209D0FA8871
:1034A00041F20B039A4204D0FA8841F20B239A426C
:1034B00006D1354B1B68FA7B83F8B42100235CE00E
:1034C000314B1968FA7B13465B0013449B000B4495
:1034D00018331B78083B2D4ADB0013445B88FA88BD
:1034E0009A4239D17979284B1868FA7B13465B00E8
:1034F00013449B00034418335B7803F00F03994295
:1035000002D17B79072B0DD91F4B1968FA7B134623
:103510005B0013449B000B4418335B7803F00F03EC
:10352000082B19D1184B1968174B1868FA7B1346EA
:103530005B0013449B00034418331B78083B134A79
:10354000DB0013445B68C1F8B8310F4B1B68FA7B92
:1035500083F8B421002310E00B4B1968FA7B134663
:103560005B0013449B000B4418339B78FB73FB7B7D
:103570001F2B7FF664AF4FF6FD731BB2184614374E
:10358000BD465DF8047B7047C4190020D8ED0008E3
:1035900080B584B000AF7860786822211122FF23C3
:1035A00004F03AFD0346FB81B7F90E30002B00D042
:1035B000FEE71037BD4680BD80B584B000AF7860AF
:1035C0007868222104F016FD0346FB81B7F90E301E
:1035D000002B00D0FEE71037BD4680BD80B584B01B
:1035E00000AF7860786833214422FF2304F014FD93
:1035F0000346FB81B7F90E30002B00D0FEE71037F1
:10360000BD4680BD80B582B000AF0A4B1B6803F594
:10361000CC73184633214422FF2304F0FDFC0346FB
:10362000FB80B7F90630002B00D0FEE70837BD4617
:1036300080BD00BFC419002080B584B000AF7860A1
:103640007868332104F0D6FC0346FB81B7F90E30CD
:10365000002B00D0FEE71037BD4680BD80B582B09C
:1036600000AF094B1B6803F5CC731846332104F0F7
:10367000C1FC0346FB80B7F90630002B00D0FEE703
:103680000837BD4680BD00BFC419002080B582B098
:1036900000AF78600B467B807B88786800211A46F3
:1036A00007F0CCF90837BD4680BD00BF80B582B0B9
:1036B00000AF786078681021FFF7E8FF0837BD4653
:1036C00080BD00BF80B58AB000AF7860396000234C
:1036D0007B6200233B620023FB610023BB617B68AC
:1036E0001B8A9BB27B627B6A23F440537B623B68FC
:1036F000DB887A6A13437B627B6A9AB27B681A82A0
:103700007B689B899BB27B627B6A23F4B05323F076
:103710000C037B623B689A883B681B8913439AB20F
:103720003B685B8913439BB27A6A13437B627B6A73
:103730009AB27B689A817B689B8A9BB27B627B6A28
:1037400023F440737B623B689B897A6A13437B62F4
:103750007B6A9AB27B689A8207F10803184601F0E7
:1037600031FC7A68314B9A4203D07A68304B9A42E6
:1037700002D17B693B6201E03B693B627B689B89CC
:103780009BB29BB21BB2002B0CDA3A6A13469B0029
:1037900013449A001A443B681B685B00B2FBF3F3C6
:1037A000FB610BE03A6A13469B0013449A001A44EB
:1037B0003B681B689B00B2FBF3F3FB61FA691D4B8E
:1037C000A3FB02135B091B017B627B6A1B0964225A
:1037D00002FB03F3FA69D31ABB617B689B899BB236
:1037E0009BB21BB2002B0DDABB69DB0003F1320286
:1037F000104BA3FB02135B0903F007037A6A134320
:103800007B620CE0BB691B0103F13202094BA3FB95
:1038100002135B0903F00F037A6A13437B627B6A2E
:103820009AB27B681A812837BD4680BD00100140DE
:10383000001401401F85EB5180B483B000AF786065
:103840000B46FB70FB78002B08D07B689B899BB2F2
:1038500043F400539AB27B689A8107E07B689B89A6
:103860009BB223F400539AB27B689A810C37BD4611
:103870005DF8047B704700BF80B483B000AF786010
:103880000B467B807B88C3F308039AB27B689A80DF
:103890000C37BD465DF8047B704700BF80B483B031
:1038A00000AF78607B689B889BB2C3F308039BB230
:1038B00018460C37BD465DF8047B704780B483B072
:1038C00000AF786013460A467A807B707B78002BC5
:1038D00008D07B689B8A9AB27B8813439AB27B6834
:1038E0009A8209E07B689B8A9AB27B88DB439BB211
:1038F00013409AB27B689A820C37BD465DF8047B10
:10390000704700BF80B487B000AF786013460A46A6
:103910007A807B7000233B610023FB600023BB6047
:1039200000237B617B687B617B88DBB25B09DBB258
:103930003B617B8803F01F03FB60FB68012202FAF6
:1039400003F3BB603B69012B03D17B690C337B61C3
:1039500009E03B69022B03D17B6910337B6102E0F4
:103960007B6914337B617B78002B06D07B697A6995
:103970001168BA680A431A6006E07B697A691168BF
:10398000BA68D2430A401A601C37BD465DF8047B12
:10399000704700BF80B487B000AF78600B467B8073
:1039A0000023FB6000237B610023BB600023FB74CA
:1039B0007B88DBB25B09DBB2BB607B8803F01F0353
:1039C0007B617B69012202FA03F37B61BB68012BF7
:1039D00006D17B689B899BB27A6913407B610FE0BB
:1039E000BB68022B06D17B681B8A9BB27A691340A5
:1039F0007B6105E07B689B8A9BB27A6913407B619F
:103A00007B881B0A9BB2FB60FB68012202FA03F36E
:103A1000FB607B681B889BB2FA681340FB607B6984
:103A2000002B05D0FB68002B02D00123FB7401E0C2
:103A30000023FB74FB7C18461C37BD465DF8047BF5
:103A4000704700BF80B582B000AF0023FB71644BAC
:103A500001221A700F200021FCF764FF38603B68D8
:103A600003F08003002B1CD05E4B1B78002B0CD086
:103A70000F200021FA22FCF7ABFF5B4B1B78022BD7
:103A80000AD1594B01221A7006E0574B1B78022BC2
:103A900002D1554B00221A7003F048FD0123FB713F
:103AA00094E03B6803F4C043002B48D04F4B1B68A5
:103AB0005A1C4E4B1A603B6803F48063002B36D0CF
:103AC0004B4B1B78002B0DD03B6803F48013002B6D
:103AD00008D00D2003210122FCF78EFF012000F009
:103AE000DDF973E00F200021424AFCF75FFF404BF5
:103AF0001B78002B02D13C4B00221A7003F0B8FD5A
:103B00003B4B1B78002B09D0374B1B78022B05D081
:103B10000D2003210122FCF76FFF05E0324B1B78DB
:103B2000002B01D100F0D4F80123FB714EE00120FD
:103B300000F0B4F900F064F800F0CAF846E03B6821
:103B400003F40813002B03D0012000F0A7F93DE097
:103B50003B6803F40043002B10D0254B1B78002B4F
:103B600005D00D2003210122FCF746FF2EE0224B59
:103B70001B78002B2AD100F0ABF827E03A681F4BE6
:103B80001340002B22D01A4B1B78002B18D03B6817
:103B900003F48013002B0CD0154B1B78002B04D0A2
:103BA0000D2003210122FCF727FF012000F076F908
:103BB0000CE0114B1B78002B08D100F089F805E0D0
:103BC0000D4B1B78002B01D100F082F8044B002232
:103BD0001A70FB799BB218460837BD4680BD00BFFE
:103BE000161A0020141A0020151A0020D8190020D7
:103BF000111A002000EF2724131A00200090272418
:103C000080B584B000AF01F0B3FB0E20002100228C
:103C1000FCF7CCFE2A4B1B78002B0AD00F20022188
:103C2000FCF7ACFE034603F01003002B01D0012388
:103C300000E00023FB730D2000214022FCF7DCFE96
:103C4000204B00221A70FB7B002B0ED00D2003218D
:103C50000122FCF7D1FE36200321E022FCF7CCFE46
:103C600036200321F022FCF7C7FE0D20032101229C
:103C7000FCF7C2FE0F200021FCF754FEB860BB68C1
:103C80001B0EFB71FB7903F08002FB7903F040030C
:103C90005B009A4204D00D2003210122FCF7ACFE08
:103CA0000F200021084AFCF781FE0E200021074A60
:103CB000FCF77CFE01F046FB1037BD4680BD00BF1F
:103CC000111A0020151A0020FAEF272480B02724AB
:103CD00080B582B000AF1A4B1B78002B0BD00F20A1
:103CE0000221FCF74BFE034603F01003002B02D029
:103CF000FFF786FF13E00F200321FCF73FFE03468A
:103D0000FB71FB7903F08002FB7903F040035B0059
:103D10009A4204D00D2003210122FCF76DFE094BCD
:103D200001221A700F200021074AFCF73FFE0D20E8
:103D300000214FF48072FCF74BFE0837BD4680BD72
:103D4000111A0020151A0020FEFFFF3F80B500AFBA
:103D5000064B1B78022B06D0FFF752FF034B0222C3
:103D60001A70012300E00023184680BD151A0020B8
:103D70002DE9B04F84B000AFC7E90001444909788C
:103D800002297ED1D7E9000150EA010C54D000216C
:103D90003972D7E900014FEA102848EA01684FEA72
:103DA00011295FFA88F121F00101C9B27972D7E9CE
:103DB0000001040C44EA01440D0CE1B2B972D7E9E8
:103DC0000001020E42EA01220B0ED3B2FB72D7E9C8
:103DD00000239A464FF0000B5FFA8AF33B7307F11A
:103DE00008030A2005211A460023FCF77FFE294B11
:103DF0001B78002B0FD0284B1B78002B05D00D20F3
:103E000000218622FCF7E4FD15E00D200021872229
:103E1000FCF7DEFD33E0204B1B78002B05D00D2096
:103E200000210622FCF7D4FD05E00D200021072229
:103E3000FCF7CEFD23E022E0164B1B78002B0FD0C1
:103E4000154B1B78002B05D00D2000218222FCF79A
:103E5000BFFD14E00D2000218322FCF7B9FD0EE028
:103E60000D4B1B78002B05D00D2000210222FCF702
:103E7000AFFD04E00D2000210322FCF7A9FD012382
:103E800000E0002318461037BD46BDE8B08F00BFE4
:103E9000151A0020141A00200F1A002080B582B0D5
:103EA00000AF0346FB710C4B1B78002B01D0FFF7D2
:103EB000A7FE36200321E022FCF79EFD36200321D9
:103EC000F022FCF799FDFB79002B01D0FFF700FFF2
:103ED0000837BD4680BD00BF151A00202DE9B04F40
:103EE00084B000AF07F10803172005211A4600230C
:103EF000FCF796FD3B7AD8B24FF000017B7ADAB23C
:103F00004FF000034FEA032B4BEA126B4FEA022AF1
:103F100040EA0A0041EA0B01BB7ADAB24FF0000333
:103F20004FEA034949EA12494FEA024840EA0800C9
:103F300041EA0901FB7ADAB24FF000031D0645EAB7
:103F40001225140640EA040241EA0503397BC8B28F
:103F50004FF000018446C7F804C000203860D7E95C
:103F6000000142EA000243EA0103104619461037F5
:103F7000BD46BDE8B08F00BF2DE9B04F84B000AFA3
:103F800007F10803152005211A460023FCF748FD18
:103F90003B7AD8B24FF000017B7ADAB24FF00003DF
:103FA0004FEA032B4BEA126B4FEA022A40EA0A005F
:103FB00041EA0B01BB7ADAB24FF000034FEA034942
:103FC00049EA12494FEA024840EA080041EA090179
:103FD000FB7ADAB24FF000031D0645EA12251406FB
:103FE00040EA040241EA0503397BC8B24FF0000100
:103FF0008446C7F804C000203860D7E9000142EACF
:10400000000243EA0103104619461037BD46BDE8D9
:10401000B08F00BF0000000080B584B000AF122058
:104020000621FCF795FC0346184605F0D1FF024631
:104030000B46104619464FF000024FF0824306F03F
:104040003DF802460B46C7E9022310200221FCF787
:104050007FFC03461B099BB2184605F0C9FF0246C8
:104060000B4643EC102B9FED301B04F069FAB0EEC9
:10407000407AF0EE607A87ED007B314B1B78012BA4
:1040800024D1D7E90201D7E9002306F041F902461D
:104090000B4643EC172BB0EE470AF0EE670A04F02C
:1040A000D3F953EC102B104619464FF00002254B64
:1040B00006F004F802460B46104619461CA3D3E945
:1040C000002305F047FE02460B4623E0D7E9020134
:1040D000D7E9002306F01CF902460B4643EC172BE8
:1040E000B0EE470AF0EE670A04F0AEF953EC102B7D
:1040F000104619464FF00002124B05F0DFFF024652
:104100000B46104619460CA3D3E9002305F022FE06
:1041100002460B4643EC172BB0EE470AF0EE670A57
:104120001037BD4680BD00BF000000000000004009
:10413000AE47E17A14EE5C408FC2F5285C6F5E40BA
:104140000A1A00200000244080B584B000AF01F0BE
:10415000EDF8F860344B1B68FA689A4203D2324B90
:10416000FA681A6054E0304B1B68FA68D31AB3F54A
:104170007A7F4DD32C4BFA681A602A200421FCF771
:10418000FDFB0346FB722A2000210022FCF734FCD1
:104190002A2000210122FCF72FFC244B1B78FA7AFD
:1041A0009A4235D0FA7A224B1B78D31A184605F07A
:1041B0001FFF02460B461046194619A3D3E90023F8
:1041C00005F07CFF02460B46104619464FF00002F0
:1041D000184B05F0C1FD02460B4643EC172BB0EE21
:1041E000470AF0EE670A04F0E3F853EC102B104690
:1041F000194606F0FDF903467B607B6813F1280F32
:1042000006DB7B68502B03DC7B68DAB20A4B1A7042
:10421000094B1B7818461037BD4680BDAFF30080B0
:104220003D0AD7A3703DF23FD4190020DD190020CC
:10423000DC19002000003740D0190020AFF30080C7
:1042400080B584B000AF0346FB800023FB60FB8891
:10425000632B39D0FB881BB21846FBF7DDFF034602
:10426000FB60FB68002B2FD1FB880F2B02D9FB884A
:10427000103BFB80FA88174B53F82230164819463A
:1042800003F07AFFFA88134B632143F82210FB886E
:104290001A01124B134418460021102206F0CEFBDF
:1042A000FA880F4B002123F81210FA880D4B0021D9
:1042B00043F82210FA880C4B002143F82210FA88A8
:1042C0000A4B002143F82210632318461037BD46DD
:1042D00080BD00BF04000020B41801085C3B002032
:1042E000F01900202CDC0020048C002054DC00207D
:1042F00090B58BB002AF0023FB600023BB610023AD
:104300007B610023BB6000233B61784B00221A6075
:10431000764B4FF4FA725A601023FB807448FCF716
:10432000F5FA7448FCF7F2FA7348FCF7EFFA002349
:10433000FB832CE0FA8B714B53F82230632B23D094
:10434000FA8B6E4B53F822309BB21BB21846684969
:10435000FCF7AAFAFA8B694B53F822309BB21BB2D6
:1043600018466449FCF7A0FAFA8B644B53F82230E4
:104370009BB21BB218466049FCF796FAFA8B3B6970
:104380009A4201D9FB8B3B61FB8B0133FB83FB8B97
:10439000092BCFD93B699BB201339BB29BB21BB2B5
:1043A000524A009218465249524A534BFCF7DAF9E6
:1043B0000346FB60FB68002B40F34A810023FB832C
:1043C00042E1FA8B4D4B53F82230632B00F03981D8
:1043D000FA8B4A4B53F822309BB21BB2184646491F
:1043E000FCF778FA0346002B0CD0FA8B444B53F8B9
:1043F0002230002B06D0FA8B414B53F82230FA8B37
:1044000010469847FA8B3D4B53F822309BB21BB2B3
:1044100018463749FCF75EFA0346002B00F09C80F3
:10442000FB8BDA02374B1344184600214FF400622D
:1044300006F004FBFA8B344B33F81230112B36D0D4
:10444000FF2B6BD0062B4DD1FA8B2C4B53F822301F
:104450009AB2FB8BD9022B4B0B4412B21046194671
:104460004FF400620023FCF741F90346BB61BB69CE
:10447000002B0BD1254803F0C1FEFA8B1F4B53F8DC
:1044800022309BB21846FFF7DBFE48E0FB8B1A0197
:104490001F4B1344FA8B11011E4A0A4414685068DA
:1044A0009168D2681C6058609960DA6037E0FA8BD6
:1044B000124B53F822309AB2FB8BD902114B0B44AA
:1044C000F98B08011249014412B20091B91D019102
:1044D000104619464FF400620023FBF745FF0346E0
:1044E000BB611CE00C4803F089FEAAE0FC8B0020B5
:1044F000583B002084DC0020A4320020040000206F
:1045000054DC0020FC3B0020F0190020D4180108E6
:10451000B83A00205C3B00200419010800BFBB69C9
:10452000002B19DDBB69B3F5006F15D8FA8B4C4B26
:1045300053F82230002B0FD0FA8B494B53F822400E
:10454000FB8BDA02474BD018BB6999B2FB8B1A017F
:10455000454B1A44FB8BA047FA8B444B53F822304F
:104560009BB21BB218464249FCF7B4F90346002B34
:1045700067D0FA8B3F4B53F82230002B61D0FA8B77
:104580003C4B53F82230FA8BD1023B4A1144FA8B50
:1045900008464FF400619847B860BB68002B41DDC6
:1045A000FA8B364B33F81230112B19D0FF2B38D041
:1045B000062B32D1FA8B2D4B53F8223099B2FB8B5C
:1045C000DA022D4B1A44BB689BB209B21BB20846F3
:1045D00011461A460023FBF797FF03467B6121E053
:1045E000FA8B224B53F8223099B2FB8BDA02224B22
:1045F0001A44BB689BB2F88B04011B480444F8883A
:1046000009B21BB200940190084611461A460023D5
:10461000FBF720FE03467B6103E0194803F0EEFD43
:104620000FE000BF7B69002B09DBFB8BDA02124B2A
:104630001344184600214FF4006206F0FFF90023EE
:10464000BB60FB8B0133FB83FB8B092B7FF6B9AE81
:104650000C4B00221A60FB6818462437BD4690BDFB
:104660002CDC0020FC3B0020B83A00200400002095
:1046700084DC0020048C00202C8C0020F019002009
:1046800030190108E819002080B500AF4FF4006030
:10469000012100F099FD4FF40060002100F094FD2D
:1046A00080BD00BF80B483B000AF0346FB71054BF3
:1046B000FA7902F07F021A600C37BD465DF8047B80
:1046C000704700BF002C004080B400AF034B0022B5
:1046D0009A60BD465DF8047B704700BF002C004027
:1046E00080B487B000AF78607B681B79FB737B6810
:1046F00000225A71354B1B683B613B691B79FA7B81
:104700009A421ED13A697B689A421AD03B69002BC3
:1047100017D02F4BD3E900012E4BD3E90023994248
:1047200008BF90420DD23B695B8998B24FF00001FF
:10473000284BD3E90023121843EB01032449C1E9B4
:104740000023254B1B683B613B69002B06D1234BA3
:1047500001221A70204B7A681A6032E03B691B799B
:10476000FA7B9A420CD21D4B01221A707B683A697F
:104770005A623B697A689A62174B7A681A6020E03D
:104780003B695B6A7B610AE07B691B79FA7B9A4231
:1047900000D207E07B693B617B695B6A7B617B6977
:1047A000002BF1D17B687A695A623B697A685A6258
:1047B0007B683A699A627B69002B02D07B697A68D0
:1047C0009A621C37BD465DF8047B7047981B002039
:1047D000A01B0020502D0020901B002062190020FB
:1047E00080B483B000AF78607B685B6A002B07D130
:1047F0007B689B6A002B03D11A4B00221A602BE0C6
:104800007B689B6A002B0BD17B685A6A154B1A6038
:104810007B6800225A62134B1B6800229A621BE0DD
:104820007B685B6A002B07D17B689B6A00225A6217
:104830007B6800229A620FE07B689B6A7A68526A02
:104840005A627B685B6A7A68926A9A627B68002225
:104850005A627B6800229A620C37BD465DF8047B81
:10486000704700BF901B002080B584B000AF454B5F
:104870001B68FB60444B1B68BB60BB68002B0ED001
:10488000424B1B68FA689A4209D1414B1B78DBB254
:10489000012B04D83F4B1B78DBB2002B00D06DE01E
:1048A0003D4B00221A70FB681B79FB71BB681B79BA
:1048B000BB71FB685B79012B09D0344BBA681A6075
:1048C000BB6801225A71B868FFF78AFF2CE0BA79F9
:1048D000FB799A420CD22D4BBA681A60F868FFF740
:1048E000FFFEB868FFF77CFFBB6801225A711BE02E
:1048F000FA79BB799A4216D1284BD3E90001284BAB
:10490000D3E90023994208BF90420CD11F4BBA68EB
:104910001A60F868FFF7E4FEB868FFF761FFBB684C
:1049200001225A7100E029E0184B1B681A79164BD6
:104930001B681B799A420ED1144B1B685B8998B295
:104940004FF00001164BD3E90023121843EB01038B
:104950001249C1E90023FB681A68FB68DB689A42C8
:1049600005D3FB68DB681A680E4B9A4204D0FB68DB
:104970009B79184603F08CF902F0BCF81037BD465D
:1049800080BD00BF981B0020901B0020941B0020BE
:10499000611900206019002062190020A01B00206E
:1049A000502D0020A5A55A5A80B483B000AF154BF6
:1049B0001B68FB80FB88002B05D0FB88013BFB803C
:1049C000FA88104B1A60104B1B68FB80FB88002B89
:1049D00005D0FB88013BFB80FA880B4B1A600B4B20
:1049E0001B787B717B7923F004037B717B7923F047
:1049F00002037B71054B7A791A700C37BD465DF85E
:104A0000047B7047A81B0020AC1B00204000002046
:104A100080B582B000AF134B7B60134B3B6007E067
:104A20003B681A1D3A607A68111D796012681A6035
:104A30003A680E4B9A42F3D30D480E494FF00002EC
:104A40008842B8BF40F8042BFFF6FAAFDFF8280021
:104A5000016841F47001016000F080F90837BD463B
:104A600080BD00BF0C2A010800000020DC080020E7
:104A7000E008002024E9002088ED00E080B400AFC9
:104A8000FEE700BF80B582B000AF3A4B1B78012B28
:104A900004D100F08DFF374B00221A70364B1B7883
:104AA000012B05D1FDF708F9334B00221A704EE0B7
:104AB0004DE002F017F8314B5B78304ADB001344CD
:104AC0003A46043393E8030082E803002B4B5B78FB
:104AD000591C2B4B83FB01235A10CB17D21A1346B8
:104AE0009B001344CA1AD2B2244B5A70234B1B7832
:104AF000013BDAB2214B1A7001F0ECFF3B78013B2D
:104B0000032B23D801A252F823F000BF1D4B00084D
:104B1000274B0008354B00083F4B00087B781846B0
:104B200003F020F813E07A787B681046194600F00D
:104B300085FC0CE07B78184602F004F807E07A78F0
:104B40007B681046194601F06FFF00E000BF0B4B79
:104B50001B78002BADD101F0C5FF084B1B78002B53
:104B600002D1084B00221A7001F0B4FF0837BD468D
:104B700080BD00BFE11B0020E21B0020B41B002011
:104B800067666666E01B002080B582B000AF022039
:104B9000012100F0BFFA3B46184601F0BBF80423A0
:104BA0003B6001233B7100237B710023BB71002319
:104BB000FB713B460348194601F01EF80837BD4615
:104BC00080BD00BF0004024080B582B000AF042069
:104BD000012100F09FFA3B46184601F09BF8202384
:104BE0003B6000233B7101237B710023BB710023D9
:104BF000FB713B460548194600F0FEFF04482021A2
:104C000001F0E4F80837BD4680BD00BF000802404F
:104C10000004024080B582B000AF0420012100F002
:104C200079FA3B46184601F075F84FF480733B6003
:104C300000233B7101237B710023BB710023FB71B7
:104C40003B460648194600F0D7FF05484FF48071EF
:104C500001F0BCF80837BD4680BD00BF0008024027
:104C60000004024080B400AF00E000BF044B1B68AA
:104C700003F00073002BF8D0BD465DF8047B70474D
:104C80000038024080B582B002AF00F09BF80120EE
:104C900000F0C0F800F0D0F8042300934FF4800037
:104CA0001021C022082300F0EFF8012000F00AF9DB
:104CB000FFF7D8FF002000F031F9002000F04AF99A
:104CC000002000F063F9022000F00CF906480421EE
:104CD00001F06EF84FF47A7000F0BEFC0248042137
:104CE00001F074F8BD4680BD0004024080B582B07A
:104CF00002AF00F067F8012000F08CF800F09CF89B
:104D0000072300934FF4800010214FF4A872022370
:104D100000F0BAF8012000F0D5F8FFF7A3FF00205B
:104D200000F0FCF84FF4A05000F014F94FF480505C
:104D300000F02CF9022000F0D5F80748042101F01A
:104D400037F84FF47A7000F087FC0348042101F033
:104D50003DF8BD4680BD00BF0004024080B500AFF5
:104D600001F0ECFAFFF710FFFFF72EFFFFF752FFFD
:104D700003F080FA10484FF4807100F0E5FF03461D
:104D8000002B07D1FFF77EFF642000F065FC0B4885
:104D900003F034FA0848202100F0D6FF0346012B27
:104DA00008D1FFF7A3FF642000F056FC044803F08D
:104DB00025FADFE7DEE700BF000802403C1E0108DD
:104DC0004C1E010880B400AF104B104A126842F02C
:104DD00001021A600D4B00229A600C4A0B4B1B68B3
:104DE00023F0847323F480331360084B084A5A601D
:104DF000064B064A126822F480221A60034B0022F6
:104E0000DA60BD465DF8047B704700BF00380240A1
:104E10001030002480B483B000AF0346FB71054B13
:104E200000221A70034BFA791A700C37BD465DF8F0
:104E3000047B70470238024080B582B000AF002387
:104E40003B600023FB710023BB71312000F0DAF9D5
:104E50000346BB713B6801333B603B68B3F5A06F11
:104E600002D0BB79002BF0D0312000F0CBF9034603
:104E7000002B02D00123FB7101E00023FB71FB79C1
:104E800018460837BD4680BD80B485B000AFF860D5
:104E9000B9607A603B600A4B7A689101BA68114345
:104EA0003A685208013A12041143FA681143BA6988
:104EB00012060A435A601437BD465DF8047B7047FA
:104EC0000038024080B483B000AF0346FB71044B4E
:104ED000FA791A600C37BD465DF8047B704700BF55
:104EE0006000474280B485B000AF78600023FB606B
:104EF000094B9B68FB60FB6823F00303FB60FA68C7
:104F00007B681343FB60044BFA689A601437BD4614
:104F10005DF8047B704700BF0038024080B485B064
:104F200000AF78600023FB60094B9B68FB60FB6867
:104F300023F0F003FB60FA687B681343FB60044BCB
:104F4000FA689A601437BD465DF8047B704700BF6D
:104F50000038024080B485B000AF78600023FB6069
:104F6000094B9B68FB60FB6823F4E053FB60FA6825
:104F70007B681343FB60044BFA689A601437BD46A4
:104F80005DF8047B704700BF0038024080B485B0F4
:104F900000AF78600023FB60094B9B68FB60FB68F7
:104FA00023F46043FB607B68DB00FA681343FB601B
:104FB000034BFA689A601437BD465DF8047B70476E
:104FC0000038024080B489B000AF78600023BB6134
:104FD00000237B610023FB6102233B610023FB6014
:104FE0000223BB60484B9B6803F00C03BB61BB69A9
:104FF000042B07D0082B09D0002B3FD17B68434AF4
:105000001A603FE07B68414A1A603BE03E4B5B68B8
:1050100003F480039B0DFB603B4B5B6803F03F0395
:10502000BB60FB68002B0DD0384ABB68B2FBF3F2C3
:10503000354B596847F6C0730B409B0903FB02F3DD
:10504000FB610CE0314ABB68B2FBF3F22E4B5968AE
:1050500047F6C0730B409B0903FB02F3FB612A4B2D
:105060005B6803F440331B0C01335B003B61FA695E
:105070003B69B2FBF3F27B681A6003E07B68234A6A
:105080001A6000BF204B9B6803F0F003BB61BB6953
:105090001B09BB611E4ABB6913441B78DBB27B61F1
:1050A0007B681A687B69DA407B685A60164B9B689C
:1050B00003F4E053BB61BB699B0ABB61144ABB6943
:1050C00013441B78DBB27B617B685A687B69DA40EA
:1050D0007B689A600C4B9B6803F46043BB61BB69BF
:1050E0005B0BBB610A4ABB6913441B78DBB27B6173
:1050F0007B685A687B69DA407B68DA602437BD4692
:105100005DF8047B704700BF003802400024F400C3
:105110004400002080B483B000AF78600B46FB7081
:10512000FB78002B06D0094B084A116B7A680A43BA
:105130001A6306E0054B054A116B7A68D2430A40B0
:105140001A630C37BD465DF8047B70470038024097
:1051500080B483B000AF78600B46FB70FB78002B07
:1051600006D0094B084A116C7A680A431A6406E0B3
:10517000054B054A116C7A68D2430A401A640C3711
:10518000BD465DF8047B70470038024080B483B0B0
:1051900000AF78600B46FB70FB78002B06D0094B04
:1051A000084A516C7A680A435A6406E0054B054A7E
:1051B000516C7A68D2430A405A640C37BD465DF898
:1051C000047B70470038024080B483B000AF786041
:1051D0000B46FB70FB78002B06D0094B084A116A7E
:1051E0007A680A431A6206E0054B054A116A7A6832
:1051F000D2430A401A620C37BD465DF8047B704703
:105200000038024080B487B000AF0346FB71002332
:10521000FB6000237B610023FB74FB795B09DBB23D
:10522000FB60FB68012B03D1124B1B687B6109E01B
:10523000FB68022B03D10F4B1B6F7B6102E00D4B10
:105240005B6F7B61FB7903F01F03FB60FB687A698E
:1052500022FA03F303F00103002B02D00123FB74B5
:1052600001E00023FB74FB7C18461C37BD465DF84B
:10527000047B70470038024080B500AFFFF794FB15
:1052800080BD00BF80B487B000AF78600B467B80E4
:105290000023FB7500233B610023FB607B881B0A16
:1052A0009BB23B617B685A687B88DBB2012101FAC3
:1052B00003F31340FB607B681A683B691340002BC3
:1052C00005D0FB68002B02D00123FB7501E0002311
:1052D000FB75FB7D18461C37BD465DF8047B7047A7
:1052E00080B485B000AF78600B467B800023FB73F1
:1052F0007B881B0A9BB2FB73FB7BDA437B681A60DB
:105300001437BD465DF8047B704700BF80B400AF22
:1053100072B6BD465DF8047B704700BF80B400AF35
:1053200062B6BD465DF8047B704700BF80B400AF35
:10533000034B1B681846BD465DF8047B704700BFF1
:10534000702D002080B500AF074B01229A71074BEA
:105350000122DA70044801F04DFD044801F00AFE14
:10536000FFF7DCFF80BD00BF94DC0020B0DC002034
:1053700080B500AFFFF7CAFF064B00229A71064BBB
:105380000022DA70034801F035FD034801F0F2FD18
:1053900080BD00BF94DC0020B0DC002080B582B06E
:1053A00000AF78600B467B807B68002B37D07B8812
:1053B000002B34D0FFF7AAFF1B4B02225A831B4B52
:1053C0007A885A601A4B7A885A60184B7A68DA6081
:1053D000174B7A68DA60164B154A126842F00102E0
:1053E0001A60124B114A126842F001021A60FFE77C
:1053F000104B1B6803F02463002BF9D0FFE70D4B23
:105400001B6803F42413002BF9D00A4B0A4A9A6054
:10541000054B02221A83FFF781FF7B8800E00023FF
:1054200018460837BD4680BD00040240586402405B
:1054300040640240006402400000690A80B584B004
:1054400000AF03463960FB71FB79132B01D90123AF
:1054500026E0FB791A01144B1344FB60FB685B796F
:10546000C3F30303DBB2022B01D0012318E0FB6876
:10547000DB88002B13D10D4B1B78DBB20133DAB282
:105480000A4B1A70FB683A681A60FB680122DA80DE
:10549000F86800F0DFFAFBF7A7FE002300E007231F
:1054A00018461037BD4680BDF02B00206119002042
:1054B00080B588B000AF78603960394A07F10C03D5
:1054C00007CA03C31A7007F10C03184605F084FBE2
:1054D0000346FB613B689B6800221A703B68002210
:1054E0001A717B681B79092B56D97B689968FB690F
:1054F00007F10C02084611461A4605F09DFB0346CB
:10550000002B49D17B689A68FB691344BB61B86979
:105510002449022205F090FB0346002B1AD12248B1
:10552000042100F02BFC0346012B0AD13B689B6849
:105530001E4A1188927819809A703B6802221A716B
:105540002AE03B689B681A4A106818603B6803228F
:105550001A7121E0B8691749022205F06DFB034674
:10556000002B19D11448202100F0EEFB0346012B3B
:105570000AD13B689B680D4A1188927819809A700D
:105580003B6802221A7107E03B689B68084A106872
:1055900018603B6803221A712037BD4680BD00BFEA
:1055A0006C1F01085C1F010800040240601F010815
:1055B000641F0108681F01080008024080B588B018
:1055C00000AF78603960204A07F10C0307CA03C3B3
:1055D0001A7007F10C03184605F0FEFA0346FB614A
:1055E0007B681B7B092B2CD97B681969FB6907F148
:1055F0000C02084611461A4605F01EFB0346002B16
:105600001FD17B681A69FB691344BB61B8690F49F4
:10561000022205F011FB0346002B12D17B689B6927
:1056200018460B49022205F007FB0346002B04D164
:105630000848042100F0BCFB03E00648042100F008
:10564000C5FB2037BD4680BD781F01085C1F0108DF
:10565000601F01080004024080B483B000AF78608E
:105660007B6845F2082202FB03F37B6000E000BF89
:105670007B685A1E7A60002BF9D10C37BD465DF865
:10568000047B704780B584B000AFF860B9607A6081
:10569000244B25481946002201F0C0F87B689BB2D4
:1056A0002148194601F0ACF8BB6820481946002291
:1056B00001F0B4F87B689BB21C48194601F0A0F8D1
:1056C0001B484FF4007100F081FB1748012101F0E5
:1056D0007BF81648012101F077F8FFE712484FF0F8
:1056E000C05101F0B1F80346002BF7D0FFE70F4897
:1056F000104901F0A9F80346002BF8D00C484FF4EC
:10570000007100F055FB09480A4901F0D9F8064834
:105710004FF0C05101F0D4F87B6818461037BD46F1
:1057200080BD00BFE81B002058600240706002404E
:10573000000402402000002080B584B000AFF86073
:10574000B9607A60BB6824481946002201F066F807
:105750007B689BB22048194601F052F8BB681F488D
:105760001946002201F05AF87B689BB21B48194683
:1057700001F046F81A484FF4007100F027FB164874
:10578000012101F021F81548012101F01DF8FFE782
:1057900011484FF0C05101F057F80346002BF7D0E5
:1057A000FFE70E480F4901F04FF80346002BF8D0F1
:1057B0000B484FF4007100F0FBFA0848094901F06A
:1057C0007FF805484FF0C05101F07AF87B68184621
:1057D0001037BD4680BD00BF586002407060024077
:1057E000000402402000002080B500AF07480021DF
:1057F00000F0EAFF00F010F80448054901F060F8F5
:1058000004484FF0C05101F05BF880BD7060024069
:10581000200000205860024080B582B000AF1148DF
:10582000114901F011F803467B6010484FF0C05158
:1058300001F00AF803463B607B68002B0FD03B6801
:10584000002B0CD00748084901F03AF807484FF000
:10585000C05101F035F80648712101F06FFA0837A0
:10586000BD4680BD706002402000002058600240AC
:105870000038004080B500AF044B1B68002B03D0FC
:10588000024B1B680020984780BD00BFE82B00201A
:1058900080B582B000AF154840F22551FEF77AF886
:1058A0000346002B1FD01148FDF7F8FF0346FB719C
:1058B0000F4B5A780E4B1A700D4BFA795A700C4BED
:1058C0001B78002B0FD10A4B5B78CC2B0BD1094BEB
:1058D00001221A60064BFF221A70054BFF225A70F4
:1058E000054802F08BFC0837BD4680BD001401401E
:1058F00054000020E41B00200022010880B483B083
:1059000000AF78607B689B6A002B07D17B685B6A7D
:10591000002B03D1254B00221A603DE07B689B6A77
:10592000002B14D17B685A6A204B1A607B685B6A33
:105930007A68526A116A7A68126A0A441A627B6843
:105940005B6A00229A627B6800225A6224E07B68CC
:105950005B6A002B07D17B689B6A00225A627B68D6
:1059600000229A6218E07B689B6A7A68526A5A62DF
:105970007B685B6A7A68926A9A627B685B6A7A681B
:10598000526A116A7A68126A0A441A627B680022B3
:105990005A627B6800229A627B684FF0FF321A627B
:1059A0000C37BD465DF8047B704700BFEC2B002030
:1059B00080B582B000AF1A4B1B687B6026E07B6825
:1059C0001B7AFF2B02D0786800F0CAF87B68DB698D
:1059D000002B04D07B68DB69184601F057F97B681F
:1059E0004FF0FF321A627B685A6A0D4B1A607B686F
:1059F00000225A627868FEF773FE094B1B687B60D1
:105A00007B68002B02D07B6800229A627B68002BA7
:105A100003D07B681B6A002BD1D00837BD4680BD00
:105A2000EC2B002080B500AF074B1B78DBB2012BBD
:105A300006D9064B01221A70054B01221A7001E0AB
:105A4000FFF7B6FF80BD00BF61190020E01B0020FA
:105A5000E11B002080B584B000AF78607B68DB6814
:105A6000FB60FB68002B00D174E0FB685A697B681F
:105A7000DA607B68DB68002B03D07B68DB68002280
:105A80009A61FB6800225A61FB68FF221A72FB6868
:105A90001B6AB3F1FF3F02D0F868FFF72FFF7B6866
:105AA0005B79C3F30303DBB2022B0DD17B681A6869
:105AB000FB681A617B6800221A607B68DB88013B07
:105AC0009AB27B68DA8039E07B685B79C3F30303C1
:105AD000DBB2032B21D17B681B68BB60BB681A68F3
