:020000040800F2
:1000000048290120E149000851120008591200084E
:10001000791200088112000889120008000000000F
:100020000000000000000000000000009112000825
:10003000991200080000000075650008A112000870
:10004000911300084D4A00084D4A0008E9160008BF
:100050004D4A00084D4A0008C1130008E513000886
:100060000914000829140008491400084D4A000822
:100070004D4A00084D4A00084D4A00081155000835
:100080004D4A00084D4A0008551600084D4A000820
:100090004D4A00084D4A00084D4A000869140008FE
:1000A0004D4A00084D4A00084D4A00084D4A0008D4
:1000B0004D4A00084D4A00084D4A00084D4A0008C4
:1000C0004D4A00084D4A00084D4A00084D4A0008B4
:1000D0004D4A00084D4A0008951600084D4A000890
:1000E000FD140008B91500084D4A00084D4A0008E3
:1000F0004D4A00084D4A00084D4A00084D4A000884
:100100004D4A00084D4A00080D1700084D4A0008E6
:100110004D4A0008A116000885170008311700088D
:100120004D4A00084D4A00083D17000861170008B5
:100130004D4A00084D4A00084D4A00084D4A000843
:100140004D4A00084D4A00084D4A00084D4A000833
:100150004D4A0008DD1600084D4A0008D116000877
:100160004D4A00084D4A00084D4A00084D4A000813
:100170004D4A00084D4A00084D4A00084D4A000803
:100180004D4A00084D4A000880B582B000AF786043
:1001900039607B681B881B01DAB23B68DA707B68C8
:1001A0005A883B689A807B681B88022B04D17B6845
:1001B0005A683B689A600CE07B681B88092B08D161
:1001C0003B689A1D7B6808331046194606220AF0E0
:1001D0001BF80837BD4680BD80B485B000AF02462D
:1001E0000B46FA80BB80FB8803F0F0031B11094A21
:1001F000D35C03F24653FB60BA88FB689A4202D98B
:10020000FB689BB200E0BB8818461437BD465DF81A
:10021000047B7047B8E4000880B584B000AF0346A3
:10022000FB80FB88DBB23B7207F1080308481946E4
:10023000002201F0D3FD0346FB81B7F90E30002BFD
:1002400000D0FEE73B891BB218461037BD4680BD83
:10025000CCE4000880B58EB000AFB9600146F981EA
:10026000BA81FB800023BB84002387F8263000235B
:1002700087F8273007F11403184603F02BFABB89DF
:10028000BB82BB68FB613B6C1B88022B02D0092B35
:1002900007D00DE049F20D43BB840C2387F82630CC
:1002A00009E049F20463BB840C2387F8263002E09E
:1002B0004FF6FE7353E0BB89B7F90E20104619467E
:1002C000FFF78AFF0346FB86FB8E3B85FB8EBB82D6
:1002D000FB89DBB287F82A3007F12803386C19460E
:1002E000FFF752FF97F82B30DAB2FB88DBB203F04E
:1002F0000F03DBB21343DBB2DBB287F82B30FB8991
:10030000D8B207F1240107F1280207F1140301F024
:100310004DFE0346BB86B7F93430002B1CD1FA6979
:10032000FB8E1344FB61B7F90C30BA6813441A46CC
:10033000FB69D31AFB86B7F90E20FB8E10461946CF
:10034000FFF74AFF0346FB86FB8EBB82FB8E3B8595
:10035000FB8E002BD3D101E0BB8E00E0BB891BB22A
:1003600018463837BD4680BD80B58CB000AFB96047
:100370000146F981BA81FB8007F11003184603F0AA
:10038000A9F9BB897B82BB68FB61FB89DBB287F87B
:100390002230BB893B843B8C9BB27B82FB88DBB2E7
:1003A00003F00F03DBB287F82330FB6B1B88102BA5
:1003B00007D197F8233043F02003DBB287F82330CE
:1003C0000EE0FB6B1B881C2B07D197F8233043F002
:1003D0003003DBB287F8233002E04FF6FE7341E0D2
:1003E000FB89D9B207F1200207F110030846204922
:1003F00001F038FD0346FB85B7F92E30002B01D004
:10040000FB8D2FE03B8CFB85B7F92E30002B28DBD2
:10041000B7F90E2097F822309A4200D0FEE797F8FD
:1004200023301A46BB6B1A80BB6B1B88022B09D189
:10043000BA8CBB6B5A80BA6ABB6B5A60FB6B1022DA
:100440001A800EE0BB6B1B88092B0AD1BA8CBB6BE0
:100450005A80BB6B083307F1260211681960928835
:100460009A80FB8D1BB218463037BD4680BD00BF59
:10047000D0E4000880B584B000AF78607B680833B2
:10048000FB6003F0D3F8FB689B7803F00F03082BA5
:1004900000DDFEE71B4B19681A4B1B6893F8B4315B
:1004A0001A4613465B0013449B000B4410335B68F1
:1004B000FA6892789A70134B1968124B1B6893F87C
:1004C000B4311A4613465B0013449B000B441033AF
:1004D0005B68FA6812881A800A4B1968094B1B6816
:1004E00093F8B4311A4613465B0013449B00103353
:1004F0000B44184603F074F803F0C4F800BF10373B
:10050000BD4680BDE419002080B58CB000AFB96055
:100510000146F981BA81FB80002387F82D3007F16D
:100520001403184603F0D6F8BB89BB82BB68FB6195
:10053000FB8903F0F003802B0CD1B7F906303B6147
:1005400007F110033B624FF6FC73FB82012387F82F
:100550002D3001E000233B62BB89B7F90E20104625
:100560001946FFF739FE0346FB85FB8DBB82FB8DE9
:10057000BB84FB89DBB287F8263097F82730DAB2E4
:10058000FB88DBB203F00F03DBB21343DBB2DBB259
:1005900087F82730FB89D9B207F1240207F1140349
:1005A0000846194901F002FD03467B85B7F92A3058
:1005B000002B1CD1FA69FB8D1344FB61B7F90C3099
:1005C000BA6813441A46FB69D31AFB85B7F90E20A3
:1005D000FB8D10461946FFF7FFFD0346FB85FB8D9B
:1005E000BB82FB8DBB84FB8D002B06D001E07B8D95
:1005F00004E097F82D30002BCCD0BB891BB21846F5
:100600003037BD4680BD00BFD4E4000880B584B05B
:1006100000AF78607B680833FB6003F007F8FB6885
:100620009B7803F00F03082B00DDFEE7144B1968DD
:10063000134B1B6893F8B4311A4613465B001344FE
:100640009B000B4410335B681846F9680C2209F0D4
:10065000DBFD0B4B19680A4B1B6893F8B4311A4643
:1006600013465B0013449B0010330B44184602F002
:10067000B7FF03F007F800BF1037BD4680BD00BFCD
:10068000E419002080B584B000AF78607B6808333F
:10069000FB6002F0CBFF144B1968134B1B6893F8F7
:1006A000B4311A4613465B0013449B000B441033CD
:1006B0005B681846F968082209F0A6FD0A4B19681C
:1006C000094B1B6893F8B4311A4613465B00134478
:1006D0009B0010330B44184602F082FF02F0D2FF59
:1006E00000BF1037BD4680BDE419002080B58AB038
:1006F00000AFB9600146F981BA81FB8007F11003B0
:10070000184602F0E7FFBB897B82BB68FB61FB896F
:10071000DBB287F82230BB893B843B8C9BB27B8267
:10072000FB88DBB203F00F03DBB287F82330FB89D1
:10073000D9B207F1200207F110030846084901F079
:1007400091FB0346FB84B7F92630002B01D0FB8CCC
:1007500000E03B8C1BB218462837BD4680BD00BF69
:10076000E0E4000880B58AB000AFB9607A603B6011
:100770000346FB81202387F82730FB89DBB23B76D9
:1007800000237B760023BB760023BB830023FB83FF
:10079000BB68002B03D0BB681B689BB2BB837B6824
:1007A000002B03D07B681B689BB2FB833B6B002B49
:1007B00006D14FF6FF737B844FF6FF733B8420E036
:1007C0003B6B1A684FF6FE739A4203D94FF6FF73DC
:1007D0007B8403E03B6B1B689BB27B843B6B5B6859
:1007E0009A0A3B6B5A603B6B5A684FF6FE739A420B
:1007F00003D94FF6FF733B8403E03B6B5B689BB20E
:100800003B8407F1100318460A21082201F0BCFAC4
:10081000034687F8273097F82730202B02D14FF670
:10082000300338E007F118031D481946002201F093
:10083000D5FA0346BB84B7F92430002B00D0FEE77D
:100840003B8B002B21D1174B196897F827201346B3
:100850005B0013449B0010330B44184602F0ACFEBF
:100860003B8A9BB23B833B8B1BB2002B0DDBBB68EF
:10087000002B03D0BB8A1A46BB681A607B68002B2A
:1008800003D0FB8A1A467B681A6097F8273018460F
:1008900002F074FC3B8B1BB218462837BD4680BD66
:1008A000ECE40008E419002080B483B000AF0346F4
:1008B0003960FB803B681A68FB8803F00F03012155
:1008C00001FA03F31A433B681A600C37BD465DF822
:1008D000047B704780B483B000AF03463960FB806F
:1008E0003B681A68FB8803F00F03012101FA03F348
:1008F0001340002B01D0012300E000231BB2184657
:100900000C37BD465DF8047B704700BF80B483B0F0
:1009100000AF78607B6800221A600C37BD465DF836
:10092000047B704780B584B000AF02460B46FA7175
:10093000BB800023FB60F97907F10C02BB880846F5
:10094000042100F06DF8FB6818461037BD4680BDE5
:1009500080B584B000AF02460B46FA71BB8000231D
:10096000FB81F97907F10E02BB880846022100F0ED
:1009700057F8FB8918461037BD4680BD80B584B056
:1009800000AF02460B46FA71BB800023FB73F97976
:1009900007F10F02BB880846012100F041F8FB7BFC
:1009A000DBB218461037BD4680BD00BF80B582B0AF
:1009B00000AF0B463A600246FA71BB80F9793A46BD
:1009C000BB880846042100F091F80837BD4680BD79
:1009D00080B582B000AF13460246FA710A46BA806B
:1009E0007B80F979BA1CBB880846022100F07EF8AA
:1009F0000837BD4680BD00BF80B582B000AF13464A
:100A00000246FA710A46BA80BB71F979BA1DBB88F1
:100A10000846012100F06AF80837BD4680BD00BFD6
:100A200080B588B000AFBA600246FA730A46BA8150
:100A3000FB800123FB75FB7B3F2B02D94FF0FF337B
:100A40004EE0FB881BB2002B02DA4FF0FF3347E089
:100A5000FA88BB891344B3F5004F02DB4FF0FF3334
:100A60003EE0FB88002B18D0FB7B43F04003DBB259
:100A70003B76FB887F2B05D8FB88DBB27B76022395
:100A8000FB750CE0FB88DBB27B76FB88DB099BB255
:100A9000DBB2BB760323FB7501E0FB7B3B76FB7D82
:100AA000DBB207F11802104811461A4609F0ACFBF8
:100AB000FB7DDBB21A46BB8913449BB20A48194638
:100AC00004F016FB0346FB83FB7DDBB21A46064BA4
:100AD0001A44BB89B86811461A4609F095FBFB8B8E
:100AE00018462037BD4680BDF808002080B586B086
:100AF00000AFBA600246FA730A46BA81FB8001234E
:100B0000FB74FB88002B1BD0FB7B63F03F03DBB245
:100B10003B75FB887F2B05D8FB88DBB27B750223F6
:100B2000FB7412E0FB88DBB263F07F03DBB27B7502
:100B3000FB88DB099BB2DBB2BB750323FB7404E0CB
:100B4000FB7B63F07F03DBB23B75FB7CDBB207F121
:100B500014020F4811461A4609F056FBFB7CDBB223
:100B60001A460B4B1A44BB891046B9681A4609F05D
:100B70004BFBFB7CDBB21A46BB8913449BB2044897
:100B8000194604F0B5FA034618461837BD4680BD2D
:100B9000F808002080B586B000AFBA600246FA734C
:100BA0000A46BA81FB800123FB75FB7B63F07F0360
:100BB000DBB23B75FB7D07F11402154811461A465E
:100BC00009F022FBFA7D124B1A44BB891046B96822
:100BD0001A4609F019FBFA7DBB891A440C4B1A44DA
:100BE000FB881046396A1A4609F00EFBFB7D9AB263
:100BF000BB8913449AB2FB8813449BB2044819463C
:100C000004F076FA034618461837BD4680BD00BF8B
:100C1000F808002080B582B000AF786039603B688A
:100C2000002B43DB7B68002B40D0224B1B78002B32
:100C300002D03B6802333B603B68B3F5806F00DB5A
:100C400034E03B687F2B04DD1B4B1B78002B00D16D
:100C50002CE01A4B1B6823F47F7323F00303174A1D
:100C60001360164B1A683B681A43144B1A60134BF7
:100C70001B689BB2082000211A46FFF7A9FE0D4B06
:100C80001B78002B0AD03B689BB2023B9BB2092029
:100C900019467A680023FFF729FF07E03B689BB2FB
:100CA000092019467A680023FFF720FF0837BD4660
:100CB00080BD00BF2F1A0020281A0020ACDC0020C5
:100CC00080B588B002AFF860B9607A603B60BA68FE
:100CD0003B6813447B617B69002B37DB7B68002B0F
:100CE00034D01C4B1B78002B02D07B6902337B6114
:100CF0007B69B3F5806F00DB28E07B697F2B04DD27
:100D0000154B1B78002B00D120E0BB689AB23B68E2
:100D10009BB27968009109201146FA68FFF73AFF03
:100D20000E4B1B6823F47F7323F003030B4A1360FD
:100D30000A4B1A687B691A43084B1A60074B1B68F9
:100D40009BB2082000211A46FFF742FE1837BD4625
:100D500080BD00BF2F1A0020281A0020ACDC002024
:100D600080B582B000AF0023FB80144B1B78022BB0
:100D700007D1134B1B689BB2C3F309039BB2FB80E3
:100D80000BE0BB1D102002211A460023FFF748FE8E
:100D9000FB88C3F309039BB2FB800A4B1B78002B33
:100DA00006D0FB88022B03D9FB88023B9BB200E0F4
:100DB000FB8818460837BD4680BD00BF351A0020A5
:100DC000ACDC00202F1A002080B586B000AF786020
:100DD0007B6808337B61304B19682F4B1B6893F895
:100DE000B4311A4613465B0013449B000B4418337E
:100DF0005B78DBB25BB2002B00DA4AE07B695B8890
:100E00007B82254B1968244B1B6893F8B4311A4632
:100E100013465B0013449B000B4410335B68FB607C
:100E2000FB685B687A6992681A60FB689B687A69FC
:100E300052681A607B691B889AB2FB681A80FB684B
:100E4000DB681B887B817A8A7B899A4238BF13468C
:100E50007B81FB68DB687A891A80FB6819697B698A
:100E600003F10C027B89084611461A4609F0CCF9B9
:100E7000094B1968084B1B6893F8B4311A4613469E
:100E80005B0013449B0010330B44184602F0A8FB90
:100E900000BF1837BD4680BDE419002080B584B07E
:100EA00000AF78607B680833FB6002F0BFFB274B24
:100EB0001968264B1B6893F8B4311A4613465B0039
:100EC00013449B000B4418335B78DBB25BB2002BFE
:100ED00013DA1E4B19681D4B1B6893F8B4311A4680
:100EE00013465B0013449B000B4410335B681846A9
:100EF000F968142209F088F912E0144B1968134BB1
:100F00001B6893F8B4311A4613465B0013449B00E8
:100F10000B4410335B681846F968082209F074F92D
:100F20000A4B1968094B1B6893F8B4311A461346EB
:100F30005B0013449B0010330B44184602F050FB37
:100F400002F0A0FB00BF1037BD4680BDE4190020B1
:100F500080B483B000AF786039607B68DA683B6842
:100F60001A607B689A683B685A607B685A883B685D
:100F70001A817B689A883B685A817B68DA883B686B
:100F80009A817B681A693B681A610C37BD465DF827
:100F9000047B704780B588B000AF78607B68083309
:100FA000FB61264B1B68002B0CD007F10803F86986
:100FB0001946FFF7CDFF214B1B6807F108021046C9
:100FC000984736E002F032FB1D4B19681C4B1B683A
:100FD00093F8B4311A4613465B0013449B000B444C
:100FE00010335B68002B22D0154B1968144B1B681B
:100FF00093F8B4311A4613465B0013449B000B442C
:1010000010335B681846F969142209F0FDF80C4B9F
:1010100019680B4B1B6893F8B4311A4613465B00F2
:1010200013449B0010330B44184602F0D9FA02F027
:1010300029FB00BF2037BD4680BD00BFE819002056
:10104000E419002080B58EB000AF78607B681B7813
:1010500003339BB223F003039BB2BB810023FB81CC
:101060007B685B687B610023BB617B681B783B7797
:101070007B685B787B777B689A687B685B7807F135
:101080001C010231084611461A4609F0BDF807F165
:101090001C0207F10C03094811461A4601F060FFD3
:1010A0000346FB86B7F93630002B00D0FEE7BB8B3A
:1010B0009BB218463837BD4680BD00BF10E500081A
:1010C00080B594B000AF78607B68FB64FB6C1B88D4
:1010D00041F63002934253D041F6300293420BDC8A
:1010E00041F6220293421BD041F62E0293421BD0BE
:1010F000B3F5C15F0CD072E0B3F5D15F08D041F613
:101100003522934208D041F63502934204D066E07E
:101110007868FFF7C3FE63E07868FFF755FE5FE08D
:101120007868FFF737FF5BE0FB6C0833BB64BB6C90
:1011300004337B6401237B6140233B76FB6C1C33CF
:10114000FB6101233B62BB6C1B7887F824307B6C0E
:10115000BB627B6C3B6107F1200207F11403104670
:10116000194604F04BFF3B7E3B7297F824307B72AC
:10117000FB69FB6007F108031846FFF763FF2FE0E8
:10118000FB6C08333B643B6C0433FB6302233B6220
:101190003B6C1B7887F82430FB6BBB623B6C1B7885
:1011A000FA6B1344FB633B6C5B7887F82C30FB6B6A
:1011B0003B633B6C5B78FA6B1344FB633B6C9B7843
:1011C00087F83430FB6BBB6300237B6107F120029F
:1011D00007F114031046194604F010FF00E0FEE783
:1011E0005037BD4680BD00BF80B500AF0E4B1B78A9
:1011F000DBB2012B10D10D4B1B78012B01D103F079
:1012000029FC0B4B1B78DBB2012B01D103F014FB43
:10121000054B00221A7006E0034B1B78DBB2013B42
:10122000DAB2014B1A7080BD79190020001C002031
:101230007A19002080B400AF044B1B685A1C034B82
:101240001A60BD465DF8047B704700BF742F002014
:1012500080B400AFFEE700BF80B400AF1EF0040F03
:101260000CBFEFF30880EFF3098000F09DBABD4694
:101270005DF8047B704700BF80B400AFFEE700BF9D
:1012800080B400AFFEE700BF80B400AFFEE700BF50
:1012900080B400AFFEE700BF80B400AFFEE700BF40
:1012A00080B500AF304B1B685A1C2F4B1A602F4B78
:1012B0001B685A1C2D4B1A602D4B1B685A1C2C4B5B
:1012C0001A602C4B1B685A1C2A4B1A602A4B1B684D
:1012D0005A1C294B1A60294B1B68002B0CDD264B2E
:1012E0001B68632B0BD9244B00221A60234B1B680D
:1012F0005A1E224B1A6002E0204B00221A60204B3B
:101300001B685A1C1E4B1A60184B1B68132B04D900
:1013100006F014F9154B00221A6005F055FA154B2A
:101320001B68042B1BD9134B00221A60154B1B683A
:1013300003F00103002B10D0124B1B6803F00403D1
:10134000002B0AD0104B1B78002B06D10F4B1B78BB
:10135000002B02D102F0B4FF01E006F0E7FB03F03E
:10136000D5FDFFF767FF80BD981900209C1900206C
:10137000A0190020A4190020A81900209419002009
:10138000902D0020542D00200C1A002080190020E0
:1013900080B582B000AF7F23FB7103F07DF903F0CD
:1013A0005BF9FB79184603F065F903F075F903481A
:1013B00006F040FC0837BD4680BD00BF18E50008B8
:1013C00080B500AF012005F0C7FA0346012B07D115
:1013D000012005F0B3FA012005F0E2FA04F0DEF88E
:1013E00080BD00BF80B500AF054B02225A61054B9E
:1013F00001221A7002F00EFB024B00221A7080BD0F
:10140000003C0140361A002080B500AF042005F0F2
:10141000A3FA0346012B05D1042005F08FFA04201E
:1014200005F0BEFA80BD00BF80B500AF082005F012
:1014300093FA0346012B05D1082005F07FFA082016
:1014400005F0AEFA80BD00BF80B500AF102005F0FA
:1014500083FA0346012B05D1102005F06FFA102006
:1014600005F09EFA80BD00BF80B500AF202005F0DA
:1014700073FA0346012B07D1202005F05FFA2020E4
:1014800005F08EFA05F088F9402005F065FA03466C
:10149000012B05D1402005F051FA402005F080FADB
:1014A000802005F059FA0346012B05D1802005F074
:1014B00045FA802005F074FA4FF4807005F04CFA7C
:1014C0000346012B09D14FF4807005F037FA4FF431
:1014D000807005F065FA05F051F94FF4007005F0E1
:1014E0003BFA0346012B07D14FF4007005F026FAB2
:1014F0004FF4007005F054FA80BD00BF80B500AF16
:101500004FF4806005F028FA0346012B07D14FF411
:10151000806005F013FA4FF4806005F041FA4FF453
:10152000006005F019FA0346012B07D14FF4006063
:1015300005F004FA4FF4006005F032FA4FF48050E1
:1015400005F00AFA0346012B07D14FF4805005F04D
:10155000F5F94FF4805005F023FA4FF4005005F0F0
:10156000FBF90346012B07D14FF4005005F0E6F9D3
:101570004FF4005005F014FA4FF4804005F0ECF9F8
:101580000346012B07D14FF4804005F0D7F94FF403
:10159000804005F005FA4FF4004005F0DDF9034600
:1015A000012B07D14FF4004005F0C8F94FF400407B
:1015B00005F0F6F980BD00BF80B500AF4FF40040E4
:1015C00006F04AF80346002B07D04FF4004006F01F
:1015D00077F84FF4001005F0E3F94FF4804006F07F
:1015E0003BF80346002B07D04FF4804006F068F824
:1015F0004FF4800005F0D4F94FF4005006F02CF8B9
:101600000346002B07D04FF4005006F059F84FF472
:10161000003005F0C5F94FF4805006F01DF8034680
:10162000002B07D04FF4805006F04AF84FF40030FA
:1016300005F0B6F94FF4003006F00EF80346002B23
:1016400007D04FF4003006F03BF84FF4001005F0DF
:10165000A7F980BD80B500AF0D4840F2052103F029
:10166000BBFC0346012B04D1094840F2052103F0DD
:10167000E1FC07484FF4837103F0AEFC0346012BF5
:1016800004D103484FF4837103F0D4FC80BD00BF44
:101690000020014080B400AFBD465DF8047B704778
:1016A00080B500AF084840F2255102F05BF90346CF
:1016B000002B08D0044802F005F90346DBB20348CA
:1016C000194602F0EDF880BD005000400044004093
:1016D00080B500AF03F070FF80BD00BF80B400AFE5
:1016E000BD465DF8047B704780B500AF4FF4804085
:1016F00005F0B2FF0346002B07D04FF4804005F001
:10170000DFFF4FF4800005F04BF980BD80B500AFDE
:101710000548042106F068F90346012B03D103486C
:10172000042106F08BF980BD000C00400000014050
:1017300080B500AF05F0D4FA80BD00BF80B500AF22
:101740000548064904F020FE0346002B03D002485A
:10175000024904F071FE80BD406402400080201008
:1017600080B500AF0548064904F00EFE0346002B85
:1017700003D00248024904F05FFE80BD5864024075
:101780000080001880B400AF064B1B8A054B054A49
:10179000128A92B222F0010292B21A82BD465DF81C
:1017A000047B704700100040B0B5CAB000AF3B1DCD
:1017B00018603B1D1B681B68C7F824313B1D1B6864
:1017C0005B68C7F820313B1D1B689B68C7F81C315C
:1017D0003B1D1B68DB68C7F818313B1D1B681B6984
:1017E000C7F814313B1D1B685B69C7F810313B1DFE
:1017F0001B689B69C7F80C313B1D1B68DB69C7F888
:101800000831754806F016FA07F1080318467349BF
:10181000D7F8242108F0DCFD07F10803184606F08C
:1018200009FA07F1080318466D49D7F8202108F096
:10183000CFFD07F10803184606F0FCF907F108038D
:1018400018466849D7F81C2108F0C2FD07F10803C3
:10185000184606F0EFF907F1080318466249D7F871
:10186000182108F0B5FD07F10803184606F0E2F963
:1018700007F1080318465D49D7F8142108F0A8FDC0
:1018800007F10803184606F0D5F907F108031846D2
:101890005749D7F8102108F09BFD07F108031846B7
:1018A00006F0C8F907F1080318465249D7F80C2189
:1018B00008F08EFD07F10803184606F0BBF907F1A2
:1018C000080318464C49D7F8082108F081FD07F1B4
:1018D0000803184606F0AEF9484B1B6807F10802EA
:1018E000104647491A4608F073FD07F108031846E9
:1018F00006F0A0F9434B1B6807F108021046424965
:101900001A4608F065FD07F10803184606F092F93B
:101910003E4B1B6807F1080210463D491A4608F085
:1019200057FD07F10803184606F084F9394B1B6888
:1019300007F10802104638491A4608F049FD07F138
:101940000803184606F076F9344B1B6807F10802C5
:10195000104633491A4608F03BFD07F108031846C4
:1019600006F068F92F4B5B6A07F1080210462E4912
:101970001A4608F02DFD07F10803184606F05AF93B
:10198000284BDB6A002B03DA284806F053F91FE0E6
:10199000244BDB6A03F08043002B03D0244806F07D
:1019A00049F915E01F4BDB6A03F00103002B0FD050
:1019B00007F108021F4B14461D460FCD0FC495E8D2
:1019C000070003C4228007F10803184606F032F925
:1019D000194806F02FF9FEE724E5000854E5000851
:1019E00060E500086CE5000878E5000884E500087B
:1019F00090E50008C0E50008E4E5000838ED00E0E7
:101A0000F0E5000828ED00E000E600082CED00E01D
:101A100010E6000830ED00E020E600083CED00E0B4
:101A200030E6000800ED00E040E6000854E600085B
:101A300070E6000890E60008ACE6000890B587B0B4
:101A400000AF0346FB71FA796D4913465B001344FE
:101A5000DB000B445B68FB60FB68002B00D1CCE033
:101A6000684B1B78DBB20133DAB2664B1A70664BF7
:101A70001B68002B09D1FA7913465B001344DB0085
:101A80005F4A1A44604B1A60B5E05F4B1B687B618C
:101A9000FB683B61ABE03A697B695B68D31A3B61E9
:101AA0003B69002B7CDA7B695B69002B28D07B6962
:101AB0005969FA7913465B001344DB00504A13441A
:101AC0000B61FA797B6959694D4813465B001344F1
:101AD000DB00034410335960FA79494913465B002F
:101AE0001344DB000B4410337A691A60FA79134609
:101AF0005B001344DB00424A1A447B695A611DE0D3
:101B0000FA79414B19683E4813465B001344DB00E9
:101B10000344103319603C4B1968FA7913465B0093
:101B20001344DB00364A13444B61FA7913465B00D9
:101B30001344DB00324A1A44334B1A60FA79F979BC
:101B40002F480B465B000B44DB00034410331B683B
:101B500059683B6919442A4813465B001344DB006B
:101B600003445960FA79264913465B001344DB00AD
:101B70000B4410331968FA79214813465B0013446B
:101B8000DB00034410331B685868FA791C4C134679
:101B90005B001344DB0023445B68C31A4B602AE0FC
:101BA0003B69002B20DB7B691B69002B1CD1FA7978
:101BB000134913465B001344DB000B4410337A696E
:101BC0005A60FA7913465B001344DB000C4A1A444E
:101BD0007B691A61FA793969094813465B00134435
:101BE000DB000344596006E07B691B697B617B690C
:101BF000002B7FF450AFFFF7F7FA1C37BD4690BDBE
:101C0000AC19002079190020DC19002080B584B0BF
:101C100000AF0346FB71FA7913465B001344DB0007
:101C20002C4A1344FB602C4B1B78DBB20133DAB235
:101C3000294B1A70FB685B69002B07D1FB681B6995
:101C4000002B03D1254B00221A603DE0FB685B6945
:101C5000002B14D1FB681A69204B1A601F4B1B68BC
:101C600000225A61FB681B69FA6812695168FA68B8
:101C700052680A445A60FB6800221A6124E0FB683B
:101C80001B69002B07D1FB685B6900221A61FB68A6
:101C900000225A6118E0FB685B69FA6812691A61F0
:101CA000FB681B69FA6852695A61FB681B69FA682C
:101CB00012695168FA6852680A445A60FB68002247
:101CC0001A61FB6800225A61FFF78EFA1037BD4691
:101CD00080BD00BFAC19002079190020DC1900205C
:101CE00080B582B000AF1B4B1B687B6027E07B6830
:101CF0005B78002B0BD17B681B781846FFF786FFBB
:101D00007B6801229A707B68DB68984714E07B68E7
:101D10005B78012B10D17B681B781846FFF776FFA4
:101D20007B689A687B685A607B681B781846FFF767
:101D300085FE7B68DB689847064B1B687B607B6889
:101D4000002B03D07B685B68002BD0D00837BD46E2
:101D500080BD00BFDC19002080B500AF074B1B78A9
:101D6000DBB2012B06D9064B01221A70054B01226A
:101D70001A7001E0FFF7B4FF80BD00BF79190020A1
:101D8000001C0020021C002080B584B000AF7860E9
:101D900013460A46FA70BB70FA78BB7810461946AB
:101DA00001F01AF90346FB73FB7B202B0ED001F0E8
:101DB0003DFC094B1968FA7B13465B0013449B00FA
:101DC0000B4410337A685A6001F05CFCFB7B1846C8
:101DD0001037BD4680BD00BFE419002080B586B035
:101DE00000AFF860B9607A601C4B1B68043318467A
:101DF00001F008FC194B1B68012283F89A21F8684E
:101E00007968BA6800F06CF90346FB82B7F91630BE
:101E1000002B16D1124B1B78002B0DD100233B61F8
:101E20000F4B01221A7042F2D0033B6100BF3B69A5
:101E30005A1E3A61002BFAD100F01AFE0346FB82CB
:101E400005E0064B1B680433184601F009FCFB8AC9
:101E50001BB218461837BD4680BD00BFE4190020EC
:101E6000EC19002080B588B000AFB9607A603B60A3
:101E70000346FB732023FB773B68DB68002B00D114
:101E8000FEE73B685B88002B00D1FEE7FB7B03F09D
:101E90000F03072B02DD4FF6F77380E0FB7B03F0A7
:101EA0000F03DBB20F20194601F096F80346FB77CB
:101EB000FB7F202B02D14FF6300370E001F0B6FB20
:101EC0003B68DB68BB617B687B61374B1968FA7FD5
:101ED00013465B0013449B000B44103307F11402BC
:101EE0005A6001F0CFFB304B1B6803F5CE731846E8
:101EF00001F088FB2C4B1B6803F29D13184622212E
:101F00001122002305F0BCFD274B1B6893F89B3181
:101F1000012B06D8244B1B6803F29D13184601F0D1
:101F20004BFB214B1B680433184601F06BFB1E4B27
:101F30001B6893F89B31012B00D8FEE71A4B1B68F6
:101F400093F89B21013AD2B283F89B21164B1B6870
:101F500003F5CE73184601F083FBB86839687A68D8
:101F600000F0BEF80346BB830F4B1B6804331846D2
:101F700001F076FBB7F91C30002B0BD10A4B196826
:101F8000FA7F13465B0013449B0010330B44184642
:101F900001F012FBFB7F184601F0F0F8BB8B1BB27F
:101FA00018462037BD4680BDE419002080B586B0B4
:101FB00000AFB9607A603B600346FB734FF6F57380
:101FC000FB82464B1B6803F5CE73184601F01AFBE3
:101FD000424B1B6803F29D13184622211122002355
:101FE00005F04EFD3D4B1B6893F8A1311A46FB7B73
:101FF00003F00F0342FA03F303F00103002B09D0AF
:10200000364B1B6803F5CE73184601F029FB4FF6DB
:10201000FF735DE0314B1B6893F89B31022B1DD899
:102020002E4B1B6893F8A0311A46FB7B03F00F037D
:1020300042FA03F303F00103002B08D0274B1B687F
:1020400003F5CE73184601F00BFBFB8A40E0234BEF
:102050001B6803F29D13184601F0AEFA1F4B1B6874
:1020600093F89B31022B0DD900BF1C4B1B68043326
:10207000184601F0C7FA194B1B6893F89B31022BE5
:1020800009D807E0154B1B6803F5CE73184601F01D
:10209000E7FA96E7FEE7114B1B6893F89B21013A9C
:1020A000D2B283F89B210D4B1B6803F5CE73184603
:1020B00001F0D6FAB86839687A6800F011F803467A
:1020C000FB82064B1B680433184601F0C9FAFB8AF1
:1020D0001BB218461837BD4680BD00BFE41900206A
:1020E00080B58AB000AFF860B9607A60002387F8E5
:1020F0002730FB68002B00D1FEE77D4B1B68FA6898
:10210000C3F8A4217A4B1B687A68C3F8A821784BDE
:102110001B68BA68C3F8AC21754B1B68FA68128853
:10212000DA80734B1A68BB68002B10D0FB689B7871
:1021300003339BB223F0030399B2BB681B880333BC
:102140009BB223F003039BB20B449BB206E0FB68F7
:102150009B7803339BB223F003039BB21381BB68CC
:10216000002B1ED0BB685B881BB2002B19DABB6842
:102170001B88002B15D0BB685B889BB25B429BB26F
:102180009AB2BB685A80012387F82730584B1B68E6
:10219000574A12681189BA68528892B20A4492B2B8
:1021A0001A810423BB84524B1B681B681A46B7F97B
:1021B000243010464F491A4603F0F8F803467B8452
:1021C000B7F92420B7F922309A4200D0FEE7042361
:1021D0003B84474B1B681B681946454B1B689A1D7F
:1021E000B7F92030084611461A4603F0DFF80346D7
:1021F000FB83B7F92020B7F91E309A4200D0FEE7E2
:102200007B68002B1FD0FB689B78002B1BD0FB68E2
:102210009B7803339BB29BB223F00303BB83344B05
:102220001B681B681A46B7F91C30104679681A46B5
:1022300003F0BCF803467B83B7F91C20B7F91A30CA
:102240009A4200D0FEE797F82730012B1ED1BB68D9
:102250005B889BB203339BB29BB223F003033B83A7
:10226000234B1B681B681946BB68DA68B7F918303E
:10227000084611461A4603F099F80346FB82B7F95F
:102280001820B7F916309A4200D0FEE7BB68002B41
:1022900028D0BB681B88002B24D0FB689B7803F0F8
:1022A0000303002B00D0FEE7BB681B8803339BB2FF
:1022B0009BB223F00303BB820D4B1B681B681946BE
:1022C000BB689A68B7F91430084611461A4603F0FD
:1022D0006DF803467B82B7F91420B7F912309A42A1
:1022E00000D0FEE700231BB218462837BD4680BD4C
:1022F000E4190020CCE6000880B596B000AF0023BA
:10230000FB64082387F85330AB4B1B680022C3F8EB
:10231000B021A94B1B680022C3F8B82107F10C02B9
:10232000FB1D1046194600F0CFFC0346A7F84A30C3
:10233000B7F94A30002B00D0FEE707F10C031B88E9
:10234000A7F8483007F10C035B88043BA7F8463038
:10235000B7F84830082B21D0974B1B6807F10C02C7
:10236000127983F89B21944B1B6807F10C02D279F8
:1023700083F8A021904B1B6807F10C02927983F837
:10238000A1218D4B1B6893F89B31012B06D98A4BF9
:102390001B6803F29D13184601F022F9B7F8483084
:1023A000184600F02DFC844B1B6893F8BC3187F86D
:1023B000453097F84530012B00F0D481022B03D033
:1023C000002B00F0AA80DBE2FB6C002B00D0FEE7C4
:1023D000794B1B68794AC3F8B021774B1B68D3F857
:1023E000B031FB64F86CA82101F064F9FB6C002BA0
:1023F00000D1FEE7FB6C1A4607F10C0303CB10601B
:102400005160B7F84630033323F00303A02B08DCF8
:10241000B7F8463003339BB223F00303A7F85430D8
:1024200002E0A023A7F85430B7F84630002B1BD0A9
:10243000B7F85430A7F842305F4B1B681B68194649
:10244000FB6C03F10802B7F94230084611461A4600
:1024500003F006F80346A7F84030B7F94220B7F971
:1024600040309A4200D0FEE7B7F84630033323F0FD
:102470000303A02B2BDDB7F8463003339BB223F0C8
:1024800003039BB2A03BA7F854301CE00423FB8756
:10249000494B1B681B681946B7F93E3007F1080223
:1024A000084611461A4602F0DBFF0346BB87B7F920
:1024B0003E20B7F93C309A4200D0FEE7B7F85430DE
:1024C000043BA7F85430B7F85430002BDED101F0AC
:1024D000ADF8B7F8482041F203039A420BD0B7F8A1
:1024E000482041F203239A4205D0B7F8482041F230
:1024F00006039A4206D1FB6C08339B7803F00F0366
:1025000087F85330B7F8482097F8533010461946EB
:1025100000F09CFF01F0B6F832E2B7F8483041F223
:102520000B02934204D041F20B22934204D007E005
:102530000C2387F8523006E0182387F8523002E067
:10254000042387F8523004237B871B4B1B681B68CE
:102550001946B7F93A3007F10C0204320846114621
:102560001A4602F07DFF03463B87B7F93A20B7F9D8
:1025700038309A4200D0FEE707F10C0304339B7811
:1025800003F00F03072B00DDFEE701F04FF807F122
:102590000C0304339B7803F00F03DBB2B7F8482039
:1025A0001046194600F052FF0346FB86B7F9363055
:1025B000002B05D0FEE700BFE41900201C320020EC
:1025C000A14B1968A04B1B6893F8B4311A46134607
:1025D0005B0013449B000B4410335B681A6807F1DF
:1025E0000C03043310461946042207F00DFE97F839
:1025F0005230042B29D997F852309BB2043B9BB23E
:10260000BB86914B1B681B6819468F4B18688E4B15
:102610001B6893F8B4311A4613465B0013449B00C1
:10262000034410335B681B681A1DB7F93430084641
:1026300011461A4602F014FF03467B86B7F9342090
:10264000B7F932309A4200D0FEE707F10C030433A9
:102650001B881BB2002B72DD07F10C0304331B88AF
:102660009BB203F00303A7F8563007F10C030433C1
:102670001B889BB223F00303A7F85430B7F85430FB
:10268000032B25D9B7F854303B866F4B1B681B686A
:1026900019466D4B18686C4B1B6893F8B4311A4699
:1026A00013465B0013449B00034410335B685A6875
:1026B000B7F93030084611461A4602F0D1FE0346FB
:1026C000FB85B7F93020B7F92E309A4200D0FEE7EB
:1026D000B7F85630002B32D00423BB855A4B1B6809
:1026E0001B681946B7F92C3007F108020846114655
:1026F0001A4602F0B5FE03467B85B7F92C20B7F9E0
:102700002A309A4200D0FEE74F4B19684E4B1B68A7
:1027100093F8B4311A4613465B0013449B000B44F4
:1027200010335B685A68B7F85430D118B7F8563090
:1027300007F10802084611461A4607F065FD424BAC
:102740001968414B1B6893F8B4311A4613465B0075
:1027500013449B0010330B44184600F041FF00F077
:1027600091FF0DE1384B1B68D3F8A431DB780333BC
:102770009BB29BB223F003033B85334B1B681B6862
:102780001946314B1B68D3F8A821B7F92830084601
:1027900011461A4602F064FE0346FB84B7F928206E
:1027A000B7F926309A4200D0FEE7274B1B68D3F8D2
:1027B000AC31002B00F0E380234B1B68D3F8AC3125
:1027C0005B88002B00F0DB8007F10C035A881E4B5E
:1027D0001B68D3F8A431DB78D31A9BB2043B9BB2BD
:1027E000A7F85030184B1B68D3F8AC31B7F850201D
:1027F0009A80B7F95030002B06DC134B1B68D3F8D6
:10280000AC3100225A80BAE00F4B1B68D3F8AC31D0
:102810005B88B7F950201BB29A4217DD0A4B1B6840
:10282000D3F8AC315B889BB203F00303A7F85630B2
:10283000054B1B68D3F8AC315B889BB223F00303D4
:10284000A7F854300EE000BFE4190020B7F850306C
:1028500003F00303A7F85630B7F8503023F0030312
:10286000A7F85430B7F85430032B1BD9B7F85430BD
:10287000BB84544B1B681B681946524B1B68D3F82A
:10288000AC31DA68B7F92430084611461A4602F02E
:10289000E7FD03467B84B7F92420B7F922309A423A
:1028A00000D0FEE7B7F85630002B2ED004233B842F
:1028B000444B1B681B681946B7F9203007F1080222
:1028C000084611461A4602F0CBFD0346FB83B7F9D2
:1028D0002020B7F91E309A4200D0FEE7394B1B6822
:1028E000D3F8AC31DA68B7F85430D118B7F85630AD
:1028F00007F10802084611461A4607F085FCB7F8AA
:102900005030043B9BB2A7F850302E4B1B68D3F8D5
:10291000AC315B88B7F950201BB29A422FDDB7F873
:102920005020284B1B68D3F8AC315B889BB223F056
:1029300003039BB2D31AA7F854301CE00423BB83D3
:10294000204B1B681B681946B7F91C3007F10802B9
:10295000084611461A4602F083FD03467B83B7F909
:102960001C20B7F91A309A4200D0FEE7B7F854306D
:10297000043BA7F85430B7F85430002BDED100BF29
:10298000FB79002B17D0FB793B830E4B1B681B6830
:102990001946B7F9183007F10C02084611461A46D5
:1029A00002F05EFD0346FB82B7F91820B7F9163036
:1029B0009A4200D0FEE700231BB218465837BD46A6
:1029C00080BD00BFE419002080B584B000AF0023B3
:1029D000FB600023FB7200237B60234B1B68D3F852
:1029E000B0313B60204B1B68D3F8B831002B00D1CD
:1029F00036E00023BB7213E0BA7A1C4B33F8222076
:102A00003B681B889A4208D1BB7A184A9B00134442
:102A10009B78FB600123FB7205E0BB7A0133BB723C
:102A2000BB7A0E2BE8D9FB7A002B0AD10E4B1B6820
:102A3000D3F8B8310C4A1268D2F8B0211046984742
:102A40000EE0094B1B68D3F8B03104337B607B6820
:102A5000FA681A60044B1B68D3F8B8317868984755
:102A60001037BD4680BD00BFE419002010E7000804
:102A700080B582B000AF44E0324B1B6893F89F21D1
:102A8000314B1B78DBB29A4234D0FFF735FC03465A
:102A9000FB80B7F90630002B00D0FEE7294B1B68FE
:102AA00093F89F210132D2B283F89F21254B1B68F6
:102AB00093F8BC31012B0FD1224B1B68002283F805
:102AC0009A21204B1B6803F29913184622211122E8
:102AD000002304F0D5FF14E01A4B1B6893F8BC31B7
:102AE000022B0ED1FFF770FF164B1B680022C3F8B4
:102AF000B02106E0134B1B6803F29913184600F04F
:102B00005BFD104B1B6893F89A31012BB4D00D4B31
:102B10001B680433184600F0A3FD0A4B1B6893F8AA
:102B20009F21094B1B78DBB29A4204D00748002151
:102B3000002204F0CDFF00231BB218460837BD4623
:102B400080BD00BFE419002050300020512B000848
:102B500080B584B000AF7860274B1B6804331846FB
:102B600000F050FD244B1B6893F89F21234B1B78EA
:102B7000DBB29A4207D1204B1B680433184600F0A1
:102B80006FFD002333E0FFF7B7FB0346FB81B7F986
:102B90000E30002B00D0FEE7174B1B6893F89F21E7
:102BA0000132D2B283F89F21134B1B6893F8BC31DA
:102BB000022B04D0032B12D0002B10D00EE00E4BB2
:102BC0001B68D3F8B031002B00D1FEE7FFF7FCFE05
:102BD000094B1B680022C3F8B02101E0FEE700BFEB
:102BE000054B1B680433184600F03AFD00231BB266
:102BF00018461037BD4680BDE41900205030002033
:102C000080B485B000AF0346FB800023FB60012346
:102C1000FB72FB8803F480639BB2002B3DD1FB88E1
:102C2000632B02D10323FB7237E0FA8841F20A03D7
:102C30009A4209D0FA8841F20B039A4204D0FA88EA
:102C400041F20B239A4202D10023FB7225E00223BA
:102C5000FB72FB88DB0A9BB2DBB203F00703BB729B
:102C6000BB7A072B00D9FEE7BA7A134B53F8223010
:102C7000FB60FA8841F62E039A4204D0FA8841F6A6
:102C800030039A4202D10D4BFB6006E0FA8841F610
:102C900022039A4201D10A4BFB600A4B1B68FA7A65
:102CA00083F8BC21074B1B68FA68C3F8B8211437B6
:102CB000BD465DF8047B70474CE70008C110000872
:102CC000950F0008E419002080B58CB000AF786043
:102CD00039600023FB6204233B859D4B1B681B6806
:102CE0001A46B7F9283010469A491A4602F05EFB98
:102CF0000346FB84B7F92820B7F926309A4200D062
:102D0000FEE70423BB84924B1B681B681A46B7F985
:102D10002430104679681A4602F0A2FB03467B84F1
:102D2000B7F92420B7F922309A4200D0FEE740E0FC
:102D3000FB6AB3F5FA6F00D3FEE7FB6A03F0030307
:102D4000002B17D104233B84814B1B681B68194659
:102D50007B681A1DB7F92030084611461A4602F062
:102D60007FFB0346FB83B7F92020B7F91E309A4258
:102D700000D0FEE7002387F82B300FE097F82B30C8
:102D80007A68134497F82B20013279680A44127844
:102D90001A7097F82B30013387F82B3097F82B30C7
:102DA000062BEBD97B68073300221A70FB6A0133CC
:102DB000FB627B681B6803F00403002B0FD07B6869
:102DC0001B6823F0802222F08002614B1B6893F87D
:102DD0009E3103F00301604B0B439A420ED07B6897
:102DE0001B6803F00403002BA2D17B681B6823F04F
:102DF000802323F08003594A934299D1FB6A03F060
:102E00000303FB62FB6A002B1FD07B685A687B6858
:102E10001A60FB6ABB834E4B1B681B681946FB6A32
:102E2000C3F104037A681A44B7F91C300846114606
:102E30001A4602F015FB03467B83B7F91C20B7F94D
:102E40001A309A4200D0FEE715E004233B83404B42
:102E50001B681B681A46B7F91830104679681A467D
:102E600002F0FEFA0346FB82B7F91820B7F91630D4
:102E70009A4200D0FEE715E004233B82344B1B68E6
:102E80001B681A46B7F91030104679681A4602F0E6
:102E9000E7FA0346FB81B7F91020B7F90E309A42E2
:102EA00000D0FEE77B681B6803F00403002B0FD003
:102EB0007B681B6823F0802222F08002244B1B6871
:102EC00093F89E3103F00301234B0B439A42D3D076
:102ED0007B681B6803F00403002B08D17B681B6828
:102EE00023F0802323F080031C4A9342C4D0184B64
:102EF0001B6893F89E210132D2B283F89E210423ED
:102F0000BB82134B1B681B6819467B681A1DB7F9F7
:102F10001430084611461A4602F0A2FA03467B8294
:102F2000B7F91420B7F912309A4200D0FEE7FB6AD5
:102F3000002B04D0FB6AC3F10403DBB200E00023E2
:102F40003A68137000231BB218463037BD4680BD67
:102F5000E4190020D4E600083C5CCD2B3A5CCD2B74
:102F600080B58CB000AFF860B9607A60194B1B680F
:102F700093F89A3187F82F30164B1B6803F5D273FC
:102F800007F11002104619461C2207F03DF9114BBB
:102F90001B68002283F89A21F8687968BA68FFF7FD
:102FA0009FF80346BB850B4B1B6897F82F2083F8CF
:102FB0009A21084B1B6803F5D27207F110031046E3
:102FC00019461C2207F020F9BB8D1BB2184630377A
:102FD000BD4680BDE419002080B584B000AF024634
:102FE0000B46FA71BB712023FB7300F01FFB624B91
:102FF0001B6893F890311F2B25D85F4B1B6893F803
:103000009031FB735C4B1968FA7B13465B001344E9
:103010009B000B4418339B781F2B0ED8564B196816
:10302000554B1868FA7B13465B0013449B0003441E
:1030300018339B7881F8903109E04F4B1B682022B0
:1030400083F8902103E000F01DFBFB7B8FE04A4BEF
:103050001968FA7B13465B0013449B000B4418333A
:10306000FA791A70BB79072B0BD8434B1968FA7B96
:1030700013465B0013449B000B441833BA795A7013
:1030800024E023E03C4B1868FA7B3B4B1B6893F829
:10309000911113465B0013449B00034418330A4606
:1030A0009A70354B1B68FA7B83F8912100F0EAFA9D
:1030B000314B1968FA7B13465B0013449B001033B5
:1030C0000B44184600F078FA00F0B0FABB79072BF1
:1030D0000AD8294B1B68D3F89421BB79012101FA46
:1030E00003F31340002BCDD1234B1B68D3F894215D
:1030F000FB79012101FA03F31340002B02D0BB79C5
:10310000082BBFD0BB79072B0DD81B4B1B681A4A65
:103110001268D2F89411BA79012000FA02F20A4337
:10312000C3F894210CE0144B1B68134A1268D2F8C0
:103130009411FA79012000FA02F20A43C3F89421AB
:103140000D4B1868FA7B0C4B1B6893F892111346D1
:103150005B0013449B00034418330A469A70064BE5
:103160001B68FA7B83F8922100F08CFAFB7B1846EF
:103170001037BD4680BD00BFE419002090B585B072
:1031800000AF0346FB7100F051FA7C4B1B6893F8CB
:103190009131FB736CE0794B1968FA7B13465B0045
:1031A00013449B000B4418331978744B1868FA7950
:1031B00013465B0013449B00034418331B78994269
:1031C0004BD16E4B1968FA7B13465B0013449B008E
:1031D0000B4418335B7803F00F03082B27D0674BA1
:1031E0001968FA7913465B0013449B000B441833AB
:1031F0005B7803F00F03072B2FDC604B1968FA7B19
:1032000013465B0013449B000B4418335B7819464C
:103210005A4B1868FA7913465B0013449B00034429
:1032200018335B784B4003F00F03002B15D1534B41
:103230001B6803F29112FB7B1046194600F0A0F8C0
:103240004E4B1968FA7B13465B0013449B00103306
:103250000B44184600F0C4F90DE0484B1968FA7B9E
:1032600013465B0013449B000B4418339B78FB739D
:10327000FB7B1F2B8FD9414B1968FA7913465B00F2
:1032800013449B000B4418335B7803F00F03072BA8
:1032900019DC3A4B1968394B1B68D3F89401374B4A
:1032A0001C68FA7913465B0013449B0023441833CF
:1032B0005B7803F00F03012202FA03F3DB430340C0
:1032C000C1F8943116E02D4B19682C4B1B68D3F8CC
:1032D00094012A4B1C68FA7913465B0013449B0047
:1032E000234418331B78012202FA03F3DB43034023
:1032F000C1F89431214B1968FA7913465B001344E5
:103300009B000B44103300225A601C4B1968FA7959
:1033100013465B0013449B000B44183300221A70C1
:10332000164B1968FA7913465B0013449B000B4453
:10333000183308225A70114B1B6803F5C972FB79C8
:103340001046194600F01CF80C4B1868FA790B4B24
:103350001B6893F8901113465B0013449B000344D1
:1033600018330A469A70054B1B68FA7983F8902146
:1033700000F088F91437BD4690BD00BFE419002065
:1033800090B484B000AF78600B46FB702E4B196888
:103390007B681B781A4613465B0013449B000B4462
:1033A00018339B78202B03D17B6820221A7046E0CB
:1033B0007B681B78FA789A420CD1234B1968FA780B
:1033C00013465B0013449B000B4418339A787B68C8
:1033D0001A7034E07B681B78FB732DE01A4B196878
:1033E000FA7B13465B0013449B000B4418339B7815
:1033F000FA789A4215D1144B1868FA7B124B1C6864
:10340000F9780B465B000B449B00234418339978F2
:1034100013465B0013449B00034418330A469A701A
:103420000DE0094B1968FA7B13465B0013449B00BF
:103430000B4418339B78FB73FB7B1F2BCED91037C3
:10344000BD4690BC704700BFE419002080B485B031
:1034500000AF02460B46FA807B71554B1B6893F810
:103460009231FB7397E0524B1968FA7B13465B006D
:1034700013449B000B4418335B78DBB25BB2002B28
:1034800003DAFB8823F40073FB80494B1968FA7B4D
:1034900013465B0013449B000B4418331B780F2B1F
:1034A00022D1434B1968FA7B13465B0013449B00FF
:1034B0000B4418335B787A799A4215D1FA8841F235
:1034C0000A039A4209D0FA8841F20B039A4204D0C7
:1034D000FA8841F20B239A4206D1354B1B68FA7BDE
:1034E00083F8B42100235CE0314B1968FA7B134662
:1034F0005B0013449B000B4418331B78083B2D4A98
:10350000DB0013445B88FA889A4239D17979284BD9
:103510001868FA7B13465B0013449B00034418337E
:103520005B7803F00F03994202D17B79072B0DD909
:103530001F4B1968FA7B13465B0013449B000B4436
:1035400018335B7803F00F03082B19D1184B196857
:10355000174B1868FA7B13465B0013449B00034427
:1035600018331B78083B134ADB0013445B68C1F82F
:10357000B8310F4B1B68FA7B83F8B421002310E0AD
:103580000B4B1968FA7B13465B0013449B000B44FA
:1035900018339B78FB73FB7B1F2B7FF664AF4FF6D2
:1035A000FD731BB218461437BD465DF8047B7047A7
:1035B000E4190020D8E6000880B584B000AF786038
:1035C000786822211122FF2304F05AFA0346FB8176
:1035D000B7F90E30002B00D0FEE71037BD4680BD96
:1035E00080B584B000AF78607868222104F036FAA4
:1035F0000346FB81B7F90E30002B00D0FEE71037F1
:10360000BD4680BD80B584B000AF78607868332156
:103610004422FF2304F034FA0346FB81B7F90E304D
:10362000002B00D0FEE71037BD4680BD80B582B0CC
:1036300000AF0A4B1B6803F5CC73184633214422B4
:10364000FF2304F01DFA0346FB80B7F90630002B78
:1036500000D0FEE70837BD4680BD00BFE41900205A
:1036600080B584B000AF78607868332104F0F6F953
:103670000346FB81B7F90E30002B00D0FEE7103770
:10368000BD4680BD80B582B000AF094B1B6803F515
:10369000CC731846332104F0E1F90346FB80B7F9F7
:1036A0000630002B00D0FEE70837BD4680BD00BFC6
:1036B000E419002080B582B000AF78600B467B80B3
:1036C0007B88786800211A4606F038FE0837BD4628
:1036D00080BD00BF80B582B000AF786078681021EF
:1036E000FFF7E8FF0837BD4680BD00BF80B58AB050
:1036F00000AF7860396000237B6200233B620023C7
:10370000FB610023BB617B681B8A9BB27B627B6A87
:1037100023F440537B623B68DB887A6A13437B6205
:103720007B6A9AB27B681A827B689B899BB27B62B8
:103730007B6A23F4B05323F00C037B623B689A88C6
:103740003B681B8913439AB23B685B8913439BB266
:103750007A6A13437B627B6A9AB27B689A817B6840
:103760009B8A9BB27B627B6A23F440737B623B68DB
:103770009B897A6A13437B627B6A9AB27B689A82DE
:1037800007F10803184601F0A1FA7A68314B9A4212
:1037900003D07A68304B9A4202D17B693B6201E0E8
:1037A0003B693B627B689B899BB29BB21BB2002B3F
:1037B0000CDA3A6A13469B0013449A001A443B6899
:1037C0001B685B00B2FBF3F3FB610BE03A6A134644
:1037D0009B0013449A001A443B681B689B00B2FB91
:1037E000F3F3FB61FA691D4BA3FB02135B091B0199
:1037F0007B627B6A1B09642202FB03F3FA69D31A1A
:10380000BB617B689B899BB29BB21BB2002B0DDA1C
:10381000BB69DB0003F13202104BA3FB02135B090F
:1038200003F007037A6A13437B620CE0BB691B0158
:1038300003F13202094BA3FB02135B0903F00F03F0
:103840007A6A13437B627B6A9AB27B681A81283753
:10385000BD4680BD00100140001401401F85EB51A2
:1038600080B483B000AF78600B46FB70FB78002B10
:1038700008D07B689B899BB243F400539AB27B6863
:103880009A8107E07B689B899BB223F400539AB22C
:103890007B689A810C37BD465DF8047B704700BF9A
:1038A00080B483B000AF78600B467B807B88C3F325
:1038B00008039AB27B689A800C37BD465DF8047B9A
:1038C000704700BF80B483B000AF78607B689B888E
:1038D0009BB2C3F308039BB218460C37BD465DF894
:1038E000047B704780B483B000AF786013460A460B
:1038F0007A807B707B78002B08D07B689B8A9AB299
:103900007B8813439AB27B689A8209E07B689B8A22
:103910009AB27B88DB439BB213409AB27B689A824F
:103920000C37BD465DF8047B704700BF80B485B09E
:1039300000AF78600B467B800023FB737B681B889D
:103940009AB27B8813409BB2002B02D00123FB73F9
:1039500001E00023FB73FB7B18461437BD465DF87E
:10396000047B704780B487B000AF78600B467B80E3
:103970000023FB6000237B610023BB600023FB74FA
:103980007B88DBB25B09DBB2BB607B8803F01F0383
:103990007B617B69012202FA03F37B61BB68012B27
:1039A00006D17B689B899BB27A6913407B610FE0EB
:1039B000BB68022B06D17B681B8A9BB27A691340D5
:1039C0007B6105E07B689B8A9BB27A6913407B61CF
:1039D0007B881B0A9BB2FB60FB68012202FA03F39F
:1039E000FB607B681B889BB2FA681340FB607B69B5
:1039F000002B05D0FB68002B02D00123FB7401E0F3
:103A00000023FB74FB7C18461C37BD465DF8047B25
:103A1000704700BF80B582B000AF0023FB71644BDC
:103A200001221A700F200021FCF77CFF38603B68F0
:103A300003F08003002B1CD05E4B1B78002B0CD0B6
:103A40000F200021FA22FCF7C3FF5B4B1B78022BEF
:103A50000AD1594B01221A7006E0574B1B78022BF2
:103A600002D1554B00221A7003F094FA0123FB7126
:103A700094E03B6803F4C043002B48D04F4B1B68D5
:103A80005A1C4E4B1A603B6803F48063002B36D0FF
:103A90004B4B1B78002B0DD03B6803F48013002B9D
:103AA00008D00D2003210122FCF7A6FF012000F021
:103AB000DDF973E00F200021424AFCF777FF404B0D
:103AC0001B78002B02D13C4B00221A7003F004FB40
:103AD0003B4B1B78002B09D0374B1B78022B05D0B2
:103AE0000D2003210122FCF787FF05E0324B1B78F4
:103AF000002B01D100F0D4F80123FB714EE001202E
:103B000000F0B4F900F064F800F0CAF846E03B6851
:103B100003F40813002B03D0012000F0A7F93DE0C7
:103B20003B6803F40043002B10D0254B1B78002B7F
:103B300005D00D2003210122FCF75EFF2EE0224B71
:103B40001B78002B2AD100F0ABF827E03A681F4B16
:103B50001340002B22D01A4B1B78002B18D03B6847
:103B600003F48013002B0CD0154B1B78002B04D0D2
:103B70000D2003210122FCF73FFF012000F076F920
:103B80000CE0114B1B78002B08D100F089F805E000
:103B90000D4B1B78002B01D100F082F8044B002262
:103BA0001A70FB799BB218460837BD4680BD00BF2E
:103BB000361A0020341A0020351A0020F819002087
:103BC000311A002000EF2724331A00200090272408
:103BD00080B584B000AF01F075FA0E2000210022FC
:103BE000FCF7E4FE2A4B1B78002B0AD00F200221A1
:103BF000FCF7C4FE034603F01003002B01D00123A1
:103C000000E00023FB730D2000214022FCF7F4FEAE
:103C1000204B00221A70FB7B002B0ED00D200321BD
:103C20000122FCF7E9FE36200321E022FCF7E4FE46
:103C300036200321F022FCF7DFFE0D2003210122B4
:103C4000FCF7DAFE0F200021FCF76CFEB860BB68C1
:103C50001B0EFB71FB7903F08002FB7903F040033C
:103C60005B009A4204D00D2003210122FCF7C4FE20
:103C70000F200021084AFCF799FE0E200021074A78
:103C8000FCF794FE01F008FA1037BD4680BD00BF76
:103C9000311A0020351A0020FAEF272480B027249B
:103CA00080B582B000AF1A4B1B78002B0BD00F20D1
:103CB0000221FCF763FE034603F01003002B02D041
:103CC000FFF786FF13E00F200321FCF757FE0346A2
:103CD000FB71FB7903F08002FB7903F040035B008A
:103CE0009A4204D00D2003210122FCF785FE094BE6
:103CF00001221A700F200021074AFCF757FE0D2001
:103D000000214FF48072FCF763FE0837BD4680BD8A
:103D1000311A0020351A0020FEFFFF3F80B500AFAA
:103D2000064B1B78022B06D0FFF752FF034B0222F3
:103D30001A70012300E00023184680BD351A0020C8
:103D40002DE9B04F84B000AFC7E9000144490978BC
:103D500002297ED1D7E9000150EA010C54D000219C
:103D60003972D7E900014FEA102848EA01684FEAA2
:103D700011295FFA88F121F00101C9B27972D7E9FE
:103D80000001040C44EA01440D0CE1B2B972D7E918
:103D90000001020E42EA01220B0ED3B2FB72D7E9F8
:103DA00000239A464FF0000B5FFA8AF33B7307F14A
:103DB00008030A2005211A460023FCF797FE294B29
:103DC0001B78002B0FD0284B1B78002B05D00D2023
:103DD00000218622FCF7FCFD15E00D200021872242
:103DE000FCF7F6FD33E0204B1B78002B05D00D20AF
:103DF00000210622FCF7ECFD05E00D200021072242
:103E0000FCF7E6FD23E022E0164B1B78002B0FD0D9
:103E1000154B1B78002B05D00D2000218222FCF7CA
:103E2000D7FD14E00D2000218322FCF7D1FD0EE028
:103E30000D4B1B78002B05D00D2000210222FCF732
:103E4000C7FD04E00D2000210322FCF7C1FD012382
:103E500000E0002318461037BD46BDE8B08F00BF14
:103E6000351A0020341A00202F1A002080B582B0A5
:103E700000AF0346FB710C4B1B78002B01D0FFF702
:103E8000A7FE36200321E022FCF7B6FD36200321F1
:103E9000F022FCF7B1FDFB79002B01D0FFF700FF0A
:103EA0000837BD4680BD00BF351A00202DE9B04F50
:103EB00084B000AF07F10803172005211A4600233C
:103EC000FCF7AEFD3B7AD8B24FF000017B7ADAB254
:103ED0004FF000034FEA032B4BEA126B4FEA022A22
:103EE00040EA0A0041EA0B01BB7ADAB24FF0000364
:103EF0004FEA034949EA12494FEA024840EA0800FA
:103F000041EA0901FB7ADAB24FF000031D0645EAE7
:103F10001225140640EA040241EA0503397BC8B2BF
:103F20004FF000018446C7F804C000203860D7E98C
:103F3000000142EA000243EA010310461946103725
:103F4000BD46BDE8B08F00BF2DE9B04F84B000AFD3
:103F500007F10803152005211A460023FCF760FD30
:103F60003B7AD8B24FF000017B7ADAB24FF000030F
:103F70004FEA032B4BEA126B4FEA022A40EA0A008F
:103F800041EA0B01BB7ADAB24FF000034FEA034972
:103F900049EA12494FEA024840EA080041EA0901A9
:103FA000FB7ADAB24FF000031D0645EA122514062B
:103FB00040EA040241EA0503397BC8B24FF0000130
:103FC0008446C7F804C000203860D7E9000142EAFF
:103FD000000243EA0103104619461037BD46BDE80A
:103FE000B08F00BF0000000080B584B000AF122089
:103FF0000621FCF7ADFC0346184605F069FC0246B5
:104000000B46104619464FF000024FF0824305F070
:10401000D5FC02460B46C7E9022310200221FCF71B
:1040200097FC03461B099BB2184605F061FC02464B
:104030000B4643EC102B9FED301B03F0FFFEB0EE60
:10404000407AF0EE607A87ED007B314B1B78012BD4
:1040500024D1D7E90201D7E9002305F0D9FD0246B2
:104060000B4643EC172BB0EE470AF0EE670A03F05D
:1040700069FE53EC102B104619464FF00002254BF9
:1040800005F09CFC02460B46104619461CA3D3E9DA
:10409000002305F0DFFA02460B4623E0D7E90201D0
:1040A000D7E9002305F0B4FD02460B4643EC172B7D
:1040B000B0EE470AF0EE670A03F044FE53EC102B13
:1040C000104619464FF00002124B05F077FC0246ED
:1040D0000B46104619460CA3D3E9002305F0BAFAA3
:1040E00002460B4643EC172BB0EE470AF0EE670A88
:1040F0001037BD4680BD00BF00000000000000403A
:10410000AE47E17A14EE5C408FC2F5285C6F5E40EA
:104110002A1A00200000244080B584B000AF00F0CF
:10412000AFFFF860344B1B68FA689A4203D2324BF7
:10413000FA681A6054E0304B1B68FA68D31AB3F57A
:104140007A7F4DD32C4BFA681A602A200421FCF7A1
:1041500015FC0346FB722A2000210022FCF74CFCD0
:104160002A2000210122FCF747FC244B1B78FA7A15
:104170009A4235D0FA7A224B1B78D31A184605F0AA
:10418000B7FB02460B461046194619A3D3E9002394
:1041900005F014FC02460B46104619464FF000028B
:1041A000184B05F059FA02460B4643EC172BB0EEBC
:1041B000470AF0EE670A03F079FD53EC102B104626
:1041C000194605F095FE03467B607B6813F1280FC6
:1041D00006DB7B68502B03DC7B68DAB20A4B1A7073
:1041E000094B1B7818461037BD4680BDAFF30080E1
:1041F0003D0AD7A3703DF23FF4190020FD190020BD
:10420000FC19002000003740F0190020AFF30080B7
:1042100080B584B000AF0346FB800023FB60FB88C1
:10422000632B39D0FB881BB21846FBF7F5FF03461A
:10423000FB60FB68002B2FD1FB880F2B02D9FB887A
:10424000103BFB80FA88174B53F82230164819466A
:1042500003F0AEFCFA88134B632143F82210FB886D
:104260001A01124B134418460021102206F066F87A
:10427000FA880F4B002123F81210FA880D4B002109
:1042800043F82210FA880C4B002143F82210FA88D8
:104290000A4B002143F82210632318461037BD460D
:1042A00080BD00BF04000020B41101087C3B002049
:1042B000101A00204CDC0020248C002074DC00202C
:1042C00090B58BB002AF0023FB600023BB610023DD
:1042D0007B610023BB6000233B61784B00221A60A6
:1042E000764B4FF4FA725A601023FB807448FCF747
:1042F0000DFB7448FCF70AFB7348FCF707FB00232F
:10430000FB832CE0FA8B714B53F82230632B23D0C4
:10431000FA8B6E4B53F822309BB21BB21846684999
:10432000FCF7C2FAFA8B694B53F822309BB21BB2EE
:1043300018466449FCF7B8FAFA8B644B53F82230FC
:104340009BB21BB218466049FCF7AEFAFA8B3B6988
:104350009A4201D9FB8B3B61FB8B0133FB83FB8BC7
:10436000092BCFD93B699BB201339BB29BB21BB2E5
:10437000524A009218465249524A534BFCF7F2F9FE
:104380000346FB60FB68002B40F34A810023FB835C
:1043900042E1FA8B4D4B53F82230632B00F0398108
:1043A000FA8B4A4B53F822309BB21BB2184646494F
:1043B000FCF790FA0346002B0CD0FA8B444B53F8D1
:1043C0002230002B06D0FA8B414B53F82230FA8B67
:1043D00010469847FA8B3D4B53F822309BB21BB2E4
:1043E00018463749FCF776FA0346002B00F09C800C
:1043F000FB8BDA02374B1344184600214FF400625E
:1044000005F09CFFFA8B344B33F81230112B36D069
:10441000FF2B6BD0062B4DD1FA8B2C4B53F822304F
:104420009AB2FB8BD9022B4B0B4412B210461946A1
:104430004FF400620023FCF759F90346BB61BB69E6
:10444000002B0BD1254803F0F5FBFA8B1F4B53F8DB
:1044500022309BB21846FFF7DBFE48E0FB8B1A01C7
:104460001F4B1344FA8B11011E4A0A44146850680A
:104470009168D2681C6058609960DA6037E0FA8B06
:10448000124B53F822309AB2FB8BD902114B0B44DA
:10449000F98B08011249014412B20091B91D019132
:1044A000104619464FF400620023FBF75DFF0346F8
:1044B000BB611CE00C4803F0BDFBAAE01C8C002093
:1044C000783B0020A4DC0020C4320020040000203F
:1044D00074DC00201C3C0020101A0020D4110108BC
:1044E000D83A00207C3B00200412010800BFBB69C1
:1044F000002B19DDBB69B3F5006F15D8FA8B4C4B57
:1045000053F82230002B0FD0FA8B494B53F822403E
:10451000FB8BDA02474BD018BB6999B2FB8B1A01AF
:10452000454B1A44FB8BA047FA8B444B53F822307F
:104530009BB21BB218464249FCF7CCF90346002B4C
:1045400067D0FA8B3F4B53F82230002B61D0FA8BA7
:104550003C4B53F82230FA8BD1023B4A1144FA8B80
:1045600008464FF400619847B860BB68002B41DDF6
:10457000FA8B364B33F81230112B19D0FF2B38D071
:10458000062B32D1FA8B2D4B53F8223099B2FB8B8C
:10459000DA022D4B1A44BB689BB209B21BB2084623
:1045A00011461A460023FBF7AFFF03467B6121E06B
:1045B000FA8B224B53F8223099B2FB8BDA02224B52
:1045C0001A44BB689BB2F88B04011B480444F8886A
:1045D00009B21BB200940190084611461A46002306
:1045E000FBF738FE03467B6103E0194803F022FB2A
:1045F0000FE000BF7B69002B09DBFB8BDA02124B5B
:104600001344184600214FF4006205F097FE002382
:10461000BB60FB8B0133FB83FB8B092B7FF6B9AEB1
:104620000C4B00221A60FB6818462437BD4690BD2B
:104630004CDC00201C3C0020D83A00200400002064
:10464000A4DC0020248C00204C8C0020101A0020B8
:1046500030120108081A002080B500AF4FF4006046
:10466000012100F035FC4FF40060002100F030FC27
:1046700080BD00BF80B483B000AF0346FB71054B23
:10468000FA7902F07F021A600C37BD465DF8047BB0
:10469000704700BF002C004080B400AF034B0022E5
:1046A0009A60BD465DF8047B704700BF002C004057
:1046B00080B487B000AF78607B681B79FB737B6840
:1046C00000225A71354B1B683B613B691B79FA7BB1
:1046D0009A421ED13A697B689A421AD03B69002BF4
:1046E00017D02F4BD3E900012E4BD3E90023994279
:1046F00008BF90420DD23B695B8998B24FF0000130
:10470000284BD3E90023121843EB01032449C1E9E4
:104710000023254B1B683B613B69002B06D1234BD3
:1047200001221A70204B7A681A6032E03B691B79CB
:10473000FA7B9A420CD21D4B01221A707B683A69AF
:104740005A623B697A689A62174B7A681A6020E06D
:104750003B695B6A7B610AE07B691B79FA7B9A4261
:1047600000D207E07B693B617B695B6A7B617B69A7
:10477000002BF1D17B687A695A623B697A685A6288
:104780007B683A699A627B69002B02D07B697A6800
:104790009A621C37BD465DF8047B7047B81B002049
:1047A000C01B0020702D0020B01B00207A190020B3
:1047B00080B483B000AF78607B685B6A002B07D160
:1047C0007B689B6A002B03D11A4B00221A602BE0F6
:1047D0007B689B6A002B0BD17B685A6A154B1A6069
:1047E0007B6800225A62134B1B6800229A621BE00E
:1047F0007B685B6A002B07D17B689B6A00225A6248
:104800007B6800229A620FE07B689B6A7A68526A32
:104810005A627B685B6A7A68926A9A627B68002255
:104820005A627B6800229A620C37BD465DF8047BB1
:10483000704700BFB01B002080B584B000AF454B6F
:104840001B68FB60444B1B68BB60BB68002B0ED031
:10485000424B1B68FA689A4209D1414B1B78DBB284
:10486000012B04D83F4B1B78DBB2002B00D06DE04E
:104870003D4B00221A70FB681B79FB71BB681B79EA
:10488000BB71FB685B79012B09D0344BBA681A60A5
:10489000BB6801225A71B868FFF78AFF2CE0BA7929
:1048A000FB799A420CD22D4BBA681A60F868FFF770
:1048B000FFFEB868FFF77CFFBB6801225A711BE05E
:1048C000FA79BB799A4216D1284BD3E90001284BDB
:1048D000D3E90023994208BF90420CD11F4BBA681C
:1048E0001A60F868FFF7E4FEB868FFF761FFBB687D
:1048F00001225A7100E029E0184B1B681A79164B07
:104900001B681B799A420ED1144B1B685B8998B2C5
:104910004FF00001164BD3E90023121843EB0103BB
:104920001249C1E90023FB681A68FB68DB689A42F8
:1049300005D3FB68DB681A680E4B9A4204D0FB680B
:104940009B79184602F0D8FE01F00AFE1037BD46EA
:1049500080BD00BFB81B0020B01B0020B41B00208E
:1049600079190020781900207A190020C01B002036
:10497000702D0020A5A55A5A80B483B000AF154B06
:104980001B68FB80FB88002B05D0FB88013BFB806C
:10499000FA88104B1A60104B1B68FB80FB88002BB9
:1049A00005D0FB88013BFB80FA880B4B1A600B4B50
:1049B0001B787B717B7923F004037B717B7923F077
:1049C00002037B71054B7A791A700C37BD465DF88E
:1049D000047B7047C81B0020CC1B00204000002037
:1049E00080B582B000AF134B7B60134B3B6007E098
:1049F0003B681A1D3A607A68111D796012681A6066
:104A00003A680E4B9A42F3D30D480E494FF000021C
:104A10008842B8BF40F8042BFFF6FAAFDFF8280051
:104A2000016841F47001016000F008F90837BD46E3
:104A300080BD00BFFC22010800000020F408002017
:104A4000F808002044E9002088ED00E080B400AFC1
:104A5000FEE700BF80B582B000AF3A4B1B78012B58
:104A600004D100F039FE374B00221A70364B1B7808
:104A7000012B05D1FDF734F9334B00221A704EE0BB
:104A80004DE001F065FD314B5B78304ADB001344AB
:104A90003A46043393E8030082E803002B4B5B782B
:104AA000591C2B4B83FB01235A10CB17D21A1346E8
:104AB0009B001344CA1AD2B2244B5A70234B1B7862
:104AC000013BDAB2214B1A7001F03AFD3B78013B11
:104AD000032B23D801A252F823F000BFED4A0008AF
:104AE000F74A0008054B00080F4B00087B78184672
:104AF00002F06CFD13E07A787B681046194600F0EE
:104B000047FB0CE07B78184601F052FD07E07A780D
:104B10007B681046194601F0BDFC00E000BF0B4B5E
:104B20001B78002BADD101F013FD084B1B78002B37
:104B300002D1084B00221A7001F002FD0837BD4671
:104B400080BD00BF011C0020021C0020D41B0020DF
:104B500067666666001C002080B586B000AF4FF423
:104B60000030012100F078F90120012100F056F910
:104B70000C233B6102233B7502237B750023BB752D
:104B80000123FB7507F110031548194600F0C8FE14
:104B900013480221072200F0BBFF1148032107221E
:104BA00000F0B6FF4FF461233B600023BB8000237D
:104BB000FB8000233B810023BB810C237B813B4690
:104BC00008481946FEF792FD06480121FEF748FE07
:104BD000054880210122FEF785FE1837BD4680BDBD
:104BE00000000240004400400014014090B585B030
:104BF00000AF78600023FB600023FB6012E0FB68DD
:104C00007A6813441B780C481946FEF749FE00BF2A
:104C100009484021FEF78AFE0346002BF8D0FB68C6
:104C20000133FB60FC68786805F056FC03469C4243
:104C3000E5D31437BD4690BD0044004080B59CB01C
:104C400000AF01F00FFA00F0B3F9FFF785FF002382
:104C500087F8383000233B710023FB661848202179
:104C6000FEF764FE0346012B28D11548FEF72AFE05
:104C7000034687F86B3097F86B300D2B0BD097F805
:104C80006B30391D3A1D08460E4905F0A1FBFB6E3D
:104C90000133FB6612E007F138023B1D10460A495A
:104CA0001A46FB6E05F094FB07F138031846FFF730
:104CB0009DFF00233B710023FB66CFE7CEE700BFDB
:104CC000004400403C1701084417010880B489B033
:104CD00000AF78600023BB6100237B610023FB6190
:104CE00002233B610023FB600223BB60484B9B68AF
:104CF00003F00C03BB61BB69042B07D0082B09D060
:104D0000002B3FD17B68434A1A603FE07B68414AF1
:104D10001A603BE03E4B5B6803F480039B0DFB6035
:104D20003B4B5B6803F03F03BB60FB68002B0DD07F
:104D3000384ABB68B2FBF3F2354B596847F6C0738B
:104D40000B409B0903FB02F3FB610CE0314ABB689B
:104D5000B2FBF3F22E4B596847F6C0730B409B0928
:104D600003FB02F3FB612A4B5B6803F440331B0C2B
:104D700001335B003B61FA693B69B2FBF3F27B688C
:104D80001A6003E07B68234A1A6000BF204B9B68CF
:104D900003F0F003BB61BB691B09BB611E4ABB6921
:104DA00013441B78DBB27B617B681A687B69DA404D
:104DB0007B685A60164B9B6803F4E053BB61BB6988
:104DC0009B0ABB61144ABB6913441B78DBB27B614D
:104DD0007B685A687B69DA407B689A600C4B9B68F9
:104DE00003F46043BB61BB695B0BBB610A4ABB69EF
:104DF00013441B78DBB27B617B685A687B69DA40BD
:104E00007B68DA602437BD465DF8047B704700BFDD
:104E1000003802400024F4004400002080B483B035
:104E200000AF78600B46FB70FB78002B06D0094B77
:104E3000084A116B7A680A431A6306E0054B054A73
:104E4000116B7A68D2430A401A630C37BD465DF88D
:104E5000047B70470038024080B483B000AF7860B4
:104E60000B46FB70FB78002B06D0094B084A116CEF
:104E70007A680A431A6406E0054B054A116C7A68A1
:104E8000D2430A401A640C37BD465DF8047B704774
:104E90000038024080B483B000AF78600B46FB70EE
:104EA000FB78002B06D0094B084A516C7A680A43FC
:104EB0005A6406E0054B054A516C7A68D2430A40B1
:104EC0005A640C37BD465DF8047B704700380240D9
:104ED00080B483B000AF78600B46FB70FB78002B8A
:104EE00006D0094B084A116A7A680A431A6206E03A
:104EF000054B054A116A7A68D2430A401A620C3798
:104F0000BD465DF8047B70470038024080B500AFB5
:104F1000FFF732FD80BD00BF80B483B000AF034611
:104F20003960FB7197F90730002B0BDA0D49FB79DB
:104F300003F00F03043B3A68D2B21201D2B20B4421
:104F40001A7609E0084997F907303A68D2B2120197
:104F5000D2B20B4483F800230C37BD465DF8047BC6
:104F6000704700BF00ED00E000E100E080B582B0D6
:104F700000AF78607B68B3F1807F01D3012311E03B
:104F80000A4B7A6822F07F42013A5A604FF0FF30B4
:104F90000F21FFF7C1FF054B00229A60034B072248
:104FA0001A60002318460837BD4680BD10E000E0B7
:104FB00080B500AF064B1A68064BA3FB02139B0992
:104FC0001846FFF7D3FF0346002B00D0FEE780BD55
:104FD00058000020D34D621080B487B000AF7860D5
:104FE0000B467B800023FB7500233B610023FB60A5
:104FF0007B881B0A9BB23B617B685A687B88DBB26B
:10500000012101FA03F31340FB607B681A683B69D6
:105010001340002B05D0FB68002B02D00123FB7549
:1050200001E00023FB75FB7D18461C37BD465DF88B
:10503000047B704780B485B000AF78600B467B80FE
:105040000023FB737B881B0A9BB2FB73FB7BDA4359
:105050007B681A601437BD465DF8047B704700BF5B
:1050600080B400AF72B6BD465DF8047B704700BFE8
:1050700080B400AF62B6BD465DF8047B704700BFE8
:1050800080B400AF034B1B681846BD465DF8047B37
:10509000704700BF902D002080B500AF074B012264
:1050A0009A71074B0122DA70044801F0D9FB0448D9
:1050B00001F096FCFFF7DCFF80BD00BFB4DC0020F0
:1050C000D0DC002080B500AFFFF7CAFF064B0022FE
:1050D0009A71064B0022DA70034801F0C1FB0348C5
:1050E00001F07EFC80BD00BFB4DC0020D0DC0020DD
:1050F00080B582B000AF78600B467B807B68002B68
:1051000037D07B88002B34D0FFF7AAFF1B4B02223D
:105110005A831B4B7A885A601A4B7A885A60184B0C
:105120007A68DA60174B7A68DA60164B154A1268AB
:1051300042F001021A60124B114A126842F0010259
:105140001A60FFE7104B1B6803F02463002BF9D0B3
:10515000FFE70D4B1B6803F42413002BF9D00A4B17
:105160000A4A9A60054B02221A83FFF781FF7B8867
:1051700000E0002318460837BD4680BD0004024009
:105180005864024040640240006402400000690A22
:1051900080B584B000AF03463960FB71FB79132BF7
:1051A00001D9012326E0FB791A01144B1344FB605B
:1051B000FB685B79C3F30303DBB2022B01D001234D
:1051C00018E0FB68DB88002B13D10D4B1B78DBB29A
:1051D0000133DAB20A4B1A70FB683A681A60FB684E
:1051E0000122DA80F86800F0C9FAFBF7FDFF00231E
:1051F00000E0072318461037BD4680BD102C002064
:105200007919002080B588B000AF78603960394ADC
:1052100007F10C0307CA03C31A7007F10C03184601
:1052200005F05AF90346FB613B689B6800221A703F
:105230003B6800221A717B681B79092B56D97B6861
:105240009968FB6907F10C02084611461A4605F0F9
:1052500073F90346002B49D17B689A68FB691344B4
:10526000BB61B8692449022205F066F90346002BA8
:105270001AD12248042100F015FC0346012B0AD163
:105280003B689B681E4A1188927819809A703B6827
:1052900002221A712AE03B689B681A4A106818605B
:1052A0003B6803221A7121E0B8691749022205F010
:1052B00043F90346002B19D11448202100F0D8FBF4
:1052C0000346012B0AD13B689B680D4A11889278EE
:1052D00019809A703B6802221A7107E03B689B684C
:1052E000084A106818603B6803221A712037BD46CF
:1052F00080BD00BF6018010850180108000402407A
:1053000054180108581801085C18010800080240E8
:1053100080B588B000AF78603960204A07F10C038F
:1053200007CA03C31A7007F10C03184605F0D4F836
:105330000346FB617B681B7B092B2CD97B681969B1
:10534000FB6907F10C02084611461A4605F0F4F80D
:105350000346002B1FD17B681A69FB691344BB61AC
:10536000B8690F49022205F0E7F80346002B12D175
:105370007B689B6918460B49022205F0DDF803465D
:10538000002B04D10848042100F0A6FB03E00648E6
:10539000042100F0AFFB2037BD4680BD6C1801082A
:1053A00050180108541801080004024080B584B068
:1053B00000AFF860B9607A60244B25481946002296
:1053C00000F062FF7B689BB22148194600F04EFF57
:1053D000BB6820481946002200F056FF7B689BB24C
:1053E0001C48194600F042FF1B484FF4007100F0C2
:1053F00081FB1748012100F01DFF1648012100F034
:1054000019FFFFE712484FF0C05100F053FF034669
:10541000002BF7D0FFE70F48104900F04BFF034681
:10542000002BF8D00C484FF4007100F055FB0948F0
:105430000A4900F07BFF06484FF0C05100F076FFAC
:105440007B6818461037BD4680BD00BF081C002091
:1054500058600240706002400004024020000020BA
:1054600080B584B000AFF860B9607A60BB6824484A
:105470001946002200F008FF7B689BB220481946BD
:1054800000F0F4FEBB681F481946002200F0FCFE45
:105490007B689BB21B48194600F0E8FE1A484FF49F
:1054A000007100F027FB1648012100F0C3FE1548EB
:1054B000012100F0BFFEFFE711484FF0C05100F09E
:1054C000F9FE0346002BF7D0FFE70E480F4900F026
:1054D000F1FE0346002BF8D00B484FF4007100F0AA
:1054E000FBFA0848094900F021FF05484FF0C05178
:1054F00000F01CFF7B6818461037BD4680BD00BF1A
:105500005860024070600240000402402000002009
:1055100080B500AF0748002100F08CFE00F010F8C5
:105520000448054900F002FF04484FF0C05100F064
:10553000FDFE80BD706002402000002058600240E7
:1055400080B582B000AF1148114900F0B3FE0346A8
:105550007B6010484FF0C05100F0ACFE03463B604A
:105560007B68002B0FD03B68002B0CD00748084904
:1055700000F0DCFE07484FF0C05100F0D7FE0648AF
:10558000712101F011F90837BD4680BD70600240FD
:1055900020000020586002400038004080B500AF75
:1055A000044B1B68002B03D0024B1B68002098475C
:1055B00080BD00BF082C002080B582B000AF154828
:1055C00040F22551FEF7CEF90346002B1FD01148BB
:1055D000FEF778F90346FB710F4B5A780E4B1A70A1
:1055E0000D4BFA795A700C4B1B78002B0FD10A4BDC
:1055F0005B78CC2B0BD1094B01221A60064BFF22A2
:105600001A70054BFF225A70054802F013FB083749
:10561000BD4680BD0014014054000020041C002041
:10562000F41A010880B483B000AF78607B689B6A8D
:10563000002B07D17B685B6A002B03D1254B00222E
:105640001A603DE07B689B6A002B14D17B685A6A24
:10565000204B1A607B685B6A7A68526A116A7A68C2
:10566000126A0A441A627B685B6A00229A627B684B
:1056700000225A6224E07B685B6A002B07D17B68BA
:105680009B6A00225A627B6800229A6218E07B685B
:105690009B6A7A68526A5A627B685B6A7A68926A25
:1056A0009A627B685B6A7A68526A116A7A68126ADF
:1056B0000A441A627B6800225A627B6800229A625E
:1056C0007B684FF0FF321A620C37BD465DF8047BF1
:1056D000704700BF0C2C002080B582B000AF1A4B81
:1056E0001B687B6026E07B681B7AFF2B02D0786802
:1056F00000F0CAF87B68DB69002B04D07B68DB69AB
:10570000184600F0F9FF7B684FF0FF321A627B68A1
:105710005A6A0D4B1A607B6800225A627868FEF75D
:10572000C7FF094B1B687B607B68002B02D07B683E
:1057300000229A627B68002B03D07B681B6A002BD7
:10574000D1D00837BD4680BD0C2C002080B500AFFD
:10575000074B1B78DBB2012B06D9064B01221A70CE
:10576000054B01221A7001E0FFF7B6FF80BD00BFB4
:1057700079190020001C0020011C002080B584B095
:1057800000AF78607B68DB68FB60FB68002B00D1B2
:1057900074E0FB685A697B68DA607B68DB68002B21
:1057A00003D07B68DB6800229A61FB6800225A61A3
:1057B000FB68FF221A72FB681B6AB3F1FF3F02D03D
:1057C000F868FFF72FFF7B685B79C3F30303DBB255
:1057D000022B0DD17B681A68FB681A617B68002276
:1057E0001A607B68DB88013B9AB27B68DA8039E01B
:1057F0007B685B79C3F30303DBB2032B21D17B68A6
:105800001B68BB60BB681A68BB68DB889B001344DD
:105810001A68FB681A61BB68DB8801339AB2BB68FF
:10582000DA80BB689B89013B9AB2BB689A81BB68EE
:10583000DA88BB685B899A4214D1BB680022DA809F
:1058400010E07B685B79C3F30303DBB2012B09D162
:105850007B68DB88013B9AB27B68DA80FB684FF09B
:10586000FF321A61074B1B68FA689A4203D1FB6842
:1058700001225A7102E0F868FEF71AFF1037BD46A0
:1058800080BD00BFB81B002080B485B000AF786039
:105890007B681B7A1A01214B1344FB607B685B69B0
:1058A000002B07D17B689B69002B03D1FB6800228A
:1058B000DA602BE07B689B69002B0BD17B685B690E
:1058C00000229A617B685A69FB68DA607B68002273
:1058D0005A611BE07B685B69002B07D17B689B6981
:1058E00000225A617B6800229A610FE07B689B6905
:1058F0007A6852695A617B685B697A6892699A61D1
:105900007B6800229A617B6800225A617B68FF22D3
:105910001A721437BD465DF8047B7047102C0020C6
:1059200080B487B000AF7860396000237B610023CA
:105930003B610023FB6000237B6176E07B690122F1
:1059400002FA03F33B613B681A683B691340FB6052
:10595000FA683B699A4265D17B681A687B695B008B
:10596000032101FA03F3DB431A407B681A607B686A
:105970001A683B681B7919467B695B0001FA03F3DF
:105980001A437B681A603B681B79012B03D03B6884
:105990001B79022B2ED17B689A687B695B000321FF
:1059A00001FA03F3DB431A407B689A607B689A68CC
:1059B0003B685B7919467B695B0001FA03F31A4384
:1059C0007B689A607B685A687B699BB2012101FA07
:1059D00003F3DB431A407B685A607B685A683B6874
:1059E0009B7919467B699BB201FA03F39BB21A4378
:1059F0007B685A607B68DA687B699BB25B00032135
:105A000001FA03F3DB431A407B68DA607B68DA68EB
:105A10003B68DB7919467B695B0001FA03F31A43A3
:105A20007B68DA607B6901337B617B690F2B85D9E9
:105A30001C37BD465DF8047B704700BF80B483B05F
:105A400000AF78607B684FF6FF721A607B680022B7
:105A50001A717B6800225A717B6800229A717B68F8
:105A60000022DA710C37BD465DF8047B704700BF39
:105A700080B485B000AF78600B467B800023FB7359
:105A80007B681A697B881340002B02D00123FB73CB
:105A900001E00023FB73FB7B18461437BD465DF81D
:105AA000047B704780B485B000AF78600B467B8084
:105AB0000023FB737B685A697B881340002B02D05C
:105AC0000123FB7301E00023FB73FB7B18461437B3
:105AD000BD465DF8047B704780B483B000AF78604A
